{
  "_format": "hh-sol-artifact-1",
  "contractName": "ATXDAONFT",
  "sourceName": "contracts/ATXDAONFT.sol",
  "abi": [
    {
      "inputs": [],
      "stateMutability": "nonpayable",
      "type": "constructor"
    },
    {
      "anonymous": false,
      "inputs": [
        {
          "indexed": true,
          "internalType": "address",
          "name": "owner",
          "type": "address"
        },
        {
          "indexed": true,
          "internalType": "address",
          "name": "approved",
          "type": "address"
        },
        {
          "indexed": true,
          "internalType": "uint256",
          "name": "tokenId",
          "type": "uint256"
        }
      ],
      "name": "Approval",
      "type": "event"
    },
    {
      "anonymous": false,
      "inputs": [
        {
          "indexed": true,
          "internalType": "address",
          "name": "owner",
          "type": "address"
        },
        {
          "indexed": true,
          "internalType": "address",
          "name": "operator",
          "type": "address"
        },
        {
          "indexed": false,
          "internalType": "bool",
          "name": "approved",
          "type": "bool"
        }
      ],
      "name": "ApprovalForAll",
      "type": "event"
    },
    {
      "anonymous": false,
      "inputs": [
        {
          "indexed": true,
          "internalType": "address",
          "name": "previousOwner",
          "type": "address"
        },
        {
          "indexed": true,
          "internalType": "address",
          "name": "newOwner",
          "type": "address"
        }
      ],
      "name": "OwnershipTransferred",
      "type": "event"
    },
    {
      "anonymous": false,
      "inputs": [
        {
          "indexed": true,
          "internalType": "address",
          "name": "from",
          "type": "address"
        },
        {
          "indexed": true,
          "internalType": "address",
          "name": "to",
          "type": "address"
        },
        {
          "indexed": true,
          "internalType": "uint256",
          "name": "tokenId",
          "type": "uint256"
        }
      ],
      "name": "Transfer",
      "type": "event"
    },
    {
      "inputs": [],
      "name": "_mintPrice",
      "outputs": [
        {
          "internalType": "uint256",
          "name": "",
          "type": "uint256"
        }
      ],
      "stateMutability": "view",
      "type": "function"
    },
    {
      "inputs": [],
      "name": "_mintQuantity",
      "outputs": [
        {
          "internalType": "uint256",
          "name": "",
          "type": "uint256"
        }
      ],
      "stateMutability": "view",
      "type": "function"
    },
    {
      "inputs": [
        {
          "internalType": "address",
          "name": "to",
          "type": "address"
        },
        {
          "internalType": "uint256",
          "name": "tokenId",
          "type": "uint256"
        }
      ],
      "name": "approve",
      "outputs": [],
      "stateMutability": "nonpayable",
      "type": "function"
    },
    {
      "inputs": [
        {
          "internalType": "address",
          "name": "owner",
          "type": "address"
        }
      ],
      "name": "balanceOf",
      "outputs": [
        {
          "internalType": "uint256",
          "name": "",
          "type": "uint256"
        }
      ],
      "stateMutability": "view",
      "type": "function"
    },
    {
      "inputs": [],
      "name": "endMint",
      "outputs": [],
      "stateMutability": "nonpayable",
      "type": "function"
    },
    {
      "inputs": [
        {
          "internalType": "uint256",
          "name": "tokenId",
          "type": "uint256"
        }
      ],
      "name": "getApproved",
      "outputs": [
        {
          "internalType": "address",
          "name": "",
          "type": "address"
        }
      ],
      "stateMutability": "view",
      "type": "function"
    },
    {
      "inputs": [
        {
          "internalType": "address",
          "name": "owner",
          "type": "address"
        },
        {
          "internalType": "address",
          "name": "operator",
          "type": "address"
        }
      ],
      "name": "isApprovedForAll",
      "outputs": [
        {
          "internalType": "bool",
          "name": "",
          "type": "bool"
        }
      ],
      "stateMutability": "view",
      "type": "function"
    },
    {
      "inputs": [],
      "name": "isMintable",
      "outputs": [
        {
          "internalType": "bool",
          "name": "",
          "type": "bool"
        }
      ],
      "stateMutability": "view",
      "type": "function"
    },
    {
      "inputs": [],
      "name": "mint",
      "outputs": [],
      "stateMutability": "payable",
      "type": "function"
    },
    {
      "inputs": [
        {
          "internalType": "address[]",
          "name": "recipients",
          "type": "address[]"
        },
        {
          "internalType": "string",
          "name": "tokenURI",
          "type": "string"
        }
      ],
      "name": "mintSpecial",
      "outputs": [],
      "stateMutability": "nonpayable",
      "type": "function"
    },
    {
      "inputs": [],
      "name": "name",
      "outputs": [
        {
          "internalType": "string",
          "name": "",
          "type": "string"
        }
      ],
      "stateMutability": "view",
      "type": "function"
    },
    {
      "inputs": [],
      "name": "owner",
      "outputs": [
        {
          "internalType": "address",
          "name": "",
          "type": "address"
        }
      ],
      "stateMutability": "view",
      "type": "function"
    },
    {
      "inputs": [
        {
          "internalType": "uint256",
          "name": "tokenId",
          "type": "uint256"
        }
      ],
      "name": "ownerOf",
      "outputs": [
        {
          "internalType": "address",
          "name": "",
          "type": "address"
        }
      ],
      "stateMutability": "view",
      "type": "function"
    },
    {
      "inputs": [],
      "name": "renounceOwnership",
      "outputs": [],
      "stateMutability": "nonpayable",
      "type": "function"
    },
    {
      "inputs": [
        {
          "internalType": "address",
          "name": "from",
          "type": "address"
        },
        {
          "internalType": "address",
          "name": "to",
          "type": "address"
        },
        {
          "internalType": "uint256",
          "name": "tokenId",
          "type": "uint256"
        }
      ],
      "name": "safeTransferFrom",
      "outputs": [],
      "stateMutability": "nonpayable",
      "type": "function"
    },
    {
      "inputs": [
        {
          "internalType": "address",
          "name": "from",
          "type": "address"
        },
        {
          "internalType": "address",
          "name": "to",
          "type": "address"
        },
        {
          "internalType": "uint256",
          "name": "tokenId",
          "type": "uint256"
        },
        {
          "internalType": "bytes",
          "name": "_data",
          "type": "bytes"
        }
      ],
      "name": "safeTransferFrom",
      "outputs": [],
      "stateMutability": "nonpayable",
      "type": "function"
    },
    {
      "inputs": [
        {
          "internalType": "address",
          "name": "operator",
          "type": "address"
        },
        {
          "internalType": "bool",
          "name": "approved",
          "type": "bool"
        }
      ],
      "name": "setApprovalForAll",
      "outputs": [],
      "stateMutability": "nonpayable",
      "type": "function"
    },
    {
      "inputs": [
        {
          "internalType": "uint256",
          "name": "mintPrice",
          "type": "uint256"
        },
        {
          "internalType": "uint256",
          "name": "mintQuantity",
          "type": "uint256"
        },
        {
          "internalType": "string",
          "name": "tokenURI",
          "type": "string"
        }
      ],
      "name": "startMint",
      "outputs": [],
      "stateMutability": "nonpayable",
      "type": "function"
    },
    {
      "inputs": [
        {
          "internalType": "bytes4",
          "name": "interfaceId",
          "type": "bytes4"
        }
      ],
      "name": "supportsInterface",
      "outputs": [
        {
          "internalType": "bool",
          "name": "",
          "type": "bool"
        }
      ],
      "stateMutability": "view",
      "type": "function"
    },
    {
      "inputs": [],
      "name": "sweepEth",
      "outputs": [],
      "stateMutability": "nonpayable",
      "type": "function"
    },
    {
      "inputs": [],
      "name": "symbol",
      "outputs": [
        {
          "internalType": "string",
          "name": "",
          "type": "string"
        }
      ],
      "stateMutability": "view",
      "type": "function"
    },
    {
      "inputs": [
        {
          "internalType": "uint256",
          "name": "tokenId",
          "type": "uint256"
        }
      ],
      "name": "tokenURI",
      "outputs": [
        {
          "internalType": "string",
          "name": "",
          "type": "string"
        }
      ],
      "stateMutability": "view",
      "type": "function"
    },
    {
      "inputs": [
        {
          "internalType": "address",
          "name": "from",
          "type": "address"
        },
        {
          "internalType": "address",
          "name": "to",
          "type": "address"
        },
        {
          "internalType": "uint256",
          "name": "tokenId",
          "type": "uint256"
        }
      ],
      "name": "transferFrom",
      "outputs": [],
      "stateMutability": "nonpayable",
      "type": "function"
    },
    {
      "inputs": [
        {
          "internalType": "address",
          "name": "newOwner",
          "type": "address"
        }
      ],
      "name": "transferOwnership",
      "outputs": [],
      "stateMutability": "nonpayable",
      "type": "function"
    }
  ],
  "bytecode": "0x60806040526000600760146101000a81548160ff02191690831515021790555067071afd498d00000060085560196009553480156200003d57600080fd5b506040518060400160405280600781526020017f4154582044414f000000000000000000000000000000000000000000000000008152506040518060400160405280600381526020017f41545800000000000000000000000000000000000000000000000000000000008152508160009080519060200190620000c2929190620001d2565b508060019080519060200190620000db929190620001d2565b505050620000fe620000f26200010460201b60201c565b6200010c60201b60201c565b620002e7565b600033905090565b6000600760009054906101000a900473ffffffffffffffffffffffffffffffffffffffff16905081600760006101000a81548173ffffffffffffffffffffffffffffffffffffffff021916908373ffffffffffffffffffffffffffffffffffffffff1602179055508173ffffffffffffffffffffffffffffffffffffffff168173ffffffffffffffffffffffffffffffffffffffff167f8be0079c531659141344cd1fd0a4f28419497f9722a3daafe3b4186f6b6457e060405160405180910390a35050565b828054620001e090620002b1565b90600052602060002090601f01602090048101928262000204576000855562000250565b82601f106200021f57805160ff191683800117855562000250565b8280016001018555821562000250579182015b828111156200024f57825182559160200191906001019062000232565b5b5090506200025f919062000263565b5090565b5b808211156200027e57600081600090555060010162000264565b5090565b7f4e487b7100000000000000000000000000000000000000000000000000000000600052602260045260246000fd5b60006002820490506001821680620002ca57607f821691505b60208210811415620002e157620002e062000282565b5b50919050565b613b6380620002f76000396000f3fe60806040526004361061014b5760003560e01c806370a08231116100b6578063b88d4fde1161006f578063b88d4fde14610437578063c87b56dd14610460578063d520ec6b1461049d578063e0dba62b146104c8578063e985e9c5146104f1578063f2fde38b1461052e5761014b565b806370a082311461034d578063715018a61461038a5780638da5cb5b146103a157806395d89b41146103cc5780639ac84414146103f7578063a22cb4651461040e5761014b565b8063095ea7b311610108578063095ea7b3146102605780631249c58b1461028957806323b872dd1461029357806342842e0e146102bc57806346b45af7146102e55780636352211e146103105761014b565b8063017043a51461015057806301ffc9a7146101675780630387da42146101a45780630611ce2e146101cf57806306fdde03146101f8578063081812fc14610223575b600080fd5b34801561015c57600080fd5b50610165610557565b005b34801561017357600080fd5b5061018e600480360381019061018991906123c7565b6105f0565b60405161019b919061240f565b60405180910390f35b3480156101b057600080fd5b506101b96106d2565b6040516101c69190612443565b60405180910390f35b3480156101db57600080fd5b506101f660048036038101906101f191906125d0565b6106d8565b005b34801561020457600080fd5b5061020d6107a3565b60405161021a91906126c7565b60405180910390f35b34801561022f57600080fd5b5061024a600480360381019061024591906126e9565b610835565b6040516102579190612757565b60405180910390f35b34801561026c57600080fd5b506102876004803603810190610282919061279e565b6108ba565b005b6102916109d2565b005b34801561029f57600080fd5b506102ba60048036038101906102b591906127de565b610c36565b005b3480156102c857600080fd5b506102e360048036038101906102de91906127de565b610c96565b005b3480156102f157600080fd5b506102fa610cb6565b604051610307919061240f565b60405180910390f35b34801561031c57600080fd5b50610337600480360381019061033291906126e9565b610cc9565b6040516103449190612757565b60405180910390f35b34801561035957600080fd5b50610374600480360381019061036f9190612831565b610d7b565b6040516103819190612443565b60405180910390f35b34801561039657600080fd5b5061039f610e33565b005b3480156103ad57600080fd5b506103b6610ebb565b6040516103c39190612757565b60405180910390f35b3480156103d857600080fd5b506103e1610ee5565b6040516103ee91906126c7565b60405180910390f35b34801561040357600080fd5b5061040c610f77565b005b34801561041a57600080fd5b506104356004803603810190610430919061288a565b611049565b005b34801561044357600080fd5b5061045e6004803603810190610459919061296b565b6111ca565b005b34801561046c57600080fd5b50610487600480360381019061048291906126e9565b61122c565b60405161049491906126c7565b60405180910390f35b3480156104a957600080fd5b506104b261137e565b6040516104bf9190612443565b60405180910390f35b3480156104d457600080fd5b506104ef60048036038101906104ea9190612ab6565b611384565b005b3480156104fd57600080fd5b5061051860048036038101906105139190612b2e565b61147f565b604051610525919061240f565b60405180910390f35b34801561053a57600080fd5b5061055560048036038101906105509190612831565b611513565b005b61055f61160b565b73ffffffffffffffffffffffffffffffffffffffff1661057d610ebb565b73ffffffffffffffffffffffffffffffffffffffff16146105d3576040517f08c379a00000000000000000000000000000000000000000000000000000000081526004016105ca90612bba565b60405180910390fd5b6000600760146101000a81548160ff021916908315150217905550565b60007f80ac58cd000000000000000000000000000000000000000000000000000000007bffffffffffffffffffffffffffffffffffffffffffffffffffffffff1916827bffffffffffffffffffffffffffffffffffffffffffffffffffffffff191614806106bb57507f5b5e139f000000000000000000000000000000000000000000000000000000007bffffffffffffffffffffffffffffffffffffffffffffffffffffffff1916827bffffffffffffffffffffffffffffffffffffffffffffffffffffffff1916145b806106cb57506106ca82611613565b5b9050919050565b60085481565b6106e061160b565b73ffffffffffffffffffffffffffffffffffffffff166106fe610ebb565b73ffffffffffffffffffffffffffffffffffffffff1614610754576040517f08c379a000000000000000000000000000000000000000000000000000000000815260040161074b90612bba565b60405180910390fd5b6001600760146101000a81548160ff021916908315150217905550826008819055508160098190555080600c90805190602001906107939291906122b8565b5061079e600a61167d565b505050565b6060600080546107b290612c09565b80601f01602080910402602001604051908101604052809291908181526020018280546107de90612c09565b801561082b5780601f106108005761010080835404028352916020019161082b565b820191906000526020600020905b81548152906001019060200180831161080e57829003601f168201915b5050505050905090565b60006108408261168a565b61087f576040517f08c379a000000000000000000000000000000000000000000000000000000000815260040161087690612cad565b60405180910390fd5b6004600083815260200190815260200160002060009054906101000a900473ffffffffffffffffffffffffffffffffffffffff169050919050565b60006108c582610cc9565b90508073ffffffffffffffffffffffffffffffffffffffff168373ffffffffffffffffffffffffffffffffffffffff161415610936576040517f08c379a000000000000000000000000000000000000000000000000000000000815260040161092d90612d3f565b60405180910390fd5b8073ffffffffffffffffffffffffffffffffffffffff1661095561160b565b73ffffffffffffffffffffffffffffffffffffffff16148061098457506109838161097e61160b565b61147f565b5b6109c3576040517f08c379a00000000000000000000000000000000000000000000000000000000081526004016109ba90612dd1565b60405180910390fd5b6109cd83836116f6565b505050565b60011515600760149054906101000a900460ff16151514610a28576040517f08c379a0000000000000000000000000000000000000000000000000000000008152600401610a1f90612e63565b60405180910390fd5b6000610a3333610d7b565b14610a73576040517f08c379a0000000000000000000000000000000000000000000000000000000008152600401610a6a90612ef5565b60405180910390fd5b600954610a80600a6117af565b10610ac0576040517f08c379a0000000000000000000000000000000000000000000000000000000008152600401610ab790612f61565b60405180910390fd5b600854341015610b05576040517f08c379a0000000000000000000000000000000000000000000000000000000008152600401610afc90612fcd565b60405180910390fd5b3273ffffffffffffffffffffffffffffffffffffffff163373ffffffffffffffffffffffffffffffffffffffff1614610b73576040517f08c379a0000000000000000000000000000000000000000000000000000000008152600401610b6a90613039565b60405180910390fd5b610b7d600b6117bd565b6000610b89600b6117af565b9050610b9533826117d3565b610c2981600c8054610ba690612c09565b80601f0160208091040260200160405190810160405280929190818152602001828054610bd290612c09565b8015610c1f5780601f10610bf457610100808354040283529160200191610c1f565b820191906000526020600020905b815481529060010190602001808311610c0257829003601f168201915b50505050506117f1565b610c33600a6117bd565b50565b610c47610c4161160b565b82611865565b610c86576040517f08c379a0000000000000000000000000000000000000000000000000000000008152600401610c7d906130cb565b60405180910390fd5b610c91838383611943565b505050565b610cb1838383604051806020016040528060008152506111ca565b505050565b600760149054906101000a900460ff1681565b6000806002600084815260200190815260200160002060009054906101000a900473ffffffffffffffffffffffffffffffffffffffff169050600073ffffffffffffffffffffffffffffffffffffffff168173ffffffffffffffffffffffffffffffffffffffff161415610d72576040517f08c379a0000000000000000000000000000000000000000000000000000000008152600401610d699061315d565b60405180910390fd5b80915050919050565b60008073ffffffffffffffffffffffffffffffffffffffff168273ffffffffffffffffffffffffffffffffffffffff161415610dec576040517f08c379a0000000000000000000000000000000000000000000000000000000008152600401610de3906131ef565b60405180910390fd5b600360008373ffffffffffffffffffffffffffffffffffffffff1673ffffffffffffffffffffffffffffffffffffffff168152602001908152602001600020549050919050565b610e3b61160b565b73ffffffffffffffffffffffffffffffffffffffff16610e59610ebb565b73ffffffffffffffffffffffffffffffffffffffff1614610eaf576040517f08c379a0000000000000000000000000000000000000000000000000000000008152600401610ea690612bba565b60405180910390fd5b610eb96000611b9f565b565b6000600760009054906101000a900473ffffffffffffffffffffffffffffffffffffffff16905090565b606060018054610ef490612c09565b80601f0160208091040260200160405190810160405280929190818152602001828054610f2090612c09565b8015610f6d5780601f10610f4257610100808354040283529160200191610f6d565b820191906000526020600020905b815481529060010190602001808311610f5057829003601f168201915b5050505050905090565b610f7f61160b565b73ffffffffffffffffffffffffffffffffffffffff16610f9d610ebb565b73ffffffffffffffffffffffffffffffffffffffff1614610ff3576040517f08c379a0000000000000000000000000000000000000000000000000000000008152600401610fea90612bba565b60405180910390fd5b6000479050611000610ebb565b73ffffffffffffffffffffffffffffffffffffffff166108fc829081150290604051600060405180830381858888f19350505050158015611045573d6000803e3d6000fd5b5050565b61105161160b565b73ffffffffffffffffffffffffffffffffffffffff168273ffffffffffffffffffffffffffffffffffffffff1614156110bf576040517f08c379a00000000000000000000000000000000000000000000000000000000081526004016110b69061325b565b60405180910390fd5b80600560006110cc61160b565b73ffffffffffffffffffffffffffffffffffffffff1673ffffffffffffffffffffffffffffffffffffffff16815260200190815260200160002060008473ffffffffffffffffffffffffffffffffffffffff1673ffffffffffffffffffffffffffffffffffffffff16815260200190815260200160002060006101000a81548160ff0219169083151502179055508173ffffffffffffffffffffffffffffffffffffffff1661117961160b565b73ffffffffffffffffffffffffffffffffffffffff167f17307eab39ab6107e8899845ad3d59bd9653f200f220920489ca2b5937696c31836040516111be919061240f565b60405180910390a35050565b6111db6111d561160b565b83611865565b61121a576040517f08c379a0000000000000000000000000000000000000000000000000000000008152600401611211906130cb565b60405180910390fd5b61122684848484611c65565b50505050565b60606112378261168a565b611276576040517f08c379a000000000000000000000000000000000000000000000000000000000815260040161126d906132ed565b60405180910390fd5b600060066000848152602001908152602001600020805461129690612c09565b80601f01602080910402602001604051908101604052809291908181526020018280546112c290612c09565b801561130f5780601f106112e45761010080835404028352916020019161130f565b820191906000526020600020905b8154815290600101906020018083116112f257829003601f168201915b505050505090506000611320611cc1565b9050600081511415611336578192505050611379565b60008251111561136b578082604051602001611353929190613349565b60405160208183030381529060405292505050611379565b61137484611cd8565b925050505b919050565b60095481565b61138c61160b565b73ffffffffffffffffffffffffffffffffffffffff166113aa610ebb565b73ffffffffffffffffffffffffffffffffffffffff1614611400576040517f08c379a00000000000000000000000000000000000000000000000000000000081526004016113f790612bba565b60405180910390fd5b60005b82518167ffffffffffffffff16101561147a57611420600b6117bd565b600061142c600b6117af565b905061145c848367ffffffffffffffff168151811061144e5761144d61336d565b5b6020026020010151826117d3565b61146681846117f1565b508080611472906133df565b915050611403565b505050565b6000600560008473ffffffffffffffffffffffffffffffffffffffff1673ffffffffffffffffffffffffffffffffffffffff16815260200190815260200160002060008373ffffffffffffffffffffffffffffffffffffffff1673ffffffffffffffffffffffffffffffffffffffff16815260200190815260200160002060009054906101000a900460ff16905092915050565b61151b61160b565b73ffffffffffffffffffffffffffffffffffffffff16611539610ebb565b73ffffffffffffffffffffffffffffffffffffffff161461158f576040517f08c379a000000000000000000000000000000000000000000000000000000000815260040161158690612bba565b60405180910390fd5b600073ffffffffffffffffffffffffffffffffffffffff168173ffffffffffffffffffffffffffffffffffffffff1614156115ff576040517f08c379a00000000000000000000000000000000000000000000000000000000081526004016115f690613482565b60405180910390fd5b61160881611b9f565b50565b600033905090565b60007f01ffc9a7000000000000000000000000000000000000000000000000000000007bffffffffffffffffffffffffffffffffffffffffffffffffffffffff1916827bffffffffffffffffffffffffffffffffffffffffffffffffffffffff1916149050919050565b6000816000018190555050565b60008073ffffffffffffffffffffffffffffffffffffffff166002600084815260200190815260200160002060009054906101000a900473ffffffffffffffffffffffffffffffffffffffff1673ffffffffffffffffffffffffffffffffffffffff1614159050919050565b816004600083815260200190815260200160002060006101000a81548173ffffffffffffffffffffffffffffffffffffffff021916908373ffffffffffffffffffffffffffffffffffffffff160217905550808273ffffffffffffffffffffffffffffffffffffffff1661176983610cc9565b73ffffffffffffffffffffffffffffffffffffffff167f8c5be1e5ebec7d5bd14f71427d1e84f3dd0314c0f7b2291e5b200ac8c7c3b92560405160405180910390a45050565b600081600001549050919050565b6001816000016000828254019250508190555050565b6117ed828260405180602001604052806000815250611d7f565b5050565b6117fa8261168a565b611839576040517f08c379a000000000000000000000000000000000000000000000000000000000815260040161183090613514565b60405180910390fd5b806006600084815260200190815260200160002090805190602001906118609291906122b8565b505050565b60006118708261168a565b6118af576040517f08c379a00000000000000000000000000000000000000000000000000000000081526004016118a6906135a6565b60405180910390fd5b60006118ba83610cc9565b90508073ffffffffffffffffffffffffffffffffffffffff168473ffffffffffffffffffffffffffffffffffffffff16148061192957508373ffffffffffffffffffffffffffffffffffffffff1661191184610835565b73ffffffffffffffffffffffffffffffffffffffff16145b8061193a5750611939818561147f565b5b91505092915050565b8273ffffffffffffffffffffffffffffffffffffffff1661196382610cc9565b73ffffffffffffffffffffffffffffffffffffffff16146119b9576040517f08c379a00000000000000000000000000000000000000000000000000000000081526004016119b090613638565b60405180910390fd5b600073ffffffffffffffffffffffffffffffffffffffff168273ffffffffffffffffffffffffffffffffffffffff161415611a29576040517f08c379a0000000000000000000000000000000000000000000000000000000008152600401611a20906136ca565b60405180910390fd5b611a34838383611dda565b611a3f6000826116f6565b6001600360008573ffffffffffffffffffffffffffffffffffffffff1673ffffffffffffffffffffffffffffffffffffffff1681526020019081526020016000206000828254611a8f91906136ea565b925050819055506001600360008473ffffffffffffffffffffffffffffffffffffffff1673ffffffffffffffffffffffffffffffffffffffff1681526020019081526020016000206000828254611ae6919061371e565b92505081905550816002600083815260200190815260200160002060006101000a81548173ffffffffffffffffffffffffffffffffffffffff021916908373ffffffffffffffffffffffffffffffffffffffff160217905550808273ffffffffffffffffffffffffffffffffffffffff168473ffffffffffffffffffffffffffffffffffffffff167fddf252ad1be2c89b69c2b068fc378daa952ba7f163c4a11628f55a4df523b3ef60405160405180910390a4505050565b6000600760009054906101000a900473ffffffffffffffffffffffffffffffffffffffff16905081600760006101000a81548173ffffffffffffffffffffffffffffffffffffffff021916908373ffffffffffffffffffffffffffffffffffffffff1602179055508173ffffffffffffffffffffffffffffffffffffffff168173ffffffffffffffffffffffffffffffffffffffff167f8be0079c531659141344cd1fd0a4f28419497f9722a3daafe3b4186f6b6457e060405160405180910390a35050565b611c70848484611943565b611c7c84848484611ddf565b611cbb576040517f08c379a0000000000000000000000000000000000000000000000000000000008152600401611cb2906137e6565b60405180910390fd5b50505050565b606060405180602001604052806000815250905090565b6060611ce38261168a565b611d22576040517f08c379a0000000000000000000000000000000000000000000000000000000008152600401611d1990613878565b60405180910390fd5b6000611d2c611cc1565b90506000815111611d4c5760405180602001604052806000815250611d77565b80611d5684611f76565b604051602001611d67929190613349565b6040516020818303038152906040525b915050919050565b611d8983836120d7565b611d966000848484611ddf565b611dd5576040517f08c379a0000000000000000000000000000000000000000000000000000000008152600401611dcc906137e6565b60405180910390fd5b505050565b505050565b6000611e008473ffffffffffffffffffffffffffffffffffffffff166122a5565b15611f69578373ffffffffffffffffffffffffffffffffffffffff1663150b7a02611e2961160b565b8786866040518563ffffffff1660e01b8152600401611e4b94939291906138ed565b602060405180830381600087803b158015611e6557600080fd5b505af1925050508015611e9657506040513d601f19601f82011682018060405250810190611e93919061394e565b60015b611f19573d8060008114611ec6576040519150601f19603f3d011682016040523d82523d6000602084013e611ecb565b606091505b50600081511415611f11576040517f08c379a0000000000000000000000000000000000000000000000000000000008152600401611f08906137e6565b60405180910390fd5b805181602001fd5b63150b7a0260e01b7bffffffffffffffffffffffffffffffffffffffffffffffffffffffff1916817bffffffffffffffffffffffffffffffffffffffffffffffffffffffff191614915050611f6e565b600190505b949350505050565b60606000821415611fbe576040518060400160405280600181526020017f300000000000000000000000000000000000000000000000000000000000000081525090506120d2565b600082905060005b60008214611ff0578080611fd99061397b565b915050600a82611fe991906139f3565b9150611fc6565b60008167ffffffffffffffff81111561200c5761200b6124a5565b5b6040519080825280601f01601f19166020018201604052801561203e5781602001600182028036833780820191505090505b5090505b600085146120cb5760018261205791906136ea565b9150600a856120669190613a24565b6030612072919061371e565b60f81b8183815181106120885761208761336d565b5b60200101907effffffffffffffffffffffffffffffffffffffffffffffffffffffffffffff1916908160001a905350600a856120c491906139f3565b9450612042565b8093505050505b919050565b600073ffffffffffffffffffffffffffffffffffffffff168273ffffffffffffffffffffffffffffffffffffffff161415612147576040517f08c379a000000000000000000000000000000000000000000000000000000000815260040161213e90613aa1565b60405180910390fd5b6121508161168a565b15612190576040517f08c379a000000000000000000000000000000000000000000000000000000000815260040161218790613b0d565b60405180910390fd5b61219c60008383611dda565b6001600360008473ffffffffffffffffffffffffffffffffffffffff1673ffffffffffffffffffffffffffffffffffffffff16815260200190815260200160002060008282546121ec919061371e565b92505081905550816002600083815260200190815260200160002060006101000a81548173ffffffffffffffffffffffffffffffffffffffff021916908373ffffffffffffffffffffffffffffffffffffffff160217905550808273ffffffffffffffffffffffffffffffffffffffff16600073ffffffffffffffffffffffffffffffffffffffff167fddf252ad1be2c89b69c2b068fc378daa952ba7f163c4a11628f55a4df523b3ef60405160405180910390a45050565b600080823b905060008111915050919050565b8280546122c490612c09565b90600052602060002090601f0160209004810192826122e6576000855561232d565b82601f106122ff57805160ff191683800117855561232d565b8280016001018555821561232d579182015b8281111561232c578251825591602001919060010190612311565b5b50905061233a919061233e565b5090565b5b8082111561235757600081600090555060010161233f565b5090565b6000604051905090565b600080fd5b600080fd5b60007fffffffff0000000000000000000000000000000000000000000000000000000082169050919050565b6123a48161236f565b81146123af57600080fd5b50565b6000813590506123c18161239b565b92915050565b6000602082840312156123dd576123dc612365565b5b60006123eb848285016123b2565b91505092915050565b60008115159050919050565b612409816123f4565b82525050565b60006020820190506124246000830184612400565b92915050565b6000819050919050565b61243d8161242a565b82525050565b60006020820190506124586000830184612434565b92915050565b6124678161242a565b811461247257600080fd5b50565b6000813590506124848161245e565b92915050565b600080fd5b600080fd5b6000601f19601f8301169050919050565b7f4e487b7100000000000000000000000000000000000000000000000000000000600052604160045260246000fd5b6124dd82612494565b810181811067ffffffffffffffff821117156124fc576124fb6124a5565b5b80604052505050565b600061250f61235b565b905061251b82826124d4565b919050565b600067ffffffffffffffff82111561253b5761253a6124a5565b5b61254482612494565b9050602081019050919050565b82818337600083830152505050565b600061257361256e84612520565b612505565b90508281526020810184848401111561258f5761258e61248f565b5b61259a848285612551565b509392505050565b600082601f8301126125b7576125b661248a565b5b81356125c7848260208601612560565b91505092915050565b6000806000606084860312156125e9576125e8612365565b5b60006125f786828701612475565b935050602061260886828701612475565b925050604084013567ffffffffffffffff8111156126295761262861236a565b5b612635868287016125a2565b9150509250925092565b600081519050919050565b600082825260208201905092915050565b60005b8381101561267957808201518184015260208101905061265e565b83811115612688576000848401525b50505050565b60006126998261263f565b6126a3818561264a565b93506126b381856020860161265b565b6126bc81612494565b840191505092915050565b600060208201905081810360008301526126e1818461268e565b905092915050565b6000602082840312156126ff576126fe612365565b5b600061270d84828501612475565b91505092915050565b600073ffffffffffffffffffffffffffffffffffffffff82169050919050565b600061274182612716565b9050919050565b61275181612736565b82525050565b600060208201905061276c6000830184612748565b92915050565b61277b81612736565b811461278657600080fd5b50565b60008135905061279881612772565b92915050565b600080604083850312156127b5576127b4612365565b5b60006127c385828601612789565b92505060206127d485828601612475565b9150509250929050565b6000806000606084860312156127f7576127f6612365565b5b600061280586828701612789565b935050602061281686828701612789565b925050604061282786828701612475565b9150509250925092565b60006020828403121561284757612846612365565b5b600061285584828501612789565b91505092915050565b612867816123f4565b811461287257600080fd5b50565b6000813590506128848161285e565b92915050565b600080604083850312156128a1576128a0612365565b5b60006128af85828601612789565b92505060206128c085828601612875565b9150509250929050565b600067ffffffffffffffff8211156128e5576128e46124a5565b5b6128ee82612494565b9050602081019050919050565b600061290e612909846128ca565b612505565b90508281526020810184848401111561292a5761292961248f565b5b612935848285612551565b509392505050565b600082601f8301126129525761295161248a565b5b81356129628482602086016128fb565b91505092915050565b6000806000806080858703121561298557612984612365565b5b600061299387828801612789565b94505060206129a487828801612789565b93505060406129b587828801612475565b925050606085013567ffffffffffffffff8111156129d6576129d561236a565b5b6129e28782880161293d565b91505092959194509250565b600067ffffffffffffffff821115612a0957612a086124a5565b5b602082029050602081019050919050565b600080fd5b6000612a32612a2d846129ee565b612505565b90508083825260208201905060208402830185811115612a5557612a54612a1a565b5b835b81811015612a7e5780612a6a8882612789565b845260208401935050602081019050612a57565b5050509392505050565b600082601f830112612a9d57612a9c61248a565b5b8135612aad848260208601612a1f565b91505092915050565b60008060408385031215612acd57612acc612365565b5b600083013567ffffffffffffffff811115612aeb57612aea61236a565b5b612af785828601612a88565b925050602083013567ffffffffffffffff811115612b1857612b1761236a565b5b612b24858286016125a2565b9150509250929050565b60008060408385031215612b4557612b44612365565b5b6000612b5385828601612789565b9250506020612b6485828601612789565b9150509250929050565b7f4f776e61626c653a2063616c6c6572206973206e6f7420746865206f776e6572600082015250565b6000612ba460208361264a565b9150612baf82612b6e565b602082019050919050565b60006020820190508181036000830152612bd381612b97565b9050919050565b7f4e487b7100000000000000000000000000000000000000000000000000000000600052602260045260246000fd5b60006002820490506001821680612c2157607f821691505b60208210811415612c3557612c34612bda565b5b50919050565b7f4552433732313a20617070726f76656420717565727920666f72206e6f6e657860008201527f697374656e7420746f6b656e0000000000000000000000000000000000000000602082015250565b6000612c97602c8361264a565b9150612ca282612c3b565b604082019050919050565b60006020820190508181036000830152612cc681612c8a565b9050919050565b7f4552433732313a20617070726f76616c20746f2063757272656e74206f776e6560008201527f7200000000000000000000000000000000000000000000000000000000000000602082015250565b6000612d2960218361264a565b9150612d3482612ccd565b604082019050919050565b60006020820190508181036000830152612d5881612d1c565b9050919050565b7f4552433732313a20617070726f76652063616c6c6572206973206e6f74206f7760008201527f6e6572206e6f7220617070726f76656420666f7220616c6c0000000000000000602082015250565b6000612dbb60388361264a565b9150612dc682612d5f565b604082019050919050565b60006020820190508181036000830152612dea81612dae565b9050919050565b7f4154582044414f204e4654206973206e6f74206d696e7461626c65206174207460008201527f6865206d6f6d656e742100000000000000000000000000000000000000000000602082015250565b6000612e4d602a8361264a565b9150612e5882612df1565b604082019050919050565b60006020820190508181036000830152612e7c81612e40565b9050919050565b7f4d696e74696e67206973206f6e6c7920617661696c61626c6520666f72206e6f60008201527f6e2d686f6c646572730000000000000000000000000000000000000000000000602082015250565b6000612edf60298361264a565b9150612eea82612e83565b604082019050919050565b60006020820190508181036000830152612f0e81612ed2565b9050919050565b7f4e6f206d6f7265204e4654732072656d61696e696e6721000000000000000000600082015250565b6000612f4b60178361264a565b9150612f5682612f15565b602082019050919050565b60006020820190508181036000830152612f7a81612f3e565b9050919050565b7f4e6f7420656e6f7567682065746865722073656e7420746f206d696e74210000600082015250565b6000612fb7601e8361264a565b9150612fc282612f81565b602082019050919050565b60006020820190508181036000830152612fe681612faa565b9050919050565b7f4e6f20636f6e7472616374732100000000000000000000000000000000000000600082015250565b6000613023600d8361264a565b915061302e82612fed565b602082019050919050565b6000602082019050818103600083015261305281613016565b9050919050565b7f4552433732313a207472616e736665722063616c6c6572206973206e6f74206f60008201527f776e6572206e6f7220617070726f766564000000000000000000000000000000602082015250565b60006130b560318361264a565b91506130c082613059565b604082019050919050565b600060208201905081810360008301526130e4816130a8565b9050919050565b7f4552433732313a206f776e657220717565727920666f72206e6f6e657869737460008201527f656e7420746f6b656e0000000000000000000000000000000000000000000000602082015250565b600061314760298361264a565b9150613152826130eb565b604082019050919050565b600060208201905081810360008301526131768161313a565b9050919050565b7f4552433732313a2062616c616e636520717565727920666f7220746865207a6560008201527f726f206164647265737300000000000000000000000000000000000000000000602082015250565b60006131d9602a8361264a565b91506131e48261317d565b604082019050919050565b60006020820190508181036000830152613208816131cc565b9050919050565b7f4552433732313a20617070726f766520746f2063616c6c657200000000000000600082015250565b600061324560198361264a565b91506132508261320f565b602082019050919050565b6000602082019050818103600083015261327481613238565b9050919050565b7f45524337323155524953746f726167653a2055524920717565727920666f722060008201527f6e6f6e6578697374656e7420746f6b656e000000000000000000000000000000602082015250565b60006132d760318361264a565b91506132e28261327b565b604082019050919050565b60006020820190508181036000830152613306816132ca565b9050919050565b600081905092915050565b60006133238261263f565b61332d818561330d565b935061333d81856020860161265b565b80840191505092915050565b60006133558285613318565b91506133618284613318565b91508190509392505050565b7f4e487b7100000000000000000000000000000000000000000000000000000000600052603260045260246000fd5b7f4e487b7100000000000000000000000000000000000000000000000000000000600052601160045260246000fd5b600067ffffffffffffffff82169050919050565b60006133ea826133cb565b915067ffffffffffffffff8214156134055761340461339c565b5b600182019050919050565b7f4f776e61626c653a206e6577206f776e657220697320746865207a65726f206160008201527f6464726573730000000000000000000000000000000000000000000000000000602082015250565b600061346c60268361264a565b915061347782613410565b604082019050919050565b6000602082019050818103600083015261349b8161345f565b9050919050565b7f45524337323155524953746f726167653a2055524920736574206f66206e6f6e60008201527f6578697374656e7420746f6b656e000000000000000000000000000000000000602082015250565b60006134fe602e8361264a565b9150613509826134a2565b604082019050919050565b6000602082019050818103600083015261352d816134f1565b9050919050565b7f4552433732313a206f70657261746f7220717565727920666f72206e6f6e657860008201527f697374656e7420746f6b656e0000000000000000000000000000000000000000602082015250565b6000613590602c8361264a565b915061359b82613534565b604082019050919050565b600060208201905081810360008301526135bf81613583565b9050919050565b7f4552433732313a207472616e73666572206f6620746f6b656e2074686174206960008201527f73206e6f74206f776e0000000000000000000000000000000000000000000000602082015250565b600061362260298361264a565b915061362d826135c6565b604082019050919050565b6000602082019050818103600083015261365181613615565b9050919050565b7f4552433732313a207472616e7366657220746f20746865207a65726f2061646460008201527f7265737300000000000000000000000000000000000000000000000000000000602082015250565b60006136b460248361264a565b91506136bf82613658565b604082019050919050565b600060208201905081810360008301526136e3816136a7565b9050919050565b60006136f58261242a565b91506137008361242a565b9250828210156137135761371261339c565b5b828203905092915050565b60006137298261242a565b91506137348361242a565b9250827fffffffffffffffffffffffffffffffffffffffffffffffffffffffffffffffff038211156137695761376861339c565b5b828201905092915050565b7f4552433732313a207472616e7366657220746f206e6f6e20455243373231526560008201527f63656976657220696d706c656d656e7465720000000000000000000000000000602082015250565b60006137d060328361264a565b91506137db82613774565b604082019050919050565b600060208201905081810360008301526137ff816137c3565b9050919050565b7f4552433732314d657461646174613a2055524920717565727920666f72206e6f60008201527f6e6578697374656e7420746f6b656e0000000000000000000000000000000000602082015250565b6000613862602f8361264a565b915061386d82613806565b604082019050919050565b6000602082019050818103600083015261389181613855565b9050919050565b600081519050919050565b600082825260208201905092915050565b60006138bf82613898565b6138c981856138a3565b93506138d981856020860161265b565b6138e281612494565b840191505092915050565b60006080820190506139026000830187612748565b61390f6020830186612748565b61391c6040830185612434565b818103606083015261392e81846138b4565b905095945050505050565b6000815190506139488161239b565b92915050565b60006020828403121561396457613963612365565b5b600061397284828501613939565b91505092915050565b60006139868261242a565b91507fffffffffffffffffffffffffffffffffffffffffffffffffffffffffffffffff8214156139b9576139b861339c565b5b600182019050919050565b7f4e487b7100000000000000000000000000000000000000000000000000000000600052601260045260246000fd5b60006139fe8261242a565b9150613a098361242a565b925082613a1957613a186139c4565b5b828204905092915050565b6000613a2f8261242a565b9150613a3a8361242a565b925082613a4a57613a496139c4565b5b828206905092915050565b7f4552433732313a206d696e7420746f20746865207a65726f2061646472657373600082015250565b6000613a8b60208361264a565b9150613a9682613a55565b602082019050919050565b60006020820190508181036000830152613aba81613a7e565b9050919050565b7f4552433732313a20746f6b656e20616c7265616479206d696e74656400000000600082015250565b6000613af7601c8361264a565b9150613b0282613ac1565b602082019050919050565b60006020820190508181036000830152613b2681613aea565b905091905056fea2646970667358221220103d7e2da13c3ab5cffaa845fc497bcf69e3ff4c10aacb3630d98938259a560c64736f6c63430008090033",
  "linkReferences": {},
  "deployedLinkReferences": {}
}