{
  "_format": "hh-sol-artifact-1",
  "contractName": "ATXDAONFT",
  "sourceName": "contracts/ATXDAONFT.sol",
  "abi": [
    {
      "inputs": [],
      "stateMutability": "nonpayable",
      "type": "constructor"
    },
    {
      "anonymous": false,
      "inputs": [
        {
          "indexed": true,
          "internalType": "address",
          "name": "owner",
          "type": "address"
        },
        {
          "indexed": true,
          "internalType": "address",
          "name": "approved",
          "type": "address"
        },
        {
          "indexed": true,
          "internalType": "uint256",
          "name": "tokenId",
          "type": "uint256"
        }
      ],
      "name": "Approval",
      "type": "event"
    },
    {
      "anonymous": false,
      "inputs": [
        {
          "indexed": true,
          "internalType": "address",
          "name": "owner",
          "type": "address"
        },
        {
          "indexed": true,
          "internalType": "address",
          "name": "operator",
          "type": "address"
        },
        {
          "indexed": false,
          "internalType": "bool",
          "name": "approved",
          "type": "bool"
        }
      ],
      "name": "ApprovalForAll",
      "type": "event"
    },
    {
      "anonymous": false,
      "inputs": [
        {
          "indexed": true,
          "internalType": "address",
          "name": "previousOwner",
          "type": "address"
        },
        {
          "indexed": true,
          "internalType": "address",
          "name": "newOwner",
          "type": "address"
        }
      ],
      "name": "OwnershipTransferred",
      "type": "event"
    },
    {
      "anonymous": false,
      "inputs": [
        {
          "indexed": true,
          "internalType": "address",
          "name": "from",
          "type": "address"
        },
        {
          "indexed": true,
          "internalType": "address",
          "name": "to",
          "type": "address"
        },
        {
          "indexed": true,
          "internalType": "uint256",
          "name": "tokenId",
          "type": "uint256"
        }
      ],
      "name": "Transfer",
      "type": "event"
    },
    {
      "inputs": [],
      "name": "_mintPrice",
      "outputs": [
        {
          "internalType": "uint256",
          "name": "",
          "type": "uint256"
        }
      ],
      "stateMutability": "view",
      "type": "function"
    },
    {
      "inputs": [],
      "name": "_mintQuantity",
      "outputs": [
        {
          "internalType": "uint256",
          "name": "",
          "type": "uint256"
        }
      ],
      "stateMutability": "view",
      "type": "function"
    },
    {
      "inputs": [
        {
          "internalType": "address",
          "name": "to",
          "type": "address"
        },
        {
          "internalType": "uint256",
          "name": "tokenId",
          "type": "uint256"
        }
      ],
      "name": "approve",
      "outputs": [],
      "stateMutability": "nonpayable",
      "type": "function"
    },
    {
      "inputs": [
        {
          "internalType": "address",
          "name": "owner",
          "type": "address"
        }
      ],
      "name": "balanceOf",
      "outputs": [
        {
          "internalType": "uint256",
          "name": "",
          "type": "uint256"
        }
      ],
      "stateMutability": "view",
      "type": "function"
    },
    {
      "inputs": [],
      "name": "endMint",
      "outputs": [],
      "stateMutability": "nonpayable",
      "type": "function"
    },
    {
      "inputs": [
        {
          "internalType": "uint256",
          "name": "tokenId",
          "type": "uint256"
        }
      ],
      "name": "getApproved",
      "outputs": [
        {
          "internalType": "address",
          "name": "",
          "type": "address"
        }
      ],
      "stateMutability": "view",
      "type": "function"
    },
    {
      "inputs": [
        {
          "internalType": "address",
          "name": "owner",
          "type": "address"
        },
        {
          "internalType": "address",
          "name": "operator",
          "type": "address"
        }
      ],
      "name": "isApprovedForAll",
      "outputs": [
        {
          "internalType": "bool",
          "name": "",
          "type": "bool"
        }
      ],
      "stateMutability": "view",
      "type": "function"
    },
    {
      "inputs": [],
      "name": "isMintable",
      "outputs": [
        {
          "internalType": "bool",
          "name": "",
          "type": "bool"
        }
      ],
      "stateMutability": "view",
      "type": "function"
    },
    {
      "inputs": [],
      "name": "mint",
      "outputs": [],
      "stateMutability": "payable",
      "type": "function"
    },
    {
      "inputs": [
        {
          "internalType": "address[]",
          "name": "recipients",
          "type": "address[]"
        },
        {
          "internalType": "string",
          "name": "tokenURI",
          "type": "string"
        }
      ],
      "name": "mintSpecial",
      "outputs": [],
      "stateMutability": "nonpayable",
      "type": "function"
    },
    {
      "inputs": [],
      "name": "name",
      "outputs": [
        {
          "internalType": "string",
          "name": "",
          "type": "string"
        }
      ],
      "stateMutability": "view",
      "type": "function"
    },
    {
      "inputs": [],
      "name": "owner",
      "outputs": [
        {
          "internalType": "address",
          "name": "",
          "type": "address"
        }
      ],
      "stateMutability": "view",
      "type": "function"
    },
    {
      "inputs": [
        {
          "internalType": "uint256",
          "name": "tokenId",
          "type": "uint256"
        }
      ],
      "name": "ownerOf",
      "outputs": [
        {
          "internalType": "address",
          "name": "",
          "type": "address"
        }
      ],
      "stateMutability": "view",
      "type": "function"
    },
    {
      "inputs": [],
      "name": "renounceOwnership",
      "outputs": [],
      "stateMutability": "nonpayable",
      "type": "function"
    },
    {
      "inputs": [
        {
          "internalType": "address",
          "name": "from",
          "type": "address"
        },
        {
          "internalType": "address",
          "name": "to",
          "type": "address"
        },
        {
          "internalType": "uint256",
          "name": "tokenId",
          "type": "uint256"
        }
      ],
      "name": "safeTransferFrom",
      "outputs": [],
      "stateMutability": "nonpayable",
      "type": "function"
    },
    {
      "inputs": [
        {
          "internalType": "address",
          "name": "from",
          "type": "address"
        },
        {
          "internalType": "address",
          "name": "to",
          "type": "address"
        },
        {
          "internalType": "uint256",
          "name": "tokenId",
          "type": "uint256"
        },
        {
          "internalType": "bytes",
          "name": "_data",
          "type": "bytes"
        }
      ],
      "name": "safeTransferFrom",
      "outputs": [],
      "stateMutability": "nonpayable",
      "type": "function"
    },
    {
      "inputs": [
        {
          "internalType": "address",
          "name": "operator",
          "type": "address"
        },
        {
          "internalType": "bool",
          "name": "approved",
          "type": "bool"
        }
      ],
      "name": "setApprovalForAll",
      "outputs": [],
      "stateMutability": "nonpayable",
      "type": "function"
    },
    {
      "inputs": [
        {
          "internalType": "uint256",
          "name": "mintPrice",
          "type": "uint256"
        },
        {
          "internalType": "uint256",
          "name": "mintQuantity",
          "type": "uint256"
        },
        {
          "internalType": "string",
          "name": "tokenURI",
          "type": "string"
        }
      ],
      "name": "startMint",
      "outputs": [],
      "stateMutability": "nonpayable",
      "type": "function"
    },
    {
      "inputs": [
        {
          "internalType": "bytes4",
          "name": "interfaceId",
          "type": "bytes4"
        }
      ],
      "name": "supportsInterface",
      "outputs": [
        {
          "internalType": "bool",
          "name": "",
          "type": "bool"
        }
      ],
      "stateMutability": "view",
      "type": "function"
    },
    {
      "inputs": [],
      "name": "symbol",
      "outputs": [
        {
          "internalType": "string",
          "name": "",
          "type": "string"
        }
      ],
      "stateMutability": "view",
      "type": "function"
    },
    {
      "inputs": [
        {
          "internalType": "uint256",
          "name": "tokenId",
          "type": "uint256"
        }
      ],
      "name": "tokenURI",
      "outputs": [
        {
          "internalType": "string",
          "name": "",
          "type": "string"
        }
      ],
      "stateMutability": "view",
      "type": "function"
    },
    {
      "inputs": [
        {
          "internalType": "address",
          "name": "from",
          "type": "address"
        },
        {
          "internalType": "address",
          "name": "to",
          "type": "address"
        },
        {
          "internalType": "uint256",
          "name": "tokenId",
          "type": "uint256"
        }
      ],
      "name": "transferFrom",
      "outputs": [],
      "stateMutability": "nonpayable",
      "type": "function"
    },
    {
      "inputs": [
        {
          "internalType": "address",
          "name": "newOwner",
          "type": "address"
        }
      ],
      "name": "transferOwnership",
      "outputs": [],
      "stateMutability": "nonpayable",
      "type": "function"
    }
  ],
  "bytecode": "0x60806040526000600760146101000a81548160ff02191690831515021790555067071afd498d00000060085560196009553480156200003d57600080fd5b506040518060400160405280600781526020017f4154582044414f000000000000000000000000000000000000000000000000008152506040518060400160405280600381526020017f41545800000000000000000000000000000000000000000000000000000000008152508160009080519060200190620000c2929190620001d2565b508060019080519060200190620000db929190620001d2565b505050620000fe620000f26200010460201b60201c565b6200010c60201b60201c565b620002e7565b600033905090565b6000600760009054906101000a900473ffffffffffffffffffffffffffffffffffffffff16905081600760006101000a81548173ffffffffffffffffffffffffffffffffffffffff021916908373ffffffffffffffffffffffffffffffffffffffff1602179055508173ffffffffffffffffffffffffffffffffffffffff168173ffffffffffffffffffffffffffffffffffffffff167f8be0079c531659141344cd1fd0a4f28419497f9722a3daafe3b4186f6b6457e060405160405180910390a35050565b828054620001e09062000282565b90600052602060002090601f01602090048101928262000204576000855562000250565b82601f106200021f57805160ff191683800117855562000250565b8280016001018555821562000250579182015b828111156200024f57825182559160200191906001019062000232565b5b5090506200025f919062000263565b5090565b5b808211156200027e57600081600090555060010162000264565b5090565b600060028204905060018216806200029b57607f821691505b60208210811415620002b257620002b1620002b8565b5b50919050565b7f4e487b7100000000000000000000000000000000000000000000000000000000600052602260045260246000fd5b61391280620002f76000396000f3fe6080604052600436106101405760003560e01c80636352211e116100b6578063b88d4fde1161006f578063b88d4fde14610415578063c87b56dd1461043e578063d520ec6b1461047b578063e0dba62b146104a6578063e985e9c5146104cf578063f2fde38b1461050c57610140565b80636352211e1461030557806370a0823114610342578063715018a61461037f5780638da5cb5b1461039657806395d89b41146103c1578063a22cb465146103ec57610140565b8063081812fc11610108578063081812fc14610218578063095ea7b3146102555780631249c58b1461027e57806323b872dd1461028857806342842e0e146102b157806346b45af7146102da57610140565b8063017043a51461014557806301ffc9a71461015c5780630387da42146101995780630611ce2e146101c457806306fdde03146101ed575b600080fd5b34801561015157600080fd5b5061015a610535565b005b34801561016857600080fd5b50610183600480360381019061017e91906126bc565b6105ce565b6040516101909190613119565b60405180910390f35b3480156101a557600080fd5b506101ae6106b0565b6040516101bb9190613436565b60405180910390f35b3480156101d057600080fd5b506101eb60048036038101906101e69190612737565b6106b6565b005b3480156101f957600080fd5b50610202610781565b60405161020f9190613134565b60405180910390f35b34801561022457600080fd5b5061023f600480360381019061023a919061270e565b610813565b60405161024c91906130b2565b60405180910390f35b34801561026157600080fd5b5061027c60048036038101906102779190612614565b610898565b005b6102866109b0565b005b34801561029457600080fd5b506102af60048036038101906102aa919061250e565b610c15565b005b3480156102bd57600080fd5b506102d860048036038101906102d3919061250e565b610c75565b005b3480156102e657600080fd5b506102ef610c95565b6040516102fc9190613119565b60405180910390f35b34801561031157600080fd5b5061032c6004803603810190610327919061270e565b610ca8565b60405161033991906130b2565b60405180910390f35b34801561034e57600080fd5b50610369600480360381019061036491906124a9565b610d5a565b6040516103769190613436565b60405180910390f35b34801561038b57600080fd5b50610394610e12565b005b3480156103a257600080fd5b506103ab610e9a565b6040516103b891906130b2565b60405180910390f35b3480156103cd57600080fd5b506103d6610ec4565b6040516103e39190613134565b60405180910390f35b3480156103f857600080fd5b50610413600480360381019061040e91906125d8565b610f56565b005b34801561042157600080fd5b5061043c6004803603810190610437919061255d565b6110d7565b005b34801561044a57600080fd5b506104656004803603810190610460919061270e565b611139565b6040516104729190613134565b60405180910390f35b34801561048757600080fd5b5061049061128b565b60405161049d9190613436565b60405180910390f35b3480156104b257600080fd5b506104cd60048036038101906104c89190612650565b611291565b005b3480156104db57600080fd5b506104f660048036038101906104f191906124d2565b6113b2565b6040516105039190613119565b60405180910390f35b34801561051857600080fd5b50610533600480360381019061052e91906124a9565b611446565b005b61053d61153e565b73ffffffffffffffffffffffffffffffffffffffff1661055b610e9a565b73ffffffffffffffffffffffffffffffffffffffff16146105b1576040517f08c379a00000000000000000000000000000000000000000000000000000000081526004016105a890613336565b60405180910390fd5b6000600760146101000a81548160ff021916908315150217905550565b60007f80ac58cd000000000000000000000000000000000000000000000000000000007bffffffffffffffffffffffffffffffffffffffffffffffffffffffff1916827bffffffffffffffffffffffffffffffffffffffffffffffffffffffff1916148061069957507f5b5e139f000000000000000000000000000000000000000000000000000000007bffffffffffffffffffffffffffffffffffffffffffffffffffffffff1916827bffffffffffffffffffffffffffffffffffffffffffffffffffffffff1916145b806106a957506106a882611546565b5b9050919050565b60085481565b6106be61153e565b73ffffffffffffffffffffffffffffffffffffffff166106dc610e9a565b73ffffffffffffffffffffffffffffffffffffffff1614610732576040517f08c379a000000000000000000000000000000000000000000000000000000000815260040161072990613336565b60405180910390fd5b6001600760146101000a81548160ff021916908315150217905550826008819055508160098190555080600c9080519060200190610771929190612237565b5061077c600a6115b0565b505050565b606060008054610790906136d6565b80601f01602080910402602001604051908101604052809291908181526020018280546107bc906136d6565b80156108095780601f106107de57610100808354040283529160200191610809565b820191906000526020600020905b8154815290600101906020018083116107ec57829003601f168201915b5050505050905090565b600061081e826115bd565b61085d576040517f08c379a000000000000000000000000000000000000000000000000000000000815260040161085490613316565b60405180910390fd5b6004600083815260200190815260200160002060009054906101000a900473ffffffffffffffffffffffffffffffffffffffff169050919050565b60006108a382610ca8565b90508073ffffffffffffffffffffffffffffffffffffffff168373ffffffffffffffffffffffffffffffffffffffff161415610914576040517f08c379a000000000000000000000000000000000000000000000000000000000815260040161090b90613396565b60405180910390fd5b8073ffffffffffffffffffffffffffffffffffffffff1661093361153e565b73ffffffffffffffffffffffffffffffffffffffff16148061096257506109618161095c61153e565b6113b2565b5b6109a1576040517f08c379a000000000000000000000000000000000000000000000000000000000815260040161099890613236565b60405180910390fd5b6109ab8383611629565b505050565b60011515600760149054906101000a900460ff16151514610a06576040517f08c379a00000000000000000000000000000000000000000000000000000000081526004016109fd90613296565b60405180910390fd5b6000610a1133610d5a565b14610a51576040517f08c379a0000000000000000000000000000000000000000000000000000000008152600401610a48906131b6565b60405180910390fd5b600954610a5e600a6116e2565b1115610a9f576040517f08c379a0000000000000000000000000000000000000000000000000000000008152600401610a96906133f6565b60405180910390fd5b600854341015610ae4576040517f08c379a0000000000000000000000000000000000000000000000000000000008152600401610adb906133b6565b60405180910390fd5b3273ffffffffffffffffffffffffffffffffffffffff163373ffffffffffffffffffffffffffffffffffffffff1614610b52576040517f08c379a0000000000000000000000000000000000000000000000000000000008152600401610b49906133d6565b60405180910390fd5b610b5c600b6116f0565b6000610b68600b6116e2565b9050610b743382611706565b610c0881600c8054610b85906136d6565b80601f0160208091040260200160405190810160405280929190818152602001828054610bb1906136d6565b8015610bfe5780601f10610bd357610100808354040283529160200191610bfe565b820191906000526020600020905b815481529060010190602001808311610be157829003601f168201915b5050505050611724565b610c12600a6116f0565b50565b610c26610c2061153e565b82611798565b610c65576040517f08c379a0000000000000000000000000000000000000000000000000000000008152600401610c5c90613416565b60405180910390fd5b610c70838383611876565b505050565b610c90838383604051806020016040528060008152506110d7565b505050565b600760149054906101000a900460ff1681565b6000806002600084815260200190815260200160002060009054906101000a900473ffffffffffffffffffffffffffffffffffffffff169050600073ffffffffffffffffffffffffffffffffffffffff168173ffffffffffffffffffffffffffffffffffffffff161415610d51576040517f08c379a0000000000000000000000000000000000000000000000000000000008152600401610d4890613276565b60405180910390fd5b80915050919050565b60008073ffffffffffffffffffffffffffffffffffffffff168273ffffffffffffffffffffffffffffffffffffffff161415610dcb576040517f08c379a0000000000000000000000000000000000000000000000000000000008152600401610dc290613256565b60405180910390fd5b600360008373ffffffffffffffffffffffffffffffffffffffff1673ffffffffffffffffffffffffffffffffffffffff168152602001908152602001600020549050919050565b610e1a61153e565b73ffffffffffffffffffffffffffffffffffffffff16610e38610e9a565b73ffffffffffffffffffffffffffffffffffffffff1614610e8e576040517f08c379a0000000000000000000000000000000000000000000000000000000008152600401610e8590613336565b60405180910390fd5b610e986000611ad2565b565b6000600760009054906101000a900473ffffffffffffffffffffffffffffffffffffffff16905090565b606060018054610ed3906136d6565b80601f0160208091040260200160405190810160405280929190818152602001828054610eff906136d6565b8015610f4c5780601f10610f2157610100808354040283529160200191610f4c565b820191906000526020600020905b815481529060010190602001808311610f2f57829003601f168201915b5050505050905090565b610f5e61153e565b73ffffffffffffffffffffffffffffffffffffffff168273ffffffffffffffffffffffffffffffffffffffff161415610fcc576040517f08c379a0000000000000000000000000000000000000000000000000000000008152600401610fc3906131f6565b60405180910390fd5b8060056000610fd961153e565b73ffffffffffffffffffffffffffffffffffffffff1673ffffffffffffffffffffffffffffffffffffffff16815260200190815260200160002060008473ffffffffffffffffffffffffffffffffffffffff1673ffffffffffffffffffffffffffffffffffffffff16815260200190815260200160002060006101000a81548160ff0219169083151502179055508173ffffffffffffffffffffffffffffffffffffffff1661108661153e565b73ffffffffffffffffffffffffffffffffffffffff167f17307eab39ab6107e8899845ad3d59bd9653f200f220920489ca2b5937696c31836040516110cb9190613119565b60405180910390a35050565b6110e86110e261153e565b83611798565b611127576040517f08c379a000000000000000000000000000000000000000000000000000000000815260040161111e90613416565b60405180910390fd5b61113384848484611b98565b50505050565b6060611144826115bd565b611183576040517f08c379a000000000000000000000000000000000000000000000000000000000815260040161117a906132f6565b60405180910390fd5b60006006600084815260200190815260200160002080546111a3906136d6565b80601f01602080910402602001604051908101604052809291908181526020018280546111cf906136d6565b801561121c5780601f106111f15761010080835404028352916020019161121c565b820191906000526020600020905b8154815290600101906020018083116111ff57829003601f168201915b50505050509050600061122d611bf4565b9050600081511415611243578192505050611286565b60008251111561127857808260405160200161126092919061308e565b60405160208183030381529060405292505050611286565b61128184611c0b565b925050505b919050565b60095481565b61129961153e565b73ffffffffffffffffffffffffffffffffffffffff166112b7610e9a565b73ffffffffffffffffffffffffffffffffffffffff161461130d576040517f08c379a000000000000000000000000000000000000000000000000000000000815260040161130490613336565b60405180910390fd5b60005b82518167ffffffffffffffff1610156113ad5761132d600b6116f0565b6000611339600b6116e2565b905061138f848367ffffffffffffffff1681518110611381577f4e487b7100000000000000000000000000000000000000000000000000000000600052603260045260246000fd5b602002602001015182611706565b6113998184611724565b5080806113a590613751565b915050611310565b505050565b6000600560008473ffffffffffffffffffffffffffffffffffffffff1673ffffffffffffffffffffffffffffffffffffffff16815260200190815260200160002060008373ffffffffffffffffffffffffffffffffffffffff1673ffffffffffffffffffffffffffffffffffffffff16815260200190815260200160002060009054906101000a900460ff16905092915050565b61144e61153e565b73ffffffffffffffffffffffffffffffffffffffff1661146c610e9a565b73ffffffffffffffffffffffffffffffffffffffff16146114c2576040517f08c379a00000000000000000000000000000000000000000000000000000000081526004016114b990613336565b60405180910390fd5b600073ffffffffffffffffffffffffffffffffffffffff168173ffffffffffffffffffffffffffffffffffffffff161415611532576040517f08c379a000000000000000000000000000000000000000000000000000000000815260040161152990613176565b60405180910390fd5b61153b81611ad2565b50565b600033905090565b60007f01ffc9a7000000000000000000000000000000000000000000000000000000007bffffffffffffffffffffffffffffffffffffffffffffffffffffffff1916827bffffffffffffffffffffffffffffffffffffffffffffffffffffffff1916149050919050565b6000816000018190555050565b60008073ffffffffffffffffffffffffffffffffffffffff166002600084815260200190815260200160002060009054906101000a900473ffffffffffffffffffffffffffffffffffffffff1673ffffffffffffffffffffffffffffffffffffffff1614159050919050565b816004600083815260200190815260200160002060006101000a81548173ffffffffffffffffffffffffffffffffffffffff021916908373ffffffffffffffffffffffffffffffffffffffff160217905550808273ffffffffffffffffffffffffffffffffffffffff1661169c83610ca8565b73ffffffffffffffffffffffffffffffffffffffff167f8c5be1e5ebec7d5bd14f71427d1e84f3dd0314c0f7b2291e5b200ac8c7c3b92560405160405180910390a45050565b600081600001549050919050565b6001816000016000828254019250508190555050565b611720828260405180602001604052806000815250611cb2565b5050565b61172d826115bd565b61176c576040517f08c379a0000000000000000000000000000000000000000000000000000000008152600401611763906132b6565b60405180910390fd5b80600660008481526020019081526020016000209080519060200190611793929190612237565b505050565b60006117a3826115bd565b6117e2576040517f08c379a00000000000000000000000000000000000000000000000000000000081526004016117d990613216565b60405180910390fd5b60006117ed83610ca8565b90508073ffffffffffffffffffffffffffffffffffffffff168473ffffffffffffffffffffffffffffffffffffffff16148061185c57508373ffffffffffffffffffffffffffffffffffffffff1661184484610813565b73ffffffffffffffffffffffffffffffffffffffff16145b8061186d575061186c81856113b2565b5b91505092915050565b8273ffffffffffffffffffffffffffffffffffffffff1661189682610ca8565b73ffffffffffffffffffffffffffffffffffffffff16146118ec576040517f08c379a00000000000000000000000000000000000000000000000000000000081526004016118e390613356565b60405180910390fd5b600073ffffffffffffffffffffffffffffffffffffffff168273ffffffffffffffffffffffffffffffffffffffff16141561195c576040517f08c379a0000000000000000000000000000000000000000000000000000000008152600401611953906131d6565b60405180910390fd5b611967838383611d0d565b611972600082611629565b6001600360008573ffffffffffffffffffffffffffffffffffffffff1673ffffffffffffffffffffffffffffffffffffffff16815260200190815260200160002060008282546119c291906135d8565b925050819055506001600360008473ffffffffffffffffffffffffffffffffffffffff1673ffffffffffffffffffffffffffffffffffffffff1681526020019081526020016000206000828254611a199190613551565b92505081905550816002600083815260200190815260200160002060006101000a81548173ffffffffffffffffffffffffffffffffffffffff021916908373ffffffffffffffffffffffffffffffffffffffff160217905550808273ffffffffffffffffffffffffffffffffffffffff168473ffffffffffffffffffffffffffffffffffffffff167fddf252ad1be2c89b69c2b068fc378daa952ba7f163c4a11628f55a4df523b3ef60405160405180910390a4505050565b6000600760009054906101000a900473ffffffffffffffffffffffffffffffffffffffff16905081600760006101000a81548173ffffffffffffffffffffffffffffffffffffffff021916908373ffffffffffffffffffffffffffffffffffffffff1602179055508173ffffffffffffffffffffffffffffffffffffffff168173ffffffffffffffffffffffffffffffffffffffff167f8be0079c531659141344cd1fd0a4f28419497f9722a3daafe3b4186f6b6457e060405160405180910390a35050565b611ba3848484611876565b611baf84848484611d12565b611bee576040517f08c379a0000000000000000000000000000000000000000000000000000000008152600401611be590613156565b60405180910390fd5b50505050565b606060405180602001604052806000815250905090565b6060611c16826115bd565b611c55576040517f08c379a0000000000000000000000000000000000000000000000000000000008152600401611c4c90613376565b60405180910390fd5b6000611c5f611bf4565b90506000815111611c7f5760405180602001604052806000815250611caa565b80611c8984611ea9565b604051602001611c9a92919061308e565b6040516020818303038152906040525b915050919050565b611cbc8383612056565b611cc96000848484611d12565b611d08576040517f08c379a0000000000000000000000000000000000000000000000000000000008152600401611cff90613156565b60405180910390fd5b505050565b505050565b6000611d338473ffffffffffffffffffffffffffffffffffffffff16612224565b15611e9c578373ffffffffffffffffffffffffffffffffffffffff1663150b7a02611d5c61153e565b8786866040518563ffffffff1660e01b8152600401611d7e94939291906130cd565b602060405180830381600087803b158015611d9857600080fd5b505af1925050508015611dc957506040513d601f19601f82011682018060405250810190611dc691906126e5565b60015b611e4c573d8060008114611df9576040519150601f19603f3d011682016040523d82523d6000602084013e611dfe565b606091505b50600081511415611e44576040517f08c379a0000000000000000000000000000000000000000000000000000000008152600401611e3b90613156565b60405180910390fd5b805181602001fd5b63150b7a0260e01b7bffffffffffffffffffffffffffffffffffffffffffffffffffffffff1916817bffffffffffffffffffffffffffffffffffffffffffffffffffffffff191614915050611ea1565b600190505b949350505050565b60606000821415611ef1576040518060400160405280600181526020017f30000000000000000000000000000000000000000000000000000000000000008152509050612051565b600082905060005b60008214611f23578080611f0c90613708565b915050600a82611f1c91906135a7565b9150611ef9565b60008167ffffffffffffffff811115611f65577f4e487b7100000000000000000000000000000000000000000000000000000000600052604160045260246000fd5b6040519080825280601f01601f191660200182016040528015611f975781602001600182028036833780820191505090505b5090505b6000851461204a57600182611fb091906135d8565b9150600a85611fbf9190613782565b6030611fcb9190613551565b60f81b818381518110612007577f4e487b7100000000000000000000000000000000000000000000000000000000600052603260045260246000fd5b60200101907effffffffffffffffffffffffffffffffffffffffffffffffffffffffffffff1916908160001a905350600a8561204391906135a7565b9450611f9b565b8093505050505b919050565b600073ffffffffffffffffffffffffffffffffffffffff168273ffffffffffffffffffffffffffffffffffffffff1614156120c6576040517f08c379a00000000000000000000000000000000000000000000000000000000081526004016120bd906132d6565b60405180910390fd5b6120cf816115bd565b1561210f576040517f08c379a000000000000000000000000000000000000000000000000000000000815260040161210690613196565b60405180910390fd5b61211b60008383611d0d565b6001600360008473ffffffffffffffffffffffffffffffffffffffff1673ffffffffffffffffffffffffffffffffffffffff168152602001908152602001600020600082825461216b9190613551565b92505081905550816002600083815260200190815260200160002060006101000a81548173ffffffffffffffffffffffffffffffffffffffff021916908373ffffffffffffffffffffffffffffffffffffffff160217905550808273ffffffffffffffffffffffffffffffffffffffff16600073ffffffffffffffffffffffffffffffffffffffff167fddf252ad1be2c89b69c2b068fc378daa952ba7f163c4a11628f55a4df523b3ef60405160405180910390a45050565b600080823b905060008111915050919050565b828054612243906136d6565b90600052602060002090601f01602090048101928261226557600085556122ac565b82601f1061227e57805160ff19168380011785556122ac565b828001600101855582156122ac579182015b828111156122ab578251825591602001919060010190612290565b5b5090506122b991906122bd565b5090565b5b808211156122d65760008160009055506001016122be565b5090565b60006122ed6122e884613482565b613451565b9050808382526020820190508285602086028201111561230c57600080fd5b60005b8581101561233c578161232288826123c2565b84526020840193506020830192505060018101905061230f565b5050509392505050565b6000612359612354846134ae565b613451565b90508281526020810184848401111561237157600080fd5b61237c848285613694565b509392505050565b6000612397612392846134de565b613451565b9050828152602081018484840111156123af57600080fd5b6123ba848285613694565b509392505050565b6000813590506123d181613880565b92915050565b600082601f8301126123e857600080fd5b81356123f88482602086016122da565b91505092915050565b60008135905061241081613897565b92915050565b600081359050612425816138ae565b92915050565b60008151905061243a816138ae565b92915050565b600082601f83011261245157600080fd5b8135612461848260208601612346565b91505092915050565b600082601f83011261247b57600080fd5b813561248b848260208601612384565b91505092915050565b6000813590506124a3816138c5565b92915050565b6000602082840312156124bb57600080fd5b60006124c9848285016123c2565b91505092915050565b600080604083850312156124e557600080fd5b60006124f3858286016123c2565b9250506020612504858286016123c2565b9150509250929050565b60008060006060848603121561252357600080fd5b6000612531868287016123c2565b9350506020612542868287016123c2565b925050604061255386828701612494565b9150509250925092565b6000806000806080858703121561257357600080fd5b6000612581878288016123c2565b9450506020612592878288016123c2565b93505060406125a387828801612494565b925050606085013567ffffffffffffffff8111156125c057600080fd5b6125cc87828801612440565b91505092959194509250565b600080604083850312156125eb57600080fd5b60006125f9858286016123c2565b925050602061260a85828601612401565b9150509250929050565b6000806040838503121561262757600080fd5b6000612635858286016123c2565b925050602061264685828601612494565b9150509250929050565b6000806040838503121561266357600080fd5b600083013567ffffffffffffffff81111561267d57600080fd5b612689858286016123d7565b925050602083013567ffffffffffffffff8111156126a657600080fd5b6126b28582860161246a565b9150509250929050565b6000602082840312156126ce57600080fd5b60006126dc84828501612416565b91505092915050565b6000602082840312156126f757600080fd5b60006127058482850161242b565b91505092915050565b60006020828403121561272057600080fd5b600061272e84828501612494565b91505092915050565b60008060006060848603121561274c57600080fd5b600061275a86828701612494565b935050602061276b86828701612494565b925050604084013567ffffffffffffffff81111561278857600080fd5b6127948682870161246a565b9150509250925092565b6127a78161360c565b82525050565b6127b68161361e565b82525050565b60006127c78261350e565b6127d18185613524565b93506127e18185602086016136a3565b6127ea8161386f565b840191505092915050565b600061280082613519565b61280a8185613535565b935061281a8185602086016136a3565b6128238161386f565b840191505092915050565b600061283982613519565b6128438185613546565b93506128538185602086016136a3565b80840191505092915050565b600061286c603283613535565b91507f4552433732313a207472616e7366657220746f206e6f6e20455243373231526560008301527f63656976657220696d706c656d656e74657200000000000000000000000000006020830152604082019050919050565b60006128d2602683613535565b91507f4f776e61626c653a206e6577206f776e657220697320746865207a65726f206160008301527f64647265737300000000000000000000000000000000000000000000000000006020830152604082019050919050565b6000612938601c83613535565b91507f4552433732313a20746f6b656e20616c7265616479206d696e746564000000006000830152602082019050919050565b6000612978602983613535565b91507f4d696e74696e67206973206f6e6c7920617661696c61626c6520666f72206e6f60008301527f6e2d686f6c6465727300000000000000000000000000000000000000000000006020830152604082019050919050565b60006129de602483613535565b91507f4552433732313a207472616e7366657220746f20746865207a65726f2061646460008301527f72657373000000000000000000000000000000000000000000000000000000006020830152604082019050919050565b6000612a44601983613535565b91507f4552433732313a20617070726f766520746f2063616c6c6572000000000000006000830152602082019050919050565b6000612a84602c83613535565b91507f4552433732313a206f70657261746f7220717565727920666f72206e6f6e657860008301527f697374656e7420746f6b656e00000000000000000000000000000000000000006020830152604082019050919050565b6000612aea603883613535565b91507f4552433732313a20617070726f76652063616c6c6572206973206e6f74206f7760008301527f6e6572206e6f7220617070726f76656420666f7220616c6c00000000000000006020830152604082019050919050565b6000612b50602a83613535565b91507f4552433732313a2062616c616e636520717565727920666f7220746865207a6560008301527f726f2061646472657373000000000000000000000000000000000000000000006020830152604082019050919050565b6000612bb6602983613535565b91507f4552433732313a206f776e657220717565727920666f72206e6f6e657869737460008301527f656e7420746f6b656e00000000000000000000000000000000000000000000006020830152604082019050919050565b6000612c1c602a83613535565b91507f4154582044414f204e4654206973206e6f74206d696e7461626c65206174207460008301527f6865206d6f6d656e7421000000000000000000000000000000000000000000006020830152604082019050919050565b6000612c82602e83613535565b91507f45524337323155524953746f726167653a2055524920736574206f66206e6f6e60008301527f6578697374656e7420746f6b656e0000000000000000000000000000000000006020830152604082019050919050565b6000612ce8602083613535565b91507f4552433732313a206d696e7420746f20746865207a65726f20616464726573736000830152602082019050919050565b6000612d28603183613535565b91507f45524337323155524953746f726167653a2055524920717565727920666f722060008301527f6e6f6e6578697374656e7420746f6b656e0000000000000000000000000000006020830152604082019050919050565b6000612d8e602c83613535565b91507f4552433732313a20617070726f76656420717565727920666f72206e6f6e657860008301527f697374656e7420746f6b656e00000000000000000000000000000000000000006020830152604082019050919050565b6000612df4602083613535565b91507f4f776e61626c653a2063616c6c6572206973206e6f7420746865206f776e65726000830152602082019050919050565b6000612e34602983613535565b91507f4552433732313a207472616e73666572206f6620746f6b656e2074686174206960008301527f73206e6f74206f776e00000000000000000000000000000000000000000000006020830152604082019050919050565b6000612e9a602f83613535565b91507f4552433732314d657461646174613a2055524920717565727920666f72206e6f60008301527f6e6578697374656e7420746f6b656e00000000000000000000000000000000006020830152604082019050919050565b6000612f00602183613535565b91507f4552433732313a20617070726f76616c20746f2063757272656e74206f776e6560008301527f72000000000000000000000000000000000000000000000000000000000000006020830152604082019050919050565b6000612f66601e83613535565b91507f4e6f7420656e6f7567682065746865722073656e7420746f206d696e742100006000830152602082019050919050565b6000612fa6600d83613535565b91507f4e6f20636f6e74726163747321000000000000000000000000000000000000006000830152602082019050919050565b6000612fe6601783613535565b91507f4e6f206d6f7265204e4654732072656d61696e696e67210000000000000000006000830152602082019050919050565b6000613026603183613535565b91507f4552433732313a207472616e736665722063616c6c6572206973206e6f74206f60008301527f776e6572206e6f7220617070726f7665640000000000000000000000000000006020830152604082019050919050565b61308881613676565b82525050565b600061309a828561282e565b91506130a6828461282e565b91508190509392505050565b60006020820190506130c7600083018461279e565b92915050565b60006080820190506130e2600083018761279e565b6130ef602083018661279e565b6130fc604083018561307f565b818103606083015261310e81846127bc565b905095945050505050565b600060208201905061312e60008301846127ad565b92915050565b6000602082019050818103600083015261314e81846127f5565b905092915050565b6000602082019050818103600083015261316f8161285f565b9050919050565b6000602082019050818103600083015261318f816128c5565b9050919050565b600060208201905081810360008301526131af8161292b565b9050919050565b600060208201905081810360008301526131cf8161296b565b9050919050565b600060208201905081810360008301526131ef816129d1565b9050919050565b6000602082019050818103600083015261320f81612a37565b9050919050565b6000602082019050818103600083015261322f81612a77565b9050919050565b6000602082019050818103600083015261324f81612add565b9050919050565b6000602082019050818103600083015261326f81612b43565b9050919050565b6000602082019050818103600083015261328f81612ba9565b9050919050565b600060208201905081810360008301526132af81612c0f565b9050919050565b600060208201905081810360008301526132cf81612c75565b9050919050565b600060208201905081810360008301526132ef81612cdb565b9050919050565b6000602082019050818103600083015261330f81612d1b565b9050919050565b6000602082019050818103600083015261332f81612d81565b9050919050565b6000602082019050818103600083015261334f81612de7565b9050919050565b6000602082019050818103600083015261336f81612e27565b9050919050565b6000602082019050818103600083015261338f81612e8d565b9050919050565b600060208201905081810360008301526133af81612ef3565b9050919050565b600060208201905081810360008301526133cf81612f59565b9050919050565b600060208201905081810360008301526133ef81612f99565b9050919050565b6000602082019050818103600083015261340f81612fd9565b9050919050565b6000602082019050818103600083015261342f81613019565b9050919050565b600060208201905061344b600083018461307f565b92915050565b6000604051905081810181811067ffffffffffffffff8211171561347857613477613840565b5b8060405250919050565b600067ffffffffffffffff82111561349d5761349c613840565b5b602082029050602081019050919050565b600067ffffffffffffffff8211156134c9576134c8613840565b5b601f19601f8301169050602081019050919050565b600067ffffffffffffffff8211156134f9576134f8613840565b5b601f19601f8301169050602081019050919050565b600081519050919050565b600081519050919050565b600082825260208201905092915050565b600082825260208201905092915050565b600081905092915050565b600061355c82613676565b915061356783613676565b9250827fffffffffffffffffffffffffffffffffffffffffffffffffffffffffffffffff0382111561359c5761359b6137b3565b5b828201905092915050565b60006135b282613676565b91506135bd83613676565b9250826135cd576135cc6137e2565b5b828204905092915050565b60006135e382613676565b91506135ee83613676565b925082821015613601576136006137b3565b5b828203905092915050565b600061361782613656565b9050919050565b60008115159050919050565b60007fffffffff0000000000000000000000000000000000000000000000000000000082169050919050565b600073ffffffffffffffffffffffffffffffffffffffff82169050919050565b6000819050919050565b600067ffffffffffffffff82169050919050565b82818337600083830152505050565b60005b838110156136c15780820151818401526020810190506136a6565b838111156136d0576000848401525b50505050565b600060028204905060018216806136ee57607f821691505b6020821081141561370257613701613811565b5b50919050565b600061371382613676565b91507fffffffffffffffffffffffffffffffffffffffffffffffffffffffffffffffff821415613746576137456137b3565b5b600182019050919050565b600061375c82613680565b915067ffffffffffffffff821415613777576137766137b3565b5b600182019050919050565b600061378d82613676565b915061379883613676565b9250826137a8576137a76137e2565b5b828206905092915050565b7f4e487b7100000000000000000000000000000000000000000000000000000000600052601160045260246000fd5b7f4e487b7100000000000000000000000000000000000000000000000000000000600052601260045260246000fd5b7f4e487b7100000000000000000000000000000000000000000000000000000000600052602260045260246000fd5b7f4e487b7100000000000000000000000000000000000000000000000000000000600052604160045260246000fd5b6000601f19601f8301169050919050565b6138898161360c565b811461389457600080fd5b50565b6138a08161361e565b81146138ab57600080fd5b50565b6138b78161362a565b81146138c257600080fd5b50565b6138ce81613676565b81146138d957600080fd5b5056fea2646970667358221220ab12d8d3bc0cc282d3d8f9e4c714b17eeff8158b1cec6e9f4787849eb10f06a564736f6c63430008000033",
  "linkReferences": {},
  "deployedLinkReferences": {}
}