{
  "_format": "hh-sol-artifact-1",
  "contractName": "ATXDAONFT",
  "sourceName": "contracts/ATXDAONFT.sol",
  "abi": [
    {
      "inputs": [],
      "stateMutability": "nonpayable",
      "type": "constructor"
    },
    {
      "anonymous": false,
      "inputs": [
        {
          "indexed": true,
          "internalType": "address",
          "name": "owner",
          "type": "address"
        },
        {
          "indexed": true,
          "internalType": "address",
          "name": "approved",
          "type": "address"
        },
        {
          "indexed": true,
          "internalType": "uint256",
          "name": "tokenId",
          "type": "uint256"
        }
      ],
      "name": "Approval",
      "type": "event"
    },
    {
      "anonymous": false,
      "inputs": [
        {
          "indexed": true,
          "internalType": "address",
          "name": "owner",
          "type": "address"
        },
        {
          "indexed": true,
          "internalType": "address",
          "name": "operator",
          "type": "address"
        },
        {
          "indexed": false,
          "internalType": "bool",
          "name": "approved",
          "type": "bool"
        }
      ],
      "name": "ApprovalForAll",
      "type": "event"
    },
    {
      "anonymous": false,
      "inputs": [
        {
          "indexed": true,
          "internalType": "address",
          "name": "previousOwner",
          "type": "address"
        },
        {
          "indexed": true,
          "internalType": "address",
          "name": "newOwner",
          "type": "address"
        }
      ],
      "name": "OwnershipTransferred",
      "type": "event"
    },
    {
      "anonymous": false,
      "inputs": [
        {
          "indexed": true,
          "internalType": "address",
          "name": "from",
          "type": "address"
        },
        {
          "indexed": true,
          "internalType": "address",
          "name": "to",
          "type": "address"
        },
        {
          "indexed": true,
          "internalType": "uint256",
          "name": "tokenId",
          "type": "uint256"
        }
      ],
      "name": "Transfer",
      "type": "event"
    },
    {
      "inputs": [],
      "name": "_mintPrice",
      "outputs": [
        {
          "internalType": "uint256",
          "name": "",
          "type": "uint256"
        }
      ],
      "stateMutability": "view",
      "type": "function"
    },
    {
      "inputs": [],
      "name": "_mintQuantity",
      "outputs": [
        {
          "internalType": "uint256",
          "name": "",
          "type": "uint256"
        }
      ],
      "stateMutability": "view",
      "type": "function"
    },
    {
      "inputs": [
        {
          "internalType": "address",
          "name": "to",
          "type": "address"
        },
        {
          "internalType": "uint256",
          "name": "tokenId",
          "type": "uint256"
        }
      ],
      "name": "approve",
      "outputs": [],
      "stateMutability": "nonpayable",
      "type": "function"
    },
    {
      "inputs": [
        {
          "internalType": "address",
          "name": "owner",
          "type": "address"
        }
      ],
      "name": "balanceOf",
      "outputs": [
        {
          "internalType": "uint256",
          "name": "",
          "type": "uint256"
        }
      ],
      "stateMutability": "view",
      "type": "function"
    },
    {
      "inputs": [],
      "name": "endMint",
      "outputs": [],
      "stateMutability": "nonpayable",
      "type": "function"
    },
    {
      "inputs": [
        {
          "internalType": "uint256",
          "name": "tokenId",
          "type": "uint256"
        }
      ],
      "name": "getApproved",
      "outputs": [
        {
          "internalType": "address",
          "name": "",
          "type": "address"
        }
      ],
      "stateMutability": "view",
      "type": "function"
    },
    {
      "inputs": [
        {
          "internalType": "address",
          "name": "owner",
          "type": "address"
        },
        {
          "internalType": "address",
          "name": "operator",
          "type": "address"
        }
      ],
      "name": "isApprovedForAll",
      "outputs": [
        {
          "internalType": "bool",
          "name": "",
          "type": "bool"
        }
      ],
      "stateMutability": "view",
      "type": "function"
    },
    {
      "inputs": [],
      "name": "isMintable",
      "outputs": [
        {
          "internalType": "bool",
          "name": "",
          "type": "bool"
        }
      ],
      "stateMutability": "view",
      "type": "function"
    },
    {
      "inputs": [],
      "name": "mint",
      "outputs": [],
      "stateMutability": "payable",
      "type": "function"
    },
    {
      "inputs": [
        {
          "internalType": "address[]",
          "name": "recipients",
          "type": "address[]"
        },
        {
          "internalType": "string",
          "name": "tokenURI",
          "type": "string"
        }
      ],
      "name": "mintSpecial",
      "outputs": [],
      "stateMutability": "nonpayable",
      "type": "function"
    },
    {
      "inputs": [],
      "name": "name",
      "outputs": [
        {
          "internalType": "string",
          "name": "",
          "type": "string"
        }
      ],
      "stateMutability": "view",
      "type": "function"
    },
    {
      "inputs": [],
      "name": "owner",
      "outputs": [
        {
          "internalType": "address",
          "name": "",
          "type": "address"
        }
      ],
      "stateMutability": "view",
      "type": "function"
    },
    {
      "inputs": [
        {
          "internalType": "uint256",
          "name": "tokenId",
          "type": "uint256"
        }
      ],
      "name": "ownerOf",
      "outputs": [
        {
          "internalType": "address",
          "name": "",
          "type": "address"
        }
      ],
      "stateMutability": "view",
      "type": "function"
    },
    {
      "inputs": [],
      "name": "renounceOwnership",
      "outputs": [],
      "stateMutability": "nonpayable",
      "type": "function"
    },
    {
      "inputs": [
        {
          "internalType": "address",
          "name": "from",
          "type": "address"
        },
        {
          "internalType": "address",
          "name": "to",
          "type": "address"
        },
        {
          "internalType": "uint256",
          "name": "tokenId",
          "type": "uint256"
        }
      ],
      "name": "safeTransferFrom",
      "outputs": [],
      "stateMutability": "nonpayable",
      "type": "function"
    },
    {
      "inputs": [
        {
          "internalType": "address",
          "name": "from",
          "type": "address"
        },
        {
          "internalType": "address",
          "name": "to",
          "type": "address"
        },
        {
          "internalType": "uint256",
          "name": "tokenId",
          "type": "uint256"
        },
        {
          "internalType": "bytes",
          "name": "_data",
          "type": "bytes"
        }
      ],
      "name": "safeTransferFrom",
      "outputs": [],
      "stateMutability": "nonpayable",
      "type": "function"
    },
    {
      "inputs": [
        {
          "internalType": "address",
          "name": "operator",
          "type": "address"
        },
        {
          "internalType": "bool",
          "name": "approved",
          "type": "bool"
        }
      ],
      "name": "setApprovalForAll",
      "outputs": [],
      "stateMutability": "nonpayable",
      "type": "function"
    },
    {
      "inputs": [
        {
          "internalType": "uint256",
          "name": "mintPrice",
          "type": "uint256"
        },
        {
          "internalType": "uint256",
          "name": "mintQuantity",
          "type": "uint256"
        },
        {
          "internalType": "string",
          "name": "tokenURI",
          "type": "string"
        }
      ],
      "name": "startMint",
      "outputs": [],
      "stateMutability": "nonpayable",
      "type": "function"
    },
    {
      "inputs": [
        {
          "internalType": "bytes4",
          "name": "interfaceId",
          "type": "bytes4"
        }
      ],
      "name": "supportsInterface",
      "outputs": [
        {
          "internalType": "bool",
          "name": "",
          "type": "bool"
        }
      ],
      "stateMutability": "view",
      "type": "function"
    },
    {
      "inputs": [],
      "name": "sweepEth",
      "outputs": [],
      "stateMutability": "nonpayable",
      "type": "function"
    },
    {
      "inputs": [],
      "name": "symbol",
      "outputs": [
        {
          "internalType": "string",
          "name": "",
          "type": "string"
        }
      ],
      "stateMutability": "view",
      "type": "function"
    },
    {
      "inputs": [
        {
          "internalType": "uint256",
          "name": "tokenId",
          "type": "uint256"
        }
      ],
      "name": "tokenURI",
      "outputs": [
        {
          "internalType": "string",
          "name": "",
          "type": "string"
        }
      ],
      "stateMutability": "view",
      "type": "function"
    },
    {
      "inputs": [
        {
          "internalType": "address",
          "name": "from",
          "type": "address"
        },
        {
          "internalType": "address",
          "name": "to",
          "type": "address"
        },
        {
          "internalType": "uint256",
          "name": "tokenId",
          "type": "uint256"
        }
      ],
      "name": "transferFrom",
      "outputs": [],
      "stateMutability": "nonpayable",
      "type": "function"
    },
    {
      "inputs": [
        {
          "internalType": "address",
          "name": "newOwner",
          "type": "address"
        }
      ],
      "name": "transferOwnership",
      "outputs": [],
      "stateMutability": "nonpayable",
      "type": "function"
    }
  ],
  "bytecode": "0x60806040526000600760146101000a81548160ff02191690831515021790555067071afd498d00000060085560196009553480156200003d57600080fd5b506040518060400160405280600781526020017f4154582044414f000000000000000000000000000000000000000000000000008152506040518060400160405280600381526020017f41545800000000000000000000000000000000000000000000000000000000008152508160009080519060200190620000c2929190620001d2565b508060019080519060200190620000db929190620001d2565b505050620000fe620000f26200010460201b60201c565b6200010c60201b60201c565b620002e7565b600033905090565b6000600760009054906101000a900473ffffffffffffffffffffffffffffffffffffffff16905081600760006101000a81548173ffffffffffffffffffffffffffffffffffffffff021916908373ffffffffffffffffffffffffffffffffffffffff1602179055508173ffffffffffffffffffffffffffffffffffffffff168173ffffffffffffffffffffffffffffffffffffffff167f8be0079c531659141344cd1fd0a4f28419497f9722a3daafe3b4186f6b6457e060405160405180910390a35050565b828054620001e09062000282565b90600052602060002090601f01602090048101928262000204576000855562000250565b82601f106200021f57805160ff191683800117855562000250565b8280016001018555821562000250579182015b828111156200024f57825182559160200191906001019062000232565b5b5090506200025f919062000263565b5090565b5b808211156200027e57600081600090555060010162000264565b5090565b600060028204905060018216806200029b57607f821691505b60208210811415620002b257620002b1620002b8565b5b50919050565b7f4e487b7100000000000000000000000000000000000000000000000000000000600052602260045260246000fd5b613a0e80620002f76000396000f3fe60806040526004361061014b5760003560e01c806370a08231116100b6578063b88d4fde1161006f578063b88d4fde14610437578063c87b56dd14610460578063d520ec6b1461049d578063e0dba62b146104c8578063e985e9c5146104f1578063f2fde38b1461052e5761014b565b806370a082311461034d578063715018a61461038a5780638da5cb5b146103a157806395d89b41146103cc5780639ac84414146103f7578063a22cb4651461040e5761014b565b8063095ea7b311610108578063095ea7b3146102605780631249c58b1461028957806323b872dd1461029357806342842e0e146102bc57806346b45af7146102e55780636352211e146103105761014b565b8063017043a51461015057806301ffc9a7146101675780630387da42146101a45780630611ce2e146101cf57806306fdde03146101f8578063081812fc14610223575b600080fd5b34801561015c57600080fd5b50610165610557565b005b34801561017357600080fd5b5061018e600480360381019061018991906127b8565b6105f0565b60405161019b9190613215565b60405180910390f35b3480156101b057600080fd5b506101b96106d2565b6040516101c69190613532565b60405180910390f35b3480156101db57600080fd5b506101f660048036038101906101f19190612833565b6106d8565b005b34801561020457600080fd5b5061020d6107a3565b60405161021a9190613230565b60405180910390f35b34801561022f57600080fd5b5061024a6004803603810190610245919061280a565b610835565b60405161025791906131ae565b60405180910390f35b34801561026c57600080fd5b5061028760048036038101906102829190612710565b6108ba565b005b6102916109d2565b005b34801561029f57600080fd5b506102ba60048036038101906102b5919061260a565b610c37565b005b3480156102c857600080fd5b506102e360048036038101906102de919061260a565b610c97565b005b3480156102f157600080fd5b506102fa610cb7565b6040516103079190613215565b60405180910390f35b34801561031c57600080fd5b506103376004803603810190610332919061280a565b610cca565b60405161034491906131ae565b60405180910390f35b34801561035957600080fd5b50610374600480360381019061036f91906125a5565b610d7c565b6040516103819190613532565b60405180910390f35b34801561039657600080fd5b5061039f610e34565b005b3480156103ad57600080fd5b506103b6610ebc565b6040516103c391906131ae565b60405180910390f35b3480156103d857600080fd5b506103e1610ee6565b6040516103ee9190613230565b60405180910390f35b34801561040357600080fd5b5061040c610f78565b005b34801561041a57600080fd5b50610435600480360381019061043091906126d4565b611052565b005b34801561044357600080fd5b5061045e60048036038101906104599190612659565b6111d3565b005b34801561046c57600080fd5b506104876004803603810190610482919061280a565b611235565b6040516104949190613230565b60405180910390f35b3480156104a957600080fd5b506104b2611387565b6040516104bf9190613532565b60405180910390f35b3480156104d457600080fd5b506104ef60048036038101906104ea919061274c565b61138d565b005b3480156104fd57600080fd5b50610518600480360381019061051391906125ce565b6114ae565b6040516105259190613215565b60405180910390f35b34801561053a57600080fd5b50610555600480360381019061055091906125a5565b611542565b005b61055f61163a565b73ffffffffffffffffffffffffffffffffffffffff1661057d610ebc565b73ffffffffffffffffffffffffffffffffffffffff16146105d3576040517f08c379a00000000000000000000000000000000000000000000000000000000081526004016105ca90613432565b60405180910390fd5b6000600760146101000a81548160ff021916908315150217905550565b60007f80ac58cd000000000000000000000000000000000000000000000000000000007bffffffffffffffffffffffffffffffffffffffffffffffffffffffff1916827bffffffffffffffffffffffffffffffffffffffffffffffffffffffff191614806106bb57507f5b5e139f000000000000000000000000000000000000000000000000000000007bffffffffffffffffffffffffffffffffffffffffffffffffffffffff1916827bffffffffffffffffffffffffffffffffffffffffffffffffffffffff1916145b806106cb57506106ca82611642565b5b9050919050565b60085481565b6106e061163a565b73ffffffffffffffffffffffffffffffffffffffff166106fe610ebc565b73ffffffffffffffffffffffffffffffffffffffff1614610754576040517f08c379a000000000000000000000000000000000000000000000000000000000815260040161074b90613432565b60405180910390fd5b6001600760146101000a81548160ff021916908315150217905550826008819055508160098190555080600c9080519060200190610793929190612333565b5061079e600a6116ac565b505050565b6060600080546107b2906137d2565b80601f01602080910402602001604051908101604052809291908181526020018280546107de906137d2565b801561082b5780601f106108005761010080835404028352916020019161082b565b820191906000526020600020905b81548152906001019060200180831161080e57829003601f168201915b5050505050905090565b6000610840826116b9565b61087f576040517f08c379a000000000000000000000000000000000000000000000000000000000815260040161087690613412565b60405180910390fd5b6004600083815260200190815260200160002060009054906101000a900473ffffffffffffffffffffffffffffffffffffffff169050919050565b60006108c582610cca565b90508073ffffffffffffffffffffffffffffffffffffffff168373ffffffffffffffffffffffffffffffffffffffff161415610936576040517f08c379a000000000000000000000000000000000000000000000000000000000815260040161092d90613492565b60405180910390fd5b8073ffffffffffffffffffffffffffffffffffffffff1661095561163a565b73ffffffffffffffffffffffffffffffffffffffff16148061098457506109838161097e61163a565b6114ae565b5b6109c3576040517f08c379a00000000000000000000000000000000000000000000000000000000081526004016109ba90613332565b60405180910390fd5b6109cd8383611725565b505050565b60011515600760149054906101000a900460ff16151514610a28576040517f08c379a0000000000000000000000000000000000000000000000000000000008152600401610a1f90613392565b60405180910390fd5b6000610a3333610d7c565b14610a73576040517f08c379a0000000000000000000000000000000000000000000000000000000008152600401610a6a906132b2565b60405180910390fd5b600954610a80600a6117de565b1115610ac1576040517f08c379a0000000000000000000000000000000000000000000000000000000008152600401610ab8906134f2565b60405180910390fd5b600854341015610b06576040517f08c379a0000000000000000000000000000000000000000000000000000000008152600401610afd906134b2565b60405180910390fd5b3273ffffffffffffffffffffffffffffffffffffffff163373ffffffffffffffffffffffffffffffffffffffff1614610b74576040517f08c379a0000000000000000000000000000000000000000000000000000000008152600401610b6b906134d2565b60405180910390fd5b610b7e600b6117ec565b6000610b8a600b6117de565b9050610b963382611802565b610c2a81600c8054610ba7906137d2565b80601f0160208091040260200160405190810160405280929190818152602001828054610bd3906137d2565b8015610c205780601f10610bf557610100808354040283529160200191610c20565b820191906000526020600020905b815481529060010190602001808311610c0357829003601f168201915b5050505050611820565b610c34600a6117ec565b50565b610c48610c4261163a565b82611894565b610c87576040517f08c379a0000000000000000000000000000000000000000000000000000000008152600401610c7e90613512565b60405180910390fd5b610c92838383611972565b505050565b610cb2838383604051806020016040528060008152506111d3565b505050565b600760149054906101000a900460ff1681565b6000806002600084815260200190815260200160002060009054906101000a900473ffffffffffffffffffffffffffffffffffffffff169050600073ffffffffffffffffffffffffffffffffffffffff168173ffffffffffffffffffffffffffffffffffffffff161415610d73576040517f08c379a0000000000000000000000000000000000000000000000000000000008152600401610d6a90613372565b60405180910390fd5b80915050919050565b60008073ffffffffffffffffffffffffffffffffffffffff168273ffffffffffffffffffffffffffffffffffffffff161415610ded576040517f08c379a0000000000000000000000000000000000000000000000000000000008152600401610de490613352565b60405180910390fd5b600360008373ffffffffffffffffffffffffffffffffffffffff1673ffffffffffffffffffffffffffffffffffffffff168152602001908152602001600020549050919050565b610e3c61163a565b73ffffffffffffffffffffffffffffffffffffffff16610e5a610ebc565b73ffffffffffffffffffffffffffffffffffffffff1614610eb0576040517f08c379a0000000000000000000000000000000000000000000000000000000008152600401610ea790613432565b60405180910390fd5b610eba6000611bce565b565b6000600760009054906101000a900473ffffffffffffffffffffffffffffffffffffffff16905090565b606060018054610ef5906137d2565b80601f0160208091040260200160405190810160405280929190818152602001828054610f21906137d2565b8015610f6e5780601f10610f4357610100808354040283529160200191610f6e565b820191906000526020600020905b815481529060010190602001808311610f5157829003601f168201915b5050505050905090565b610f8061163a565b73ffffffffffffffffffffffffffffffffffffffff16610f9e610ebc565b73ffffffffffffffffffffffffffffffffffffffff1614610ff4576040517f08c379a0000000000000000000000000000000000000000000000000000000008152600401610feb90613432565b60405180910390fd5b6000610fff30610d7c565b9050611009610ebc565b73ffffffffffffffffffffffffffffffffffffffff166108fc829081150290604051600060405180830381858888f1935050505015801561104e573d6000803e3d6000fd5b5050565b61105a61163a565b73ffffffffffffffffffffffffffffffffffffffff168273ffffffffffffffffffffffffffffffffffffffff1614156110c8576040517f08c379a00000000000000000000000000000000000000000000000000000000081526004016110bf906132f2565b60405180910390fd5b80600560006110d561163a565b73ffffffffffffffffffffffffffffffffffffffff1673ffffffffffffffffffffffffffffffffffffffff16815260200190815260200160002060008473ffffffffffffffffffffffffffffffffffffffff1673ffffffffffffffffffffffffffffffffffffffff16815260200190815260200160002060006101000a81548160ff0219169083151502179055508173ffffffffffffffffffffffffffffffffffffffff1661118261163a565b73ffffffffffffffffffffffffffffffffffffffff167f17307eab39ab6107e8899845ad3d59bd9653f200f220920489ca2b5937696c31836040516111c79190613215565b60405180910390a35050565b6111e46111de61163a565b83611894565b611223576040517f08c379a000000000000000000000000000000000000000000000000000000000815260040161121a90613512565b60405180910390fd5b61122f84848484611c94565b50505050565b6060611240826116b9565b61127f576040517f08c379a0000000000000000000000000000000000000000000000000000000008152600401611276906133f2565b60405180910390fd5b600060066000848152602001908152602001600020805461129f906137d2565b80601f01602080910402602001604051908101604052809291908181526020018280546112cb906137d2565b80156113185780601f106112ed57610100808354040283529160200191611318565b820191906000526020600020905b8154815290600101906020018083116112fb57829003601f168201915b505050505090506000611329611cf0565b905060008151141561133f578192505050611382565b60008251111561137457808260405160200161135c92919061318a565b60405160208183030381529060405292505050611382565b61137d84611d07565b925050505b919050565b60095481565b61139561163a565b73ffffffffffffffffffffffffffffffffffffffff166113b3610ebc565b73ffffffffffffffffffffffffffffffffffffffff1614611409576040517f08c379a000000000000000000000000000000000000000000000000000000000815260040161140090613432565b60405180910390fd5b60005b82518167ffffffffffffffff1610156114a957611429600b6117ec565b6000611435600b6117de565b905061148b848367ffffffffffffffff168151811061147d577f4e487b7100000000000000000000000000000000000000000000000000000000600052603260045260246000fd5b602002602001015182611802565b6114958184611820565b5080806114a19061384d565b91505061140c565b505050565b6000600560008473ffffffffffffffffffffffffffffffffffffffff1673ffffffffffffffffffffffffffffffffffffffff16815260200190815260200160002060008373ffffffffffffffffffffffffffffffffffffffff1673ffffffffffffffffffffffffffffffffffffffff16815260200190815260200160002060009054906101000a900460ff16905092915050565b61154a61163a565b73ffffffffffffffffffffffffffffffffffffffff16611568610ebc565b73ffffffffffffffffffffffffffffffffffffffff16146115be576040517f08c379a00000000000000000000000000000000000000000000000000000000081526004016115b590613432565b60405180910390fd5b600073ffffffffffffffffffffffffffffffffffffffff168173ffffffffffffffffffffffffffffffffffffffff16141561162e576040517f08c379a000000000000000000000000000000000000000000000000000000000815260040161162590613272565b60405180910390fd5b61163781611bce565b50565b600033905090565b60007f01ffc9a7000000000000000000000000000000000000000000000000000000007bffffffffffffffffffffffffffffffffffffffffffffffffffffffff1916827bffffffffffffffffffffffffffffffffffffffffffffffffffffffff1916149050919050565b6000816000018190555050565b60008073ffffffffffffffffffffffffffffffffffffffff166002600084815260200190815260200160002060009054906101000a900473ffffffffffffffffffffffffffffffffffffffff1673ffffffffffffffffffffffffffffffffffffffff1614159050919050565b816004600083815260200190815260200160002060006101000a81548173ffffffffffffffffffffffffffffffffffffffff021916908373ffffffffffffffffffffffffffffffffffffffff160217905550808273ffffffffffffffffffffffffffffffffffffffff1661179883610cca565b73ffffffffffffffffffffffffffffffffffffffff167f8c5be1e5ebec7d5bd14f71427d1e84f3dd0314c0f7b2291e5b200ac8c7c3b92560405160405180910390a45050565b600081600001549050919050565b6001816000016000828254019250508190555050565b61181c828260405180602001604052806000815250611dae565b5050565b611829826116b9565b611868576040517f08c379a000000000000000000000000000000000000000000000000000000000815260040161185f906133b2565b60405180910390fd5b8060066000848152602001908152602001600020908051906020019061188f929190612333565b505050565b600061189f826116b9565b6118de576040517f08c379a00000000000000000000000000000000000000000000000000000000081526004016118d590613312565b60405180910390fd5b60006118e983610cca565b90508073ffffffffffffffffffffffffffffffffffffffff168473ffffffffffffffffffffffffffffffffffffffff16148061195857508373ffffffffffffffffffffffffffffffffffffffff1661194084610835565b73ffffffffffffffffffffffffffffffffffffffff16145b80611969575061196881856114ae565b5b91505092915050565b8273ffffffffffffffffffffffffffffffffffffffff1661199282610cca565b73ffffffffffffffffffffffffffffffffffffffff16146119e8576040517f08c379a00000000000000000000000000000000000000000000000000000000081526004016119df90613452565b60405180910390fd5b600073ffffffffffffffffffffffffffffffffffffffff168273ffffffffffffffffffffffffffffffffffffffff161415611a58576040517f08c379a0000000000000000000000000000000000000000000000000000000008152600401611a4f906132d2565b60405180910390fd5b611a63838383611e09565b611a6e600082611725565b6001600360008573ffffffffffffffffffffffffffffffffffffffff1673ffffffffffffffffffffffffffffffffffffffff1681526020019081526020016000206000828254611abe91906136d4565b925050819055506001600360008473ffffffffffffffffffffffffffffffffffffffff1673ffffffffffffffffffffffffffffffffffffffff1681526020019081526020016000206000828254611b15919061364d565b92505081905550816002600083815260200190815260200160002060006101000a81548173ffffffffffffffffffffffffffffffffffffffff021916908373ffffffffffffffffffffffffffffffffffffffff160217905550808273ffffffffffffffffffffffffffffffffffffffff168473ffffffffffffffffffffffffffffffffffffffff167fddf252ad1be2c89b69c2b068fc378daa952ba7f163c4a11628f55a4df523b3ef60405160405180910390a4505050565b6000600760009054906101000a900473ffffffffffffffffffffffffffffffffffffffff16905081600760006101000a81548173ffffffffffffffffffffffffffffffffffffffff021916908373ffffffffffffffffffffffffffffffffffffffff1602179055508173ffffffffffffffffffffffffffffffffffffffff168173ffffffffffffffffffffffffffffffffffffffff167f8be0079c531659141344cd1fd0a4f28419497f9722a3daafe3b4186f6b6457e060405160405180910390a35050565b611c9f848484611972565b611cab84848484611e0e565b611cea576040517f08c379a0000000000000000000000000000000000000000000000000000000008152600401611ce190613252565b60405180910390fd5b50505050565b606060405180602001604052806000815250905090565b6060611d12826116b9565b611d51576040517f08c379a0000000000000000000000000000000000000000000000000000000008152600401611d4890613472565b60405180910390fd5b6000611d5b611cf0565b90506000815111611d7b5760405180602001604052806000815250611da6565b80611d8584611fa5565b604051602001611d9692919061318a565b6040516020818303038152906040525b915050919050565b611db88383612152565b611dc56000848484611e0e565b611e04576040517f08c379a0000000000000000000000000000000000000000000000000000000008152600401611dfb90613252565b60405180910390fd5b505050565b505050565b6000611e2f8473ffffffffffffffffffffffffffffffffffffffff16612320565b15611f98578373ffffffffffffffffffffffffffffffffffffffff1663150b7a02611e5861163a565b8786866040518563ffffffff1660e01b8152600401611e7a94939291906131c9565b602060405180830381600087803b158015611e9457600080fd5b505af1925050508015611ec557506040513d601f19601f82011682018060405250810190611ec291906127e1565b60015b611f48573d8060008114611ef5576040519150601f19603f3d011682016040523d82523d6000602084013e611efa565b606091505b50600081511415611f40576040517f08c379a0000000000000000000000000000000000000000000000000000000008152600401611f3790613252565b60405180910390fd5b805181602001fd5b63150b7a0260e01b7bffffffffffffffffffffffffffffffffffffffffffffffffffffffff1916817bffffffffffffffffffffffffffffffffffffffffffffffffffffffff191614915050611f9d565b600190505b949350505050565b60606000821415611fed576040518060400160405280600181526020017f3000000000000000000000000000000000000000000000000000000000000000815250905061214d565b600082905060005b6000821461201f57808061200890613804565b915050600a8261201891906136a3565b9150611ff5565b60008167ffffffffffffffff811115612061577f4e487b7100000000000000000000000000000000000000000000000000000000600052604160045260246000fd5b6040519080825280601f01601f1916602001820160405280156120935781602001600182028036833780820191505090505b5090505b60008514612146576001826120ac91906136d4565b9150600a856120bb919061387e565b60306120c7919061364d565b60f81b818381518110612103577f4e487b7100000000000000000000000000000000000000000000000000000000600052603260045260246000fd5b60200101907effffffffffffffffffffffffffffffffffffffffffffffffffffffffffffff1916908160001a905350600a8561213f91906136a3565b9450612097565b8093505050505b919050565b600073ffffffffffffffffffffffffffffffffffffffff168273ffffffffffffffffffffffffffffffffffffffff1614156121c2576040517f08c379a00000000000000000000000000000000000000000000000000000000081526004016121b9906133d2565b60405180910390fd5b6121cb816116b9565b1561220b576040517f08c379a000000000000000000000000000000000000000000000000000000000815260040161220290613292565b60405180910390fd5b61221760008383611e09565b6001600360008473ffffffffffffffffffffffffffffffffffffffff1673ffffffffffffffffffffffffffffffffffffffff1681526020019081526020016000206000828254612267919061364d565b92505081905550816002600083815260200190815260200160002060006101000a81548173ffffffffffffffffffffffffffffffffffffffff021916908373ffffffffffffffffffffffffffffffffffffffff160217905550808273ffffffffffffffffffffffffffffffffffffffff16600073ffffffffffffffffffffffffffffffffffffffff167fddf252ad1be2c89b69c2b068fc378daa952ba7f163c4a11628f55a4df523b3ef60405160405180910390a45050565b600080823b905060008111915050919050565b82805461233f906137d2565b90600052602060002090601f01602090048101928261236157600085556123a8565b82601f1061237a57805160ff19168380011785556123a8565b828001600101855582156123a8579182015b828111156123a757825182559160200191906001019061238c565b5b5090506123b591906123b9565b5090565b5b808211156123d25760008160009055506001016123ba565b5090565b60006123e96123e48461357e565b61354d565b9050808382526020820190508285602086028201111561240857600080fd5b60005b85811015612438578161241e88826124be565b84526020840193506020830192505060018101905061240b565b5050509392505050565b6000612455612450846135aa565b61354d565b90508281526020810184848401111561246d57600080fd5b612478848285613790565b509392505050565b600061249361248e846135da565b61354d565b9050828152602081018484840111156124ab57600080fd5b6124b6848285613790565b509392505050565b6000813590506124cd8161397c565b92915050565b600082601f8301126124e457600080fd5b81356124f48482602086016123d6565b91505092915050565b60008135905061250c81613993565b92915050565b600081359050612521816139aa565b92915050565b600081519050612536816139aa565b92915050565b600082601f83011261254d57600080fd5b813561255d848260208601612442565b91505092915050565b600082601f83011261257757600080fd5b8135612587848260208601612480565b91505092915050565b60008135905061259f816139c1565b92915050565b6000602082840312156125b757600080fd5b60006125c5848285016124be565b91505092915050565b600080604083850312156125e157600080fd5b60006125ef858286016124be565b9250506020612600858286016124be565b9150509250929050565b60008060006060848603121561261f57600080fd5b600061262d868287016124be565b935050602061263e868287016124be565b925050604061264f86828701612590565b9150509250925092565b6000806000806080858703121561266f57600080fd5b600061267d878288016124be565b945050602061268e878288016124be565b935050604061269f87828801612590565b925050606085013567ffffffffffffffff8111156126bc57600080fd5b6126c88782880161253c565b91505092959194509250565b600080604083850312156126e757600080fd5b60006126f5858286016124be565b9250506020612706858286016124fd565b9150509250929050565b6000806040838503121561272357600080fd5b6000612731858286016124be565b925050602061274285828601612590565b9150509250929050565b6000806040838503121561275f57600080fd5b600083013567ffffffffffffffff81111561277957600080fd5b612785858286016124d3565b925050602083013567ffffffffffffffff8111156127a257600080fd5b6127ae85828601612566565b9150509250929050565b6000602082840312156127ca57600080fd5b60006127d884828501612512565b91505092915050565b6000602082840312156127f357600080fd5b600061280184828501612527565b91505092915050565b60006020828403121561281c57600080fd5b600061282a84828501612590565b91505092915050565b60008060006060848603121561284857600080fd5b600061285686828701612590565b935050602061286786828701612590565b925050604084013567ffffffffffffffff81111561288457600080fd5b61289086828701612566565b9150509250925092565b6128a381613708565b82525050565b6128b28161371a565b82525050565b60006128c38261360a565b6128cd8185613620565b93506128dd81856020860161379f565b6128e68161396b565b840191505092915050565b60006128fc82613615565b6129068185613631565b935061291681856020860161379f565b61291f8161396b565b840191505092915050565b600061293582613615565b61293f8185613642565b935061294f81856020860161379f565b80840191505092915050565b6000612968603283613631565b91507f4552433732313a207472616e7366657220746f206e6f6e20455243373231526560008301527f63656976657220696d706c656d656e74657200000000000000000000000000006020830152604082019050919050565b60006129ce602683613631565b91507f4f776e61626c653a206e6577206f776e657220697320746865207a65726f206160008301527f64647265737300000000000000000000000000000000000000000000000000006020830152604082019050919050565b6000612a34601c83613631565b91507f4552433732313a20746f6b656e20616c7265616479206d696e746564000000006000830152602082019050919050565b6000612a74602983613631565b91507f4d696e74696e67206973206f6e6c7920617661696c61626c6520666f72206e6f60008301527f6e2d686f6c6465727300000000000000000000000000000000000000000000006020830152604082019050919050565b6000612ada602483613631565b91507f4552433732313a207472616e7366657220746f20746865207a65726f2061646460008301527f72657373000000000000000000000000000000000000000000000000000000006020830152604082019050919050565b6000612b40601983613631565b91507f4552433732313a20617070726f766520746f2063616c6c6572000000000000006000830152602082019050919050565b6000612b80602c83613631565b91507f4552433732313a206f70657261746f7220717565727920666f72206e6f6e657860008301527f697374656e7420746f6b656e00000000000000000000000000000000000000006020830152604082019050919050565b6000612be6603883613631565b91507f4552433732313a20617070726f76652063616c6c6572206973206e6f74206f7760008301527f6e6572206e6f7220617070726f76656420666f7220616c6c00000000000000006020830152604082019050919050565b6000612c4c602a83613631565b91507f4552433732313a2062616c616e636520717565727920666f7220746865207a6560008301527f726f2061646472657373000000000000000000000000000000000000000000006020830152604082019050919050565b6000612cb2602983613631565b91507f4552433732313a206f776e657220717565727920666f72206e6f6e657869737460008301527f656e7420746f6b656e00000000000000000000000000000000000000000000006020830152604082019050919050565b6000612d18602a83613631565b91507f4154582044414f204e4654206973206e6f74206d696e7461626c65206174207460008301527f6865206d6f6d656e7421000000000000000000000000000000000000000000006020830152604082019050919050565b6000612d7e602e83613631565b91507f45524337323155524953746f726167653a2055524920736574206f66206e6f6e60008301527f6578697374656e7420746f6b656e0000000000000000000000000000000000006020830152604082019050919050565b6000612de4602083613631565b91507f4552433732313a206d696e7420746f20746865207a65726f20616464726573736000830152602082019050919050565b6000612e24603183613631565b91507f45524337323155524953746f726167653a2055524920717565727920666f722060008301527f6e6f6e6578697374656e7420746f6b656e0000000000000000000000000000006020830152604082019050919050565b6000612e8a602c83613631565b91507f4552433732313a20617070726f76656420717565727920666f72206e6f6e657860008301527f697374656e7420746f6b656e00000000000000000000000000000000000000006020830152604082019050919050565b6000612ef0602083613631565b91507f4f776e61626c653a2063616c6c6572206973206e6f7420746865206f776e65726000830152602082019050919050565b6000612f30602983613631565b91507f4552433732313a207472616e73666572206f6620746f6b656e2074686174206960008301527f73206e6f74206f776e00000000000000000000000000000000000000000000006020830152604082019050919050565b6000612f96602f83613631565b91507f4552433732314d657461646174613a2055524920717565727920666f72206e6f60008301527f6e6578697374656e7420746f6b656e00000000000000000000000000000000006020830152604082019050919050565b6000612ffc602183613631565b91507f4552433732313a20617070726f76616c20746f2063757272656e74206f776e6560008301527f72000000000000000000000000000000000000000000000000000000000000006020830152604082019050919050565b6000613062601e83613631565b91507f4e6f7420656e6f7567682065746865722073656e7420746f206d696e742100006000830152602082019050919050565b60006130a2600d83613631565b91507f4e6f20636f6e74726163747321000000000000000000000000000000000000006000830152602082019050919050565b60006130e2601783613631565b91507f4e6f206d6f7265204e4654732072656d61696e696e67210000000000000000006000830152602082019050919050565b6000613122603183613631565b91507f4552433732313a207472616e736665722063616c6c6572206973206e6f74206f60008301527f776e6572206e6f7220617070726f7665640000000000000000000000000000006020830152604082019050919050565b61318481613772565b82525050565b6000613196828561292a565b91506131a2828461292a565b91508190509392505050565b60006020820190506131c3600083018461289a565b92915050565b60006080820190506131de600083018761289a565b6131eb602083018661289a565b6131f8604083018561317b565b818103606083015261320a81846128b8565b905095945050505050565b600060208201905061322a60008301846128a9565b92915050565b6000602082019050818103600083015261324a81846128f1565b905092915050565b6000602082019050818103600083015261326b8161295b565b9050919050565b6000602082019050818103600083015261328b816129c1565b9050919050565b600060208201905081810360008301526132ab81612a27565b9050919050565b600060208201905081810360008301526132cb81612a67565b9050919050565b600060208201905081810360008301526132eb81612acd565b9050919050565b6000602082019050818103600083015261330b81612b33565b9050919050565b6000602082019050818103600083015261332b81612b73565b9050919050565b6000602082019050818103600083015261334b81612bd9565b9050919050565b6000602082019050818103600083015261336b81612c3f565b9050919050565b6000602082019050818103600083015261338b81612ca5565b9050919050565b600060208201905081810360008301526133ab81612d0b565b9050919050565b600060208201905081810360008301526133cb81612d71565b9050919050565b600060208201905081810360008301526133eb81612dd7565b9050919050565b6000602082019050818103600083015261340b81612e17565b9050919050565b6000602082019050818103600083015261342b81612e7d565b9050919050565b6000602082019050818103600083015261344b81612ee3565b9050919050565b6000602082019050818103600083015261346b81612f23565b9050919050565b6000602082019050818103600083015261348b81612f89565b9050919050565b600060208201905081810360008301526134ab81612fef565b9050919050565b600060208201905081810360008301526134cb81613055565b9050919050565b600060208201905081810360008301526134eb81613095565b9050919050565b6000602082019050818103600083015261350b816130d5565b9050919050565b6000602082019050818103600083015261352b81613115565b9050919050565b6000602082019050613547600083018461317b565b92915050565b6000604051905081810181811067ffffffffffffffff821117156135745761357361393c565b5b8060405250919050565b600067ffffffffffffffff8211156135995761359861393c565b5b602082029050602081019050919050565b600067ffffffffffffffff8211156135c5576135c461393c565b5b601f19601f8301169050602081019050919050565b600067ffffffffffffffff8211156135f5576135f461393c565b5b601f19601f8301169050602081019050919050565b600081519050919050565b600081519050919050565b600082825260208201905092915050565b600082825260208201905092915050565b600081905092915050565b600061365882613772565b915061366383613772565b9250827fffffffffffffffffffffffffffffffffffffffffffffffffffffffffffffffff03821115613698576136976138af565b5b828201905092915050565b60006136ae82613772565b91506136b983613772565b9250826136c9576136c86138de565b5b828204905092915050565b60006136df82613772565b91506136ea83613772565b9250828210156136fd576136fc6138af565b5b828203905092915050565b600061371382613752565b9050919050565b60008115159050919050565b60007fffffffff0000000000000000000000000000000000000000000000000000000082169050919050565b600073ffffffffffffffffffffffffffffffffffffffff82169050919050565b6000819050919050565b600067ffffffffffffffff82169050919050565b82818337600083830152505050565b60005b838110156137bd5780820151818401526020810190506137a2565b838111156137cc576000848401525b50505050565b600060028204905060018216806137ea57607f821691505b602082108114156137fe576137fd61390d565b5b50919050565b600061380f82613772565b91507fffffffffffffffffffffffffffffffffffffffffffffffffffffffffffffffff821415613842576138416138af565b5b600182019050919050565b60006138588261377c565b915067ffffffffffffffff821415613873576138726138af565b5b600182019050919050565b600061388982613772565b915061389483613772565b9250826138a4576138a36138de565b5b828206905092915050565b7f4e487b7100000000000000000000000000000000000000000000000000000000600052601160045260246000fd5b7f4e487b7100000000000000000000000000000000000000000000000000000000600052601260045260246000fd5b7f4e487b7100000000000000000000000000000000000000000000000000000000600052602260045260246000fd5b7f4e487b7100000000000000000000000000000000000000000000000000000000600052604160045260246000fd5b6000601f19601f8301169050919050565b61398581613708565b811461399057600080fd5b50565b61399c8161371a565b81146139a757600080fd5b50565b6139b381613726565b81146139be57600080fd5b50565b6139ca81613772565b81146139d557600080fd5b5056fea264697066735822122050c479b886c74a35a508735248baab25f5242efc4113a9dfdda0d144841fcd1264736f6c63430008000033",
  "linkReferences": {},
  "deployedLinkReferences": {}
}