{
  "address": "0x6d22c11f7fA3f67174Eec9eBc8bFf129978BE90d",
  "abi": [
    {
      "inputs": [],
      "stateMutability": "nonpayable",
      "type": "constructor"
    },
    {
      "anonymous": false,
      "inputs": [
        {
          "indexed": true,
          "internalType": "address",
          "name": "owner",
          "type": "address"
        },
        {
          "indexed": true,
          "internalType": "address",
          "name": "approved",
          "type": "address"
        },
        {
          "indexed": true,
          "internalType": "uint256",
          "name": "tokenId",
          "type": "uint256"
        }
      ],
      "name": "Approval",
      "type": "event"
    },
    {
      "anonymous": false,
      "inputs": [
        {
          "indexed": true,
          "internalType": "address",
          "name": "owner",
          "type": "address"
        },
        {
          "indexed": true,
          "internalType": "address",
          "name": "operator",
          "type": "address"
        },
        {
          "indexed": false,
          "internalType": "bool",
          "name": "approved",
          "type": "bool"
        }
      ],
      "name": "ApprovalForAll",
      "type": "event"
    },
    {
      "anonymous": false,
      "inputs": [
        {
          "indexed": false,
          "internalType": "uint256",
          "name": "_fromTokenId",
          "type": "uint256"
        },
        {
          "indexed": false,
          "internalType": "uint256",
          "name": "_toTokenId",
          "type": "uint256"
        }
      ],
      "name": "BatchMetadataUpdate",
      "type": "event"
    },
    {
      "anonymous": false,
      "inputs": [
        {
          "indexed": false,
          "internalType": "uint256",
          "name": "_tokenId",
          "type": "uint256"
        }
      ],
      "name": "MetadataUpdate",
      "type": "event"
    },
    {
      "anonymous": false,
      "inputs": [
        {
          "indexed": true,
          "internalType": "address",
          "name": "previousOwner",
          "type": "address"
        },
        {
          "indexed": true,
          "internalType": "address",
          "name": "newOwner",
          "type": "address"
        }
      ],
      "name": "OwnershipTransferred",
      "type": "event"
    },
    {
      "anonymous": false,
      "inputs": [
        {
          "indexed": true,
          "internalType": "address",
          "name": "from",
          "type": "address"
        },
        {
          "indexed": true,
          "internalType": "address",
          "name": "to",
          "type": "address"
        },
        {
          "indexed": true,
          "internalType": "uint256",
          "name": "tokenId",
          "type": "uint256"
        }
      ],
      "name": "Transfer",
      "type": "event"
    },
    {
      "inputs": [],
      "name": "_mintPrice",
      "outputs": [
        {
          "internalType": "uint256",
          "name": "",
          "type": "uint256"
        }
      ],
      "stateMutability": "view",
      "type": "function"
    },
    {
      "inputs": [
        {
          "internalType": "address",
          "name": "to",
          "type": "address"
        },
        {
          "internalType": "uint256",
          "name": "tokenId",
          "type": "uint256"
        }
      ],
      "name": "approve",
      "outputs": [],
      "stateMutability": "nonpayable",
      "type": "function"
    },
    {
      "inputs": [
        {
          "internalType": "address",
          "name": "owner",
          "type": "address"
        }
      ],
      "name": "balanceOf",
      "outputs": [
        {
          "internalType": "uint256",
          "name": "",
          "type": "uint256"
        }
      ],
      "stateMutability": "view",
      "type": "function"
    },
    {
      "inputs": [],
      "name": "baseExtension",
      "outputs": [
        {
          "internalType": "string",
          "name": "",
          "type": "string"
        }
      ],
      "stateMutability": "view",
      "type": "function"
    },
    {
      "inputs": [],
      "name": "endMint",
      "outputs": [],
      "stateMutability": "nonpayable",
      "type": "function"
    },
    {
      "inputs": [
        {
          "internalType": "uint256",
          "name": "tokenId",
          "type": "uint256"
        }
      ],
      "name": "getApproved",
      "outputs": [
        {
          "internalType": "address",
          "name": "",
          "type": "address"
        }
      ],
      "stateMutability": "view",
      "type": "function"
    },
    {
      "inputs": [
        {
          "internalType": "address",
          "name": "",
          "type": "address"
        }
      ],
      "name": "hasMinted",
      "outputs": [
        {
          "internalType": "bool",
          "name": "",
          "type": "bool"
        }
      ],
      "stateMutability": "view",
      "type": "function"
    },
    {
      "inputs": [
        {
          "internalType": "address",
          "name": "owner",
          "type": "address"
        },
        {
          "internalType": "address",
          "name": "operator",
          "type": "address"
        }
      ],
      "name": "isApprovedForAll",
      "outputs": [
        {
          "internalType": "bool",
          "name": "",
          "type": "bool"
        }
      ],
      "stateMutability": "view",
      "type": "function"
    },
    {
      "inputs": [],
      "name": "isMintable",
      "outputs": [
        {
          "internalType": "bool",
          "name": "",
          "type": "bool"
        }
      ],
      "stateMutability": "view",
      "type": "function"
    },
    {
      "inputs": [
        {
          "internalType": "bytes32[]",
          "name": "proof",
          "type": "bytes32[]"
        }
      ],
      "name": "mint",
      "outputs": [],
      "stateMutability": "payable",
      "type": "function"
    },
    {
      "inputs": [
        {
          "internalType": "address[]",
          "name": "recipients",
          "type": "address[]"
        },
        {
          "internalType": "string",
          "name": "tokenURI",
          "type": "string"
        },
        {
          "internalType": "bool",
          "name": "_dynamic",
          "type": "bool"
        }
      ],
      "name": "mintSpecial",
      "outputs": [],
      "stateMutability": "nonpayable",
      "type": "function"
    },
    {
      "inputs": [],
      "name": "name",
      "outputs": [
        {
          "internalType": "string",
          "name": "",
          "type": "string"
        }
      ],
      "stateMutability": "view",
      "type": "function"
    },
    {
      "inputs": [],
      "name": "owner",
      "outputs": [
        {
          "internalType": "address",
          "name": "",
          "type": "address"
        }
      ],
      "stateMutability": "view",
      "type": "function"
    },
    {
      "inputs": [
        {
          "internalType": "uint256",
          "name": "tokenId",
          "type": "uint256"
        }
      ],
      "name": "ownerOf",
      "outputs": [
        {
          "internalType": "address",
          "name": "",
          "type": "address"
        }
      ],
      "stateMutability": "view",
      "type": "function"
    },
    {
      "inputs": [],
      "name": "renounceOwnership",
      "outputs": [],
      "stateMutability": "nonpayable",
      "type": "function"
    },
    {
      "inputs": [
        {
          "internalType": "address[]",
          "name": "recipients",
          "type": "address[]"
        }
      ],
      "name": "resetHasMinted",
      "outputs": [],
      "stateMutability": "nonpayable",
      "type": "function"
    },
    {
      "inputs": [
        {
          "internalType": "address",
          "name": "from",
          "type": "address"
        },
        {
          "internalType": "address",
          "name": "to",
          "type": "address"
        },
        {
          "internalType": "uint256",
          "name": "tokenId",
          "type": "uint256"
        }
      ],
      "name": "safeTransferFrom",
      "outputs": [],
      "stateMutability": "nonpayable",
      "type": "function"
    },
    {
      "inputs": [
        {
          "internalType": "address",
          "name": "from",
          "type": "address"
        },
        {
          "internalType": "address",
          "name": "to",
          "type": "address"
        },
        {
          "internalType": "uint256",
          "name": "tokenId",
          "type": "uint256"
        },
        {
          "internalType": "bytes",
          "name": "data",
          "type": "bytes"
        }
      ],
      "name": "safeTransferFrom",
      "outputs": [],
      "stateMutability": "nonpayable",
      "type": "function"
    },
    {
      "inputs": [
        {
          "internalType": "address",
          "name": "operator",
          "type": "address"
        },
        {
          "internalType": "bool",
          "name": "approved",
          "type": "bool"
        }
      ],
      "name": "setApprovalForAll",
      "outputs": [],
      "stateMutability": "nonpayable",
      "type": "function"
    },
    {
      "inputs": [
        {
          "internalType": "bytes32",
          "name": "root",
          "type": "bytes32"
        }
      ],
      "name": "setMerkleRoot",
      "outputs": [],
      "stateMutability": "nonpayable",
      "type": "function"
    },
    {
      "inputs": [
        {
          "internalType": "uint256",
          "name": "mintPrice",
          "type": "uint256"
        },
        {
          "internalType": "string",
          "name": "tokenURI",
          "type": "string"
        },
        {
          "internalType": "bytes32",
          "name": "_root",
          "type": "bytes32"
        }
      ],
      "name": "startMint",
      "outputs": [],
      "stateMutability": "nonpayable",
      "type": "function"
    },
    {
      "inputs": [
        {
          "internalType": "bytes4",
          "name": "interfaceId",
          "type": "bytes4"
        }
      ],
      "name": "supportsInterface",
      "outputs": [
        {
          "internalType": "bool",
          "name": "",
          "type": "bool"
        }
      ],
      "stateMutability": "view",
      "type": "function"
    },
    {
      "inputs": [],
      "name": "sweepEth",
      "outputs": [],
      "stateMutability": "nonpayable",
      "type": "function"
    },
    {
      "inputs": [],
      "name": "symbol",
      "outputs": [
        {
          "internalType": "string",
          "name": "",
          "type": "string"
        }
      ],
      "stateMutability": "view",
      "type": "function"
    },
    {
      "inputs": [
        {
          "internalType": "uint256",
          "name": "tokenId",
          "type": "uint256"
        }
      ],
      "name": "tokenURI",
      "outputs": [
        {
          "internalType": "string",
          "name": "",
          "type": "string"
        }
      ],
      "stateMutability": "view",
      "type": "function"
    },
    {
      "inputs": [
        {
          "internalType": "address",
          "name": "from",
          "type": "address"
        },
        {
          "internalType": "address",
          "name": "to",
          "type": "address"
        },
        {
          "internalType": "uint256",
          "name": "tokenId",
          "type": "uint256"
        }
      ],
      "name": "transferFrom",
      "outputs": [],
      "stateMutability": "nonpayable",
      "type": "function"
    },
    {
      "inputs": [
        {
          "internalType": "address",
          "name": "newOwner",
          "type": "address"
        }
      ],
      "name": "transferOwnership",
      "outputs": [],
      "stateMutability": "nonpayable",
      "type": "function"
    }
  ],
  "transactionHash": "0x3f415dd5769d84d75b079ba5934c42c618737e1d0f16fac071440bd87135296c",
  "args": [],
  "numDeployments": 1,
  "solcInputHash": "ec09734ddf1d76ab6b418e9679ff5b3d",
  "bytecode": "0x6007805460ff60a01b191690556708be35a9807f000060085560c06040526005608081905264173539b7b760d91b60a09081526200004191600d919062000129565b503480156200004f57600080fd5b5060408051808201825260078152664154582044414f60c81b602080830191825283518085019094526003845262082a8b60eb1b9084015281519192916200009a9160009162000129565b508051620000b090600190602084019062000129565b505050620000cd620000c7620000d360201b60201c565b620000d7565b6200020c565b3390565b600780546001600160a01b038381166001600160a01b0319831681179093556040519116919082907f8be0079c531659141344cd1fd0a4f28419497f9722a3daafe3b4186f6b6457e090600090a35050565b8280546200013790620001cf565b90600052602060002090601f0160209004810192826200015b5760008555620001a6565b82601f106200017657805160ff1916838001178555620001a6565b82800160010185558215620001a6579182015b82811115620001a657825182559160200191906001019062000189565b50620001b4929150620001b8565b5090565b5b80821115620001b45760008155600101620001b9565b600181811c90821680620001e457607f821691505b602082108114156200020657634e487b7160e01b600052602260045260246000fd5b50919050565b612362806200021c6000396000f3fe60806040526004361061019c5760003560e01c8063715018a6116100ec578063b77a147b1161008a578063c87b56dd11610064578063c87b56dd14610481578063e90fa7b6146104a1578063e985e9c5146104c1578063f2fde38b1461050a57600080fd5b8063b77a147b14610439578063b88d4fde1461044c578063c66828621461046c57600080fd5b806394f3f7ae116100c657806394f3f7ae146103cf57806395d89b41146103ef5780639ac8441414610404578063a22cb4651461041957600080fd5b8063715018a61461037c5780637cb64759146103915780638da5cb5b146103b157600080fd5b806323b872dd1161015957806346b45af71161013357806346b45af7146102fb5780634ab2c5891461031c5780636352211e1461033c57806370a082311461035c57600080fd5b806323b872dd1461028b57806338e21cce146102ab57806342842e0e146102db57600080fd5b8063017043a5146101a157806301ffc9a7146101b85780630387da42146101ed57806306fdde0314610211578063081812fc14610233578063095ea7b31461026b575b600080fd5b3480156101ad57600080fd5b506101b661052a565b005b3480156101c457600080fd5b506101d86101d3366004611b30565b610541565b60405190151581526020015b60405180910390f35b3480156101f957600080fd5b5061020360085481565b6040519081526020016101e4565b34801561021d57600080fd5b5061022661056c565b6040516101e49190611ba5565b34801561023f57600080fd5b5061025361024e366004611bb8565b6105fe565b6040516001600160a01b0390911681526020016101e4565b34801561027757600080fd5b506101b6610286366004611bed565b610625565b34801561029757600080fd5b506101b66102a6366004611c17565b610740565b3480156102b757600080fd5b506101d86102c6366004611c53565b600e6020526000908152604090205460ff1681565b3480156102e757600080fd5b506101b66102f6366004611c17565b610771565b34801561030757600080fd5b506007546101d890600160a01b900460ff1681565b34801561032857600080fd5b506101b6610337366004611d49565b61078c565b34801561034857600080fd5b50610253610357366004611bb8565b610812565b34801561036857600080fd5b50610203610377366004611c53565b610872565b34801561038857600080fd5b506101b66108f8565b34801561039d57600080fd5b506101b66103ac366004611bb8565b61090c565b3480156103bd57600080fd5b506007546001600160a01b0316610253565b3480156103db57600080fd5b506101b66103ea366004611df4565b610919565b3480156103fb57600080fd5b50610226610960565b34801561041057600080fd5b506101b661096f565b34801561042557600080fd5b506101b6610434366004611e53565b6109c2565b6101b6610447366004611e86565b6109cd565b34801561045857600080fd5b506101b6610467366004611f16565b610c51565b34801561047857600080fd5b50610226610c89565b34801561048d57600080fd5b5061022661049c366004611bb8565b610d17565b3480156104ad57600080fd5b506101b66104bc366004611f91565b610e28565b3480156104cd57600080fd5b506101d86104dc366004612004565b6001600160a01b03918216600090815260056020908152604080832093909416825291909152205460ff1690565b34801561051657600080fd5b506101b6610525366004611c53565b610f35565b610532610fae565b6007805460ff60a01b19169055565b60006001600160e01b03198216632483248360e11b1480610566575061056682611008565b92915050565b60606000805461057b9061202e565b80601f01602080910402602001604051908101604052809291908181526020018280546105a79061202e565b80156105f45780601f106105c9576101008083540402835291602001916105f4565b820191906000526020600020905b8154815290600101906020018083116105d757829003601f168201915b5050505050905090565b600061060982611058565b506000908152600460205260409020546001600160a01b031690565b600061063082610812565b9050806001600160a01b0316836001600160a01b031614156106a35760405162461bcd60e51b815260206004820152602160248201527f4552433732313a20617070726f76616c20746f2063757272656e74206f776e656044820152603960f91b60648201526084015b60405180910390fd5b336001600160a01b03821614806106bf57506106bf81336104dc565b6107315760405162461bcd60e51b815260206004820152603d60248201527f4552433732313a20617070726f76652063616c6c6572206973206e6f7420746f60448201527f6b656e206f776e6572206f7220617070726f76656420666f7220616c6c000000606482015260840161069a565b61073b83836110b7565b505050565b61074a3382611125565b6107665760405162461bcd60e51b815260040161069a90612069565b61073b8383836111a3565b61073b83838360405180602001604052806000815250610c51565b610794610fae565b60005b8151816001600160401b0316101561080e576000600e600084846001600160401b0316815181106107ca576107ca6120b6565b6020908102919091018101516001600160a01b03168252810191909152604001600020805460ff191691151591909117905580610806816120e2565b915050610797565b5050565b6000818152600260205260408120546001600160a01b0316806105665760405162461bcd60e51b8152602060048201526018602482015277115490cdcc8c4e881a5b9d985b1a59081d1bdad95b88125160421b604482015260640161069a565b60006001600160a01b0382166108dc5760405162461bcd60e51b815260206004820152602960248201527f4552433732313a2061646472657373207a65726f206973206e6f7420612076616044820152683634b21037bbb732b960b91b606482015260840161069a565b506001600160a01b031660009081526003602052604090205490565b610900610fae565b61090a6000611307565b565b610914610fae565b600b55565b610921610fae565b6007805460ff60a01b1916600160a01b1790556008839055815161094c90600c906020850190611a81565b506109568161090c565b6000600955505050565b60606001805461057b9061202e565b610977610fae565b4761098a6007546001600160a01b031690565b6001600160a01b03166108fc829081150290604051600060405180830381858888f1935050505015801561080e573d6000803e3d6000fd5b61080e338383611359565b600b546040516bffffffffffffffffffffffff193360601b166020820152610a19919060340160405160208183030381529060405280519060200120836114289092919063ffffffff16565b610a585760405162461bcd60e51b815260206004820152601060248201526f4e6f74206f6e20746865206c6973742160801b604482015260640161069a565b600754600160a01b900460ff161515600114610ac95760405162461bcd60e51b815260206004820152602a60248201527f4154582044414f204e4654206973206e6f74206d696e7461626c6520617420746044820152696865206d6f6d656e742160b01b606482015260840161069a565b336000908152600e602052604090205460ff1615610b3b5760405162461bcd60e51b815260206004820152602960248201527f4d696e74696e67206973206f6e6c7920617661696c61626c6520666f72206e6f6044820152686e2d686f6c6465727360b81b606482015260840161069a565b600854341015610b8d5760405162461bcd60e51b815260206004820152601e60248201527f4e6f7420656e6f7567682065746865722073656e7420746f206d696e74210000604482015260640161069a565b333b15610bcc5760405162461bcd60e51b815260206004820152600d60248201526c4e6f20636f6e7472616374732160981b604482015260640161069a565b610bda600a80546001019055565b6000610be5600a5490565b336000818152600e60205260409020805460ff19166001179055909150610c0c908261143e565b610c4381600c610c1b84611458565b600d604051602001610c2f939291906121a3565b6040516020818303038152906040526114f4565b61080e600980546001019055565b610c5b3383611125565b610c775760405162461bcd60e51b815260040161069a90612069565b610c83848484846115c6565b50505050565b600d8054610c969061202e565b80601f0160208091040260200160405190810160405280929190818152602001828054610cc29061202e565b8015610d0f5780601f10610ce457610100808354040283529160200191610d0f565b820191906000526020600020905b815481529060010190602001808311610cf257829003601f168201915b505050505081565b6060610d2282611058565b60008281526006602052604081208054610d3b9061202e565b80601f0160208091040260200160405190810160405280929190818152602001828054610d679061202e565b8015610db45780601f10610d8957610100808354040283529160200191610db4565b820191906000526020600020905b815481529060010190602001808311610d9757829003601f168201915b505050505090506000610dd260408051602081019091526000815290565b9050805160001415610de5575092915050565b815115610e17578082604051602001610dff9291906121cb565b60405160208183030381529060405292505050919050565b610e20846115f9565b949350505050565b610e30610fae565b60005b8351816001600160401b03161015610c8357610e53600a80546001019055565b6000610e5e600a5490565b90506001600e600087856001600160401b031681518110610e8157610e816120b6565b60200260200101516001600160a01b03166001600160a01b0316815260200190815260200160002060006101000a81548160ff021916908315150217905550610eec85836001600160401b031681518110610ede57610ede6120b6565b60200260200101518261143e565b82610f0057610efb81856114f4565b610f22565b610f228185610f0e84611458565b600d604051602001610c2f939291906121fa565b5080610f2d816120e2565b915050610e33565b610f3d610fae565b6001600160a01b038116610fa25760405162461bcd60e51b815260206004820152602660248201527f4f776e61626c653a206e6577206f776e657220697320746865207a65726f206160448201526564647265737360d01b606482015260840161069a565b610fab81611307565b50565b6007546001600160a01b0316331461090a5760405162461bcd60e51b815260206004820181905260248201527f4f776e61626c653a2063616c6c6572206973206e6f7420746865206f776e6572604482015260640161069a565b60006001600160e01b031982166380ac58cd60e01b148061103957506001600160e01b03198216635b5e139f60e01b145b8061056657506301ffc9a760e01b6001600160e01b0319831614610566565b6000818152600260205260409020546001600160a01b0316610fab5760405162461bcd60e51b8152602060048201526018602482015277115490cdcc8c4e881a5b9d985b1a59081d1bdad95b88125160421b604482015260640161069a565b600081815260046020526040902080546001600160a01b0319166001600160a01b03841690811790915581906110ec82610812565b6001600160a01b03167f8c5be1e5ebec7d5bd14f71427d1e84f3dd0314c0f7b2291e5b200ac8c7c3b92560405160405180910390a45050565b60008061113183610812565b9050806001600160a01b0316846001600160a01b0316148061117857506001600160a01b0380821660009081526005602090815260408083209388168352929052205460ff165b80610e205750836001600160a01b0316611191846105fe565b6001600160a01b031614949350505050565b826001600160a01b03166111b682610812565b6001600160a01b0316146111dc5760405162461bcd60e51b815260040161069a90612220565b6001600160a01b03821661123e5760405162461bcd60e51b8152602060048201526024808201527f4552433732313a207472616e7366657220746f20746865207a65726f206164646044820152637265737360e01b606482015260840161069a565b826001600160a01b031661125182610812565b6001600160a01b0316146112775760405162461bcd60e51b815260040161069a90612220565b600081815260046020908152604080832080546001600160a01b03199081169091556001600160a01b0387811680865260038552838620805460001901905590871680865283862080546001019055868652600290945282852080549092168417909155905184937fddf252ad1be2c89b69c2b068fc378daa952ba7f163c4a11628f55a4df523b3ef91a4505050565b600780546001600160a01b038381166001600160a01b0319831681179093556040519116919082907f8be0079c531659141344cd1fd0a4f28419497f9722a3daafe3b4186f6b6457e090600090a35050565b816001600160a01b0316836001600160a01b031614156113bb5760405162461bcd60e51b815260206004820152601960248201527f4552433732313a20617070726f766520746f2063616c6c657200000000000000604482015260640161069a565b6001600160a01b03838116600081815260056020908152604080832094871680845294825291829020805460ff191686151590811790915591519182527f17307eab39ab6107e8899845ad3d59bd9653f200f220920489ca2b5937696c31910160405180910390a3505050565b600082611435858461166d565b14949350505050565b61080e8282604051806020016040528060008152506116b2565b60606000611465836116e5565b60010190506000816001600160401b0381111561148457611484611c6e565b6040519080825280601f01601f1916602001820160405280156114ae576020820181803683370190505b5090508181016020015b600019016f181899199a1a9b1b9c1cb0b131b232b360811b600a86061a8153600a85049450846114e7576114ec565b6114b8565b509392505050565b6000828152600260205260409020546001600160a01b031661156f5760405162461bcd60e51b815260206004820152602e60248201527f45524337323155524953746f726167653a2055524920736574206f66206e6f6e60448201526d32bc34b9ba32b73a103a37b5b2b760911b606482015260840161069a565b6000828152600660209081526040909120825161158e92840190611a81565b506040518281527ff8e1a15aba9398e019f0b49df1a4fde98ee17ae345cb5f6b5e2c27f5033e8ce79060200160405180910390a15050565b6115d18484846111a3565b6115dd848484846117bd565b610c835760405162461bcd60e51b815260040161069a90612265565b606061160482611058565b600061161b60408051602081019091526000815290565b9050600081511161163b5760405180602001604052806000815250611666565b8061164584611458565b6040516020016116569291906121cb565b6040516020818303038152906040525b9392505050565b600081815b84518110156114ec5761169e82868381518110611691576116916120b6565b60200260200101516118ca565b9150806116aa816122b7565b915050611672565b6116bc83836118f6565b6116c960008484846117bd565b61073b5760405162461bcd60e51b815260040161069a90612265565b60008072184f03e93ff9f4daa797ed6e38ed64bf6a1f0160401b83106117245772184f03e93ff9f4daa797ed6e38ed64bf6a1f0160401b830492506040015b6d04ee2d6d415b85acef81000000008310611750576d04ee2d6d415b85acef8100000000830492506020015b662386f26fc10000831061176e57662386f26fc10000830492506010015b6305f5e1008310611786576305f5e100830492506008015b612710831061179a57612710830492506004015b606483106117ac576064830492506002015b600a83106105665760010192915050565b60006001600160a01b0384163b156118bf57604051630a85bd0160e11b81526001600160a01b0385169063150b7a02906118019033908990889088906004016122d2565b602060405180830381600087803b15801561181b57600080fd5b505af192505050801561184b575060408051601f3d908101601f191682019092526118489181019061230f565b60015b6118a5573d808015611879576040519150601f19603f3d011682016040523d82523d6000602084013e61187e565b606091505b50805161189d5760405162461bcd60e51b815260040161069a90612265565b805181602001fd5b6001600160e01b031916630a85bd0160e11b149050610e20565b506001949350505050565b60008183106118e6576000828152602084905260409020611666565b5060009182526020526040902090565b6001600160a01b03821661194c5760405162461bcd60e51b815260206004820181905260248201527f4552433732313a206d696e7420746f20746865207a65726f2061646472657373604482015260640161069a565b6000818152600260205260409020546001600160a01b0316156119b15760405162461bcd60e51b815260206004820152601c60248201527f4552433732313a20746f6b656e20616c7265616479206d696e74656400000000604482015260640161069a565b6000818152600260205260409020546001600160a01b031615611a165760405162461bcd60e51b815260206004820152601c60248201527f4552433732313a20746f6b656e20616c7265616479206d696e74656400000000604482015260640161069a565b6001600160a01b038216600081815260036020908152604080832080546001019055848352600290915280822080546001600160a01b0319168417905551839291907fddf252ad1be2c89b69c2b068fc378daa952ba7f163c4a11628f55a4df523b3ef908290a45050565b828054611a8d9061202e565b90600052602060002090601f016020900481019282611aaf5760008555611af5565b82601f10611ac857805160ff1916838001178555611af5565b82800160010185558215611af5579182015b82811115611af5578251825591602001919060010190611ada565b50611b01929150611b05565b5090565b5b80821115611b015760008155600101611b06565b6001600160e01b031981168114610fab57600080fd5b600060208284031215611b4257600080fd5b813561166681611b1a565b60005b83811015611b68578181015183820152602001611b50565b83811115610c835750506000910152565b60008151808452611b91816020860160208601611b4d565b601f01601f19169290920160200192915050565b6020815260006116666020830184611b79565b600060208284031215611bca57600080fd5b5035919050565b80356001600160a01b0381168114611be857600080fd5b919050565b60008060408385031215611c0057600080fd5b611c0983611bd1565b946020939093013593505050565b600080600060608486031215611c2c57600080fd5b611c3584611bd1565b9250611c4360208501611bd1565b9150604084013590509250925092565b600060208284031215611c6557600080fd5b61166682611bd1565b634e487b7160e01b600052604160045260246000fd5b604051601f8201601f191681016001600160401b0381118282101715611cac57611cac611c6e565b604052919050565b60006001600160401b03821115611ccd57611ccd611c6e565b5060051b60200190565b600082601f830112611ce857600080fd5b81356020611cfd611cf883611cb4565b611c84565b82815260059290921b84018101918181019086841115611d1c57600080fd5b8286015b84811015611d3e57611d3181611bd1565b8352918301918301611d20565b509695505050505050565b600060208284031215611d5b57600080fd5b81356001600160401b03811115611d7157600080fd5b610e2084828501611cd7565b60006001600160401b03831115611d9657611d96611c6e565b611da9601f8401601f1916602001611c84565b9050828152838383011115611dbd57600080fd5b828260208301376000602084830101529392505050565b600082601f830112611de557600080fd5b61166683833560208501611d7d565b600080600060608486031215611e0957600080fd5b8335925060208401356001600160401b03811115611e2657600080fd5b611e3286828701611dd4565b925050604084013590509250925092565b80358015158114611be857600080fd5b60008060408385031215611e6657600080fd5b611e6f83611bd1565b9150611e7d60208401611e43565b90509250929050565b60006020808385031215611e9957600080fd5b82356001600160401b03811115611eaf57600080fd5b8301601f81018513611ec057600080fd5b8035611ece611cf882611cb4565b81815260059190911b82018301908381019087831115611eed57600080fd5b928401925b82841015611f0b57833582529284019290840190611ef2565b979650505050505050565b60008060008060808587031215611f2c57600080fd5b611f3585611bd1565b9350611f4360208601611bd1565b92506040850135915060608501356001600160401b03811115611f6557600080fd5b8501601f81018713611f7657600080fd5b611f8587823560208401611d7d565b91505092959194509250565b600080600060608486031215611fa657600080fd5b83356001600160401b0380821115611fbd57600080fd5b611fc987838801611cd7565b94506020860135915080821115611fdf57600080fd5b50611fec86828701611dd4565b925050611ffb60408501611e43565b90509250925092565b6000806040838503121561201757600080fd5b61202083611bd1565b9150611e7d60208401611bd1565b600181811c9082168061204257607f821691505b6020821081141561206357634e487b7160e01b600052602260045260246000fd5b50919050565b6020808252602d908201527f4552433732313a2063616c6c6572206973206e6f7420746f6b656e206f776e6560408201526c1c881bdc88185c1c1c9bdd9959609a1b606082015260800190565b634e487b7160e01b600052603260045260246000fd5b634e487b7160e01b600052601160045260246000fd5b60006001600160401b03808316818114156120ff576120ff6120cc565b6001019392505050565b8054600090600181811c908083168061212357607f831692505b602080841082141561214557634e487b7160e01b600052602260045260246000fd5b818015612159576001811461216a57612197565b60ff19861689528489019650612197565b60008881526020902060005b8681101561218f5781548b820152908501908301612176565b505084890196505b50505050505092915050565b60006121af8286612109565b84516121bf818360208901611b4d565b611f0b81830186612109565b600083516121dd818460208801611b4d565b8351908301906121f1818360208801611b4d565b01949350505050565b6000845161220c818460208901611b4d565b8451908301906121bf818360208901611b4d565b60208082526025908201527f4552433732313a207472616e736665722066726f6d20696e636f72726563742060408201526437bbb732b960d91b606082015260800190565b60208082526032908201527f4552433732313a207472616e7366657220746f206e6f6e20455243373231526560408201527131b2b4bb32b91034b6b83632b6b2b73a32b960711b606082015260800190565b60006000198214156122cb576122cb6120cc565b5060010190565b6001600160a01b038581168252841660208201526040810183905260806060820181905260009061230590830184611b79565b9695505050505050565b60006020828403121561232157600080fd5b815161166681611b1a56fea264697066735822122028d8c18dde070675408375bd4c7c5f6d0a4d7e74a783008ddb803443ff174b3964736f6c63430008090033",
  "libraries": {},
  "devdoc": {
    "kind": "dev",
    "methods": {
      "approve(address,uint256)": {
        "details": "See {IERC721-approve}."
      },
      "balanceOf(address)": {
        "details": "See {IERC721-balanceOf}."
      },
      "getApproved(uint256)": {
        "details": "See {IERC721-getApproved}."
      },
      "isApprovedForAll(address,address)": {
        "details": "See {IERC721-isApprovedForAll}."
      },
      "name()": {
        "details": "See {IERC721Metadata-name}."
      },
      "owner()": {
        "details": "Returns the address of the current owner."
      },
      "ownerOf(uint256)": {
        "details": "See {IERC721-ownerOf}."
      },
      "renounceOwnership()": {
        "details": "Leaves the contract without owner. It will not be possible to call `onlyOwner` functions. Can only be called by the current owner. NOTE: Renouncing ownership will leave the contract without an owner, thereby disabling any functionality that is only available to the owner."
      },
      "safeTransferFrom(address,address,uint256)": {
        "details": "See {IERC721-safeTransferFrom}."
      },
      "safeTransferFrom(address,address,uint256,bytes)": {
        "details": "See {IERC721-safeTransferFrom}."
      },
      "setApprovalForAll(address,bool)": {
        "details": "See {IERC721-setApprovalForAll}."
      },
      "supportsInterface(bytes4)": {
        "details": "See {IERC165-supportsInterface}"
      },
      "symbol()": {
        "details": "See {IERC721Metadata-symbol}."
      },
      "tokenURI(uint256)": {
        "details": "See {IERC721Metadata-tokenURI}."
      },
      "transferFrom(address,address,uint256)": {
        "details": "See {IERC721-transferFrom}."
      },
      "transferOwnership(address)": {
        "details": "Transfers ownership of the contract to a new account (`newOwner`). Can only be called by the current owner."
      }
    },
    "version": 1
  },
  "userdoc": {
    "kind": "user",
    "methods": {},
    "version": 1
  },
  "storageLayout": {
    "storage": [
      {
        "astId": 166,
        "contract": "contracts/ATXDAONFT_V2.sol:ATXDAONFT_V2",
        "label": "_name",
        "offset": 0,
        "slot": "0",
        "type": "t_string_storage"
      },
      {
        "astId": 168,
        "contract": "contracts/ATXDAONFT_V2.sol:ATXDAONFT_V2",
        "label": "_symbol",
        "offset": 0,
        "slot": "1",
        "type": "t_string_storage"
      },
      {
        "astId": 172,
        "contract": "contracts/ATXDAONFT_V2.sol:ATXDAONFT_V2",
        "label": "_owners",
        "offset": 0,
        "slot": "2",
        "type": "t_mapping(t_uint256,t_address)"
      },
      {
        "astId": 176,
        "contract": "contracts/ATXDAONFT_V2.sol:ATXDAONFT_V2",
        "label": "_balances",
        "offset": 0,
        "slot": "3",
        "type": "t_mapping(t_address,t_uint256)"
      },
      {
        "astId": 180,
        "contract": "contracts/ATXDAONFT_V2.sol:ATXDAONFT_V2",
        "label": "_tokenApprovals",
        "offset": 0,
        "slot": "4",
        "type": "t_mapping(t_uint256,t_address)"
      },
      {
        "astId": 186,
        "contract": "contracts/ATXDAONFT_V2.sol:ATXDAONFT_V2",
        "label": "_operatorApprovals",
        "offset": 0,
        "slot": "5",
        "type": "t_mapping(t_address,t_mapping(t_address,t_bool))"
      },
      {
        "astId": 1571,
        "contract": "contracts/ATXDAONFT_V2.sol:ATXDAONFT_V2",
        "label": "_tokenURIs",
        "offset": 0,
        "slot": "6",
        "type": "t_mapping(t_uint256,t_string_storage)"
      },
      {
        "astId": 7,
        "contract": "contracts/ATXDAONFT_V2.sol:ATXDAONFT_V2",
        "label": "_owner",
        "offset": 0,
        "slot": "7",
        "type": "t_address"
      },
      {
        "astId": 4894,
        "contract": "contracts/ATXDAONFT_V2.sol:ATXDAONFT_V2",
        "label": "isMintable",
        "offset": 20,
        "slot": "7",
        "type": "t_bool"
      },
      {
        "astId": 4897,
        "contract": "contracts/ATXDAONFT_V2.sol:ATXDAONFT_V2",
        "label": "_mintPrice",
        "offset": 0,
        "slot": "8",
        "type": "t_uint256"
      },
      {
        "astId": 4900,
        "contract": "contracts/ATXDAONFT_V2.sol:ATXDAONFT_V2",
        "label": "_mintCount",
        "offset": 0,
        "slot": "9",
        "type": "t_struct(Counter)2127_storage"
      },
      {
        "astId": 4903,
        "contract": "contracts/ATXDAONFT_V2.sol:ATXDAONFT_V2",
        "label": "_tokenIds",
        "offset": 0,
        "slot": "10",
        "type": "t_struct(Counter)2127_storage"
      },
      {
        "astId": 4905,
        "contract": "contracts/ATXDAONFT_V2.sol:ATXDAONFT_V2",
        "label": "merkleRoot",
        "offset": 0,
        "slot": "11",
        "type": "t_bytes32"
      },
      {
        "astId": 4907,
        "contract": "contracts/ATXDAONFT_V2.sol:ATXDAONFT_V2",
        "label": "baseURI",
        "offset": 0,
        "slot": "12",
        "type": "t_string_storage"
      },
      {
        "astId": 4910,
        "contract": "contracts/ATXDAONFT_V2.sol:ATXDAONFT_V2",
        "label": "baseExtension",
        "offset": 0,
        "slot": "13",
        "type": "t_string_storage"
      },
      {
        "astId": 4914,
        "contract": "contracts/ATXDAONFT_V2.sol:ATXDAONFT_V2",
        "label": "hasMinted",
        "offset": 0,
        "slot": "14",
        "type": "t_mapping(t_address,t_bool)"
      }
    ],
    "types": {
      "t_address": {
        "encoding": "inplace",
        "label": "address",
        "numberOfBytes": "20"
      },
      "t_bool": {
        "encoding": "inplace",
        "label": "bool",
        "numberOfBytes": "1"
      },
      "t_bytes32": {
        "encoding": "inplace",
        "label": "bytes32",
        "numberOfBytes": "32"
      },
      "t_mapping(t_address,t_bool)": {
        "encoding": "mapping",
        "key": "t_address",
        "label": "mapping(address => bool)",
        "numberOfBytes": "32",
        "value": "t_bool"
      },
      "t_mapping(t_address,t_mapping(t_address,t_bool))": {
        "encoding": "mapping",
        "key": "t_address",
        "label": "mapping(address => mapping(address => bool))",
        "numberOfBytes": "32",
        "value": "t_mapping(t_address,t_bool)"
      },
      "t_mapping(t_address,t_uint256)": {
        "encoding": "mapping",
        "key": "t_address",
        "label": "mapping(address => uint256)",
        "numberOfBytes": "32",
        "value": "t_uint256"
      },
      "t_mapping(t_uint256,t_address)": {
        "encoding": "mapping",
        "key": "t_uint256",
        "label": "mapping(uint256 => address)",
        "numberOfBytes": "32",
        "value": "t_address"
      },
      "t_mapping(t_uint256,t_string_storage)": {
        "encoding": "mapping",
        "key": "t_uint256",
        "label": "mapping(uint256 => string)",
        "numberOfBytes": "32",
        "value": "t_string_storage"
      },
      "t_string_storage": {
        "encoding": "bytes",
        "label": "string",
        "numberOfBytes": "32"
      },
      "t_struct(Counter)2127_storage": {
        "encoding": "inplace",
        "label": "struct Counters.Counter",
        "members": [
          {
            "astId": 2126,
            "contract": "contracts/ATXDAONFT_V2.sol:ATXDAONFT_V2",
            "label": "_value",
            "offset": 0,
            "slot": "0",
            "type": "t_uint256"
          }
        ],
        "numberOfBytes": "32"
      },
      "t_uint256": {
        "encoding": "inplace",
        "label": "uint256",
        "numberOfBytes": "32"
      }
    }
  }
}