{
  "address": "0x683d067d5cA4158271A6c79BBaFDDb05a698D2b4",
  "abi": [
    {
      "inputs": [],
      "stateMutability": "nonpayable",
      "type": "constructor"
    },
    {
      "anonymous": false,
      "inputs": [
        {
          "indexed": true,
          "internalType": "address",
          "name": "owner",
          "type": "address"
        },
        {
          "indexed": true,
          "internalType": "address",
          "name": "approved",
          "type": "address"
        },
        {
          "indexed": true,
          "internalType": "uint256",
          "name": "tokenId",
          "type": "uint256"
        }
      ],
      "name": "Approval",
      "type": "event"
    },
    {
      "anonymous": false,
      "inputs": [
        {
          "indexed": true,
          "internalType": "address",
          "name": "owner",
          "type": "address"
        },
        {
          "indexed": true,
          "internalType": "address",
          "name": "operator",
          "type": "address"
        },
        {
          "indexed": false,
          "internalType": "bool",
          "name": "approved",
          "type": "bool"
        }
      ],
      "name": "ApprovalForAll",
      "type": "event"
    },
    {
      "anonymous": false,
      "inputs": [
        {
          "indexed": true,
          "internalType": "address",
          "name": "previousOwner",
          "type": "address"
        },
        {
          "indexed": true,
          "internalType": "address",
          "name": "newOwner",
          "type": "address"
        }
      ],
      "name": "OwnershipTransferred",
      "type": "event"
    },
    {
      "anonymous": false,
      "inputs": [
        {
          "indexed": true,
          "internalType": "address",
          "name": "from",
          "type": "address"
        },
        {
          "indexed": true,
          "internalType": "address",
          "name": "to",
          "type": "address"
        },
        {
          "indexed": true,
          "internalType": "uint256",
          "name": "tokenId",
          "type": "uint256"
        }
      ],
      "name": "Transfer",
      "type": "event"
    },
    {
      "inputs": [],
      "name": "_mintPrice",
      "outputs": [
        {
          "internalType": "uint256",
          "name": "",
          "type": "uint256"
        }
      ],
      "stateMutability": "view",
      "type": "function"
    },
    {
      "inputs": [
        {
          "internalType": "address",
          "name": "to",
          "type": "address"
        },
        {
          "internalType": "uint256",
          "name": "tokenId",
          "type": "uint256"
        }
      ],
      "name": "approve",
      "outputs": [],
      "stateMutability": "nonpayable",
      "type": "function"
    },
    {
      "inputs": [
        {
          "internalType": "address",
          "name": "owner",
          "type": "address"
        }
      ],
      "name": "balanceOf",
      "outputs": [
        {
          "internalType": "uint256",
          "name": "",
          "type": "uint256"
        }
      ],
      "stateMutability": "view",
      "type": "function"
    },
    {
      "inputs": [],
      "name": "baseExtension",
      "outputs": [
        {
          "internalType": "string",
          "name": "",
          "type": "string"
        }
      ],
      "stateMutability": "view",
      "type": "function"
    },
    {
      "inputs": [],
      "name": "endMint",
      "outputs": [],
      "stateMutability": "nonpayable",
      "type": "function"
    },
    {
      "inputs": [
        {
          "internalType": "uint256",
          "name": "tokenId",
          "type": "uint256"
        }
      ],
      "name": "getApproved",
      "outputs": [
        {
          "internalType": "address",
          "name": "",
          "type": "address"
        }
      ],
      "stateMutability": "view",
      "type": "function"
    },
    {
      "inputs": [
        {
          "internalType": "address",
          "name": "",
          "type": "address"
        }
      ],
      "name": "hasMinted",
      "outputs": [
        {
          "internalType": "bool",
          "name": "",
          "type": "bool"
        }
      ],
      "stateMutability": "view",
      "type": "function"
    },
    {
      "inputs": [
        {
          "internalType": "address",
          "name": "owner",
          "type": "address"
        },
        {
          "internalType": "address",
          "name": "operator",
          "type": "address"
        }
      ],
      "name": "isApprovedForAll",
      "outputs": [
        {
          "internalType": "bool",
          "name": "",
          "type": "bool"
        }
      ],
      "stateMutability": "view",
      "type": "function"
    },
    {
      "inputs": [],
      "name": "isMintable",
      "outputs": [
        {
          "internalType": "bool",
          "name": "",
          "type": "bool"
        }
      ],
      "stateMutability": "view",
      "type": "function"
    },
    {
      "inputs": [
        {
          "internalType": "bytes32[]",
          "name": "proof",
          "type": "bytes32[]"
        }
      ],
      "name": "mint",
      "outputs": [],
      "stateMutability": "payable",
      "type": "function"
    },
    {
      "inputs": [
        {
          "internalType": "address[]",
          "name": "recipients",
          "type": "address[]"
        },
        {
          "internalType": "string",
          "name": "tokenURI",
          "type": "string"
        },
        {
          "internalType": "bool",
          "name": "_dynamic",
          "type": "bool"
        }
      ],
      "name": "mintSpecial",
      "outputs": [],
      "stateMutability": "nonpayable",
      "type": "function"
    },
    {
      "inputs": [],
      "name": "name",
      "outputs": [
        {
          "internalType": "string",
          "name": "",
          "type": "string"
        }
      ],
      "stateMutability": "view",
      "type": "function"
    },
    {
      "inputs": [],
      "name": "owner",
      "outputs": [
        {
          "internalType": "address",
          "name": "",
          "type": "address"
        }
      ],
      "stateMutability": "view",
      "type": "function"
    },
    {
      "inputs": [
        {
          "internalType": "uint256",
          "name": "tokenId",
          "type": "uint256"
        }
      ],
      "name": "ownerOf",
      "outputs": [
        {
          "internalType": "address",
          "name": "",
          "type": "address"
        }
      ],
      "stateMutability": "view",
      "type": "function"
    },
    {
      "inputs": [],
      "name": "renounceOwnership",
      "outputs": [],
      "stateMutability": "nonpayable",
      "type": "function"
    },
    {
      "inputs": [
        {
          "internalType": "address[]",
          "name": "recipients",
          "type": "address[]"
        }
      ],
      "name": "resetHasMinted",
      "outputs": [],
      "stateMutability": "nonpayable",
      "type": "function"
    },
    {
      "inputs": [
        {
          "internalType": "address",
          "name": "from",
          "type": "address"
        },
        {
          "internalType": "address",
          "name": "to",
          "type": "address"
        },
        {
          "internalType": "uint256",
          "name": "tokenId",
          "type": "uint256"
        }
      ],
      "name": "safeTransferFrom",
      "outputs": [],
      "stateMutability": "nonpayable",
      "type": "function"
    },
    {
      "inputs": [
        {
          "internalType": "address",
          "name": "from",
          "type": "address"
        },
        {
          "internalType": "address",
          "name": "to",
          "type": "address"
        },
        {
          "internalType": "uint256",
          "name": "tokenId",
          "type": "uint256"
        },
        {
          "internalType": "bytes",
          "name": "_data",
          "type": "bytes"
        }
      ],
      "name": "safeTransferFrom",
      "outputs": [],
      "stateMutability": "nonpayable",
      "type": "function"
    },
    {
      "inputs": [
        {
          "internalType": "address",
          "name": "operator",
          "type": "address"
        },
        {
          "internalType": "bool",
          "name": "approved",
          "type": "bool"
        }
      ],
      "name": "setApprovalForAll",
      "outputs": [],
      "stateMutability": "nonpayable",
      "type": "function"
    },
    {
      "inputs": [
        {
          "internalType": "bytes32",
          "name": "root",
          "type": "bytes32"
        }
      ],
      "name": "setMerkleRoot",
      "outputs": [],
      "stateMutability": "nonpayable",
      "type": "function"
    },
    {
      "inputs": [
        {
          "internalType": "uint256",
          "name": "mintPrice",
          "type": "uint256"
        },
        {
          "internalType": "string",
          "name": "tokenURI",
          "type": "string"
        },
        {
          "internalType": "bytes32",
          "name": "_root",
          "type": "bytes32"
        }
      ],
      "name": "startMint",
      "outputs": [],
      "stateMutability": "nonpayable",
      "type": "function"
    },
    {
      "inputs": [
        {
          "internalType": "bytes4",
          "name": "interfaceId",
          "type": "bytes4"
        }
      ],
      "name": "supportsInterface",
      "outputs": [
        {
          "internalType": "bool",
          "name": "",
          "type": "bool"
        }
      ],
      "stateMutability": "view",
      "type": "function"
    },
    {
      "inputs": [],
      "name": "sweepEth",
      "outputs": [],
      "stateMutability": "nonpayable",
      "type": "function"
    },
    {
      "inputs": [],
      "name": "symbol",
      "outputs": [
        {
          "internalType": "string",
          "name": "",
          "type": "string"
        }
      ],
      "stateMutability": "view",
      "type": "function"
    },
    {
      "inputs": [
        {
          "internalType": "uint256",
          "name": "tokenId",
          "type": "uint256"
        }
      ],
      "name": "tokenURI",
      "outputs": [
        {
          "internalType": "string",
          "name": "",
          "type": "string"
        }
      ],
      "stateMutability": "view",
      "type": "function"
    },
    {
      "inputs": [
        {
          "internalType": "address",
          "name": "from",
          "type": "address"
        },
        {
          "internalType": "address",
          "name": "to",
          "type": "address"
        },
        {
          "internalType": "uint256",
          "name": "tokenId",
          "type": "uint256"
        }
      ],
      "name": "transferFrom",
      "outputs": [],
      "stateMutability": "nonpayable",
      "type": "function"
    },
    {
      "inputs": [
        {
          "internalType": "address",
          "name": "newOwner",
          "type": "address"
        }
      ],
      "name": "transferOwnership",
      "outputs": [],
      "stateMutability": "nonpayable",
      "type": "function"
    }
  ],
  "transactionHash": "0xd95934f5a1146afda73c2723a028c5f2dde4c1883c9809f493b277c7f0b37ace",
  "args": [],
  "numDeployments": 1,
  "solcInputHash": "6dca8348cbdab04edc3d30e0f2c07c76",
  "bytecode": "0x6007805460ff60a01b191690556708be35a9807f000060085560c06040526005608081905264173539b7b760d91b60a09081526200004191600d919062000129565b503480156200004f57600080fd5b5060408051808201825260078152664154582044414f60c81b602080830191825283518085019094526003845262082a8b60eb1b9084015281519192916200009a9160009162000129565b508051620000b090600190602084019062000129565b505050620000cd620000c7620000d360201b60201c565b620000d7565b6200020c565b3390565b600780546001600160a01b038381166001600160a01b0319831681179093556040519116919082907f8be0079c531659141344cd1fd0a4f28419497f9722a3daafe3b4186f6b6457e090600090a35050565b8280546200013790620001cf565b90600052602060002090601f0160209004810192826200015b5760008555620001a6565b82601f106200017657805160ff1916838001178555620001a6565b82800160010185558215620001a6579182015b82811115620001a657825182559160200191906001019062000189565b50620001b4929150620001b8565b5090565b5b80821115620001b45760008155600101620001b9565b600181811c90821680620001e457607f821691505b602082108114156200020657634e487b7160e01b600052602260045260246000fd5b50919050565b61251e806200021c6000396000f3fe60806040526004361061019c5760003560e01c8063715018a6116100ec578063b77a147b1161008a578063c87b56dd11610064578063c87b56dd14610481578063e90fa7b6146104a1578063e985e9c5146104c1578063f2fde38b1461050a57600080fd5b8063b77a147b14610439578063b88d4fde1461044c578063c66828621461046c57600080fd5b806394f3f7ae116100c657806394f3f7ae146103cf57806395d89b41146103ef5780639ac8441414610404578063a22cb4651461041957600080fd5b8063715018a61461037c5780637cb64759146103915780638da5cb5b146103b157600080fd5b806323b872dd1161015957806346b45af71161013357806346b45af7146102fb5780634ab2c5891461031c5780636352211e1461033c57806370a082311461035c57600080fd5b806323b872dd1461028b57806338e21cce146102ab57806342842e0e146102db57600080fd5b8063017043a5146101a157806301ffc9a7146101b85780630387da42146101ed57806306fdde0314610211578063081812fc14610233578063095ea7b31461026b575b600080fd5b3480156101ad57600080fd5b506101b661052a565b005b3480156101c457600080fd5b506101d86101d3366004611c8b565b61056c565b60405190151581526020015b60405180910390f35b3480156101f957600080fd5b5061020360085481565b6040519081526020016101e4565b34801561021d57600080fd5b506102266105be565b6040516101e49190611d00565b34801561023f57600080fd5b5061025361024e366004611d13565b610650565b6040516001600160a01b0390911681526020016101e4565b34801561027757600080fd5b506101b6610286366004611d48565b6106d8565b34801561029757600080fd5b506101b66102a6366004611d72565b6107ee565b3480156102b757600080fd5b506101d86102c6366004611dae565b600e6020526000908152604090205460ff1681565b3480156102e757600080fd5b506101b66102f6366004611d72565b61081f565b34801561030757600080fd5b506007546101d890600160a01b900460ff1681565b34801561032857600080fd5b506101b6610337366004611ea4565b61083a565b34801561034857600080fd5b50610253610357366004611d13565b6108e2565b34801561036857600080fd5b50610203610377366004611dae565b610959565b34801561038857600080fd5b506101b66109e0565b34801561039d57600080fd5b506101b66103ac366004611d13565b610a16565b3480156103bd57600080fd5b506007546001600160a01b0316610253565b3480156103db57600080fd5b506101b66103ea366004611f4f565b610a45565b3480156103fb57600080fd5b50610226610aae565b34801561041057600080fd5b506101b6610abd565b34801561042557600080fd5b506101b6610434366004611fae565b610b32565b6101b6610447366004611fe1565b610b3d565b34801561045857600080fd5b506101b6610467366004612071565b610dc1565b34801561047857600080fd5b50610226610df9565b34801561048d57600080fd5b5061022661049c366004611d13565b610e87565b3480156104ad57600080fd5b506101b66104bc3660046120ec565b610ffe565b3480156104cd57600080fd5b506101d86104dc36600461215f565b6001600160a01b03918216600090815260056020908152604080832093909416825291909152205460ff1690565b34801561051657600080fd5b506101b6610525366004611dae565b61112d565b6007546001600160a01b0316331461055d5760405162461bcd60e51b815260040161055490612189565b60405180910390fd5b6007805460ff60a01b19169055565b60006001600160e01b031982166380ac58cd60e01b148061059d57506001600160e01b03198216635b5e139f60e01b145b806105b857506301ffc9a760e01b6001600160e01b03198316145b92915050565b6060600080546105cd906121be565b80601f01602080910402602001604051908101604052809291908181526020018280546105f9906121be565b80156106465780601f1061061b57610100808354040283529160200191610646565b820191906000526020600020905b81548152906001019060200180831161062957829003601f168201915b5050505050905090565b600061065b826111c8565b6106bc5760405162461bcd60e51b815260206004820152602c60248201527f4552433732313a20617070726f76656420717565727920666f72206e6f6e657860448201526b34b9ba32b73a103a37b5b2b760a11b6064820152608401610554565b506000908152600460205260409020546001600160a01b031690565b60006106e3826108e2565b9050806001600160a01b0316836001600160a01b031614156107515760405162461bcd60e51b815260206004820152602160248201527f4552433732313a20617070726f76616c20746f2063757272656e74206f776e656044820152603960f91b6064820152608401610554565b336001600160a01b038216148061076d575061076d81336104dc565b6107df5760405162461bcd60e51b815260206004820152603860248201527f4552433732313a20617070726f76652063616c6c6572206973206e6f74206f7760448201527f6e6572206e6f7220617070726f76656420666f7220616c6c00000000000000006064820152608401610554565b6107e983836111e5565b505050565b6107f83382611253565b6108145760405162461bcd60e51b8152600401610554906121f9565b6107e9838383611339565b6107e983838360405180602001604052806000815250610dc1565b6007546001600160a01b031633146108645760405162461bcd60e51b815260040161055490612189565b60005b8151816001600160401b031610156108de576000600e600084846001600160401b03168151811061089a5761089a61224a565b6020908102919091018101516001600160a01b03168252810191909152604001600020805460ff1916911515919091179055806108d681612276565b915050610867565b5050565b6000818152600260205260408120546001600160a01b0316806105b85760405162461bcd60e51b815260206004820152602960248201527f4552433732313a206f776e657220717565727920666f72206e6f6e657869737460448201526832b73a103a37b5b2b760b91b6064820152608401610554565b60006001600160a01b0382166109c45760405162461bcd60e51b815260206004820152602a60248201527f4552433732313a2062616c616e636520717565727920666f7220746865207a65604482015269726f206164647265737360b01b6064820152608401610554565b506001600160a01b031660009081526003602052604090205490565b6007546001600160a01b03163314610a0a5760405162461bcd60e51b815260040161055490612189565b610a1460006114d9565b565b6007546001600160a01b03163314610a405760405162461bcd60e51b815260040161055490612189565b600b55565b6007546001600160a01b03163314610a6f5760405162461bcd60e51b815260040161055490612189565b6007805460ff60a01b1916600160a01b17905560088390558151610a9a90600c906020850190611bdc565b50610aa481610a16565b6000600955505050565b6060600180546105cd906121be565b6007546001600160a01b03163314610ae75760405162461bcd60e51b815260040161055490612189565b47610afa6007546001600160a01b031690565b6001600160a01b03166108fc829081150290604051600060405180830381858888f193505050501580156108de573d6000803e3d6000fd5b6108de33838361152b565b600b546040516bffffffffffffffffffffffff193360601b166020820152610b89919060340160405160208183030381529060405280519060200120836115fa9092919063ffffffff16565b610bc85760405162461bcd60e51b815260206004820152601060248201526f4e6f74206f6e20746865206c6973742160801b6044820152606401610554565b600754600160a01b900460ff161515600114610c395760405162461bcd60e51b815260206004820152602a60248201527f4154582044414f204e4654206973206e6f74206d696e7461626c6520617420746044820152696865206d6f6d656e742160b01b6064820152608401610554565b336000908152600e602052604090205460ff1615610cab5760405162461bcd60e51b815260206004820152602960248201527f4d696e74696e67206973206f6e6c7920617661696c61626c6520666f72206e6f6044820152686e2d686f6c6465727360b81b6064820152608401610554565b600854341015610cfd5760405162461bcd60e51b815260206004820152601e60248201527f4e6f7420656e6f7567682065746865722073656e7420746f206d696e742100006044820152606401610554565b333b15610d3c5760405162461bcd60e51b815260206004820152600d60248201526c4e6f20636f6e7472616374732160981b6044820152606401610554565b610d4a600a80546001019055565b6000610d55600a5490565b336000818152600e60205260409020805460ff19166001179055909150610d7c9082611610565b610db381600c610d8b8461162a565b600d604051602001610d9f93929190612337565b604051602081830303815290604052611727565b6108de600980546001019055565b610dcb3383611253565b610de75760405162461bcd60e51b8152600401610554906121f9565b610df3848484846117b2565b50505050565b600d8054610e06906121be565b80601f0160208091040260200160405190810160405280929190818152602001828054610e32906121be565b8015610e7f5780601f10610e5457610100808354040283529160200191610e7f565b820191906000526020600020905b815481529060010190602001808311610e6257829003601f168201915b505050505081565b6060610e92826111c8565b610ef85760405162461bcd60e51b815260206004820152603160248201527f45524337323155524953746f726167653a2055524920717565727920666f72206044820152703737b732bc34b9ba32b73a103a37b5b2b760791b6064820152608401610554565b60008281526006602052604081208054610f11906121be565b80601f0160208091040260200160405190810160405280929190818152602001828054610f3d906121be565b8015610f8a5780601f10610f5f57610100808354040283529160200191610f8a565b820191906000526020600020905b815481529060010190602001808311610f6d57829003601f168201915b505050505090506000610fa860408051602081019091526000815290565b9050805160001415610fbb575092915050565b815115610fed578082604051602001610fd592919061235f565b60405160208183030381529060405292505050919050565b610ff6846117e5565b949350505050565b6007546001600160a01b031633146110285760405162461bcd60e51b815260040161055490612189565b60005b8351816001600160401b03161015610df35761104b600a80546001019055565b6000611056600a5490565b90506001600e600087856001600160401b0316815181106110795761107961224a565b60200260200101516001600160a01b03166001600160a01b0316815260200190815260200160002060006101000a81548160ff0219169083151502179055506110e485836001600160401b0316815181106110d6576110d661224a565b602002602001015182611610565b826110f8576110f38185611727565b61111a565b61111a81856111068461162a565b600d604051602001610d9f9392919061238e565b508061112581612276565b91505061102b565b6007546001600160a01b031633146111575760405162461bcd60e51b815260040161055490612189565b6001600160a01b0381166111bc5760405162461bcd60e51b815260206004820152602660248201527f4f776e61626c653a206e6577206f776e657220697320746865207a65726f206160448201526564647265737360d01b6064820152608401610554565b6111c5816114d9565b50565b6000908152600260205260409020546001600160a01b0316151590565b600081815260046020526040902080546001600160a01b0319166001600160a01b038416908117909155819061121a826108e2565b6001600160a01b03167f8c5be1e5ebec7d5bd14f71427d1e84f3dd0314c0f7b2291e5b200ac8c7c3b92560405160405180910390a45050565b600061125e826111c8565b6112bf5760405162461bcd60e51b815260206004820152602c60248201527f4552433732313a206f70657261746f7220717565727920666f72206e6f6e657860448201526b34b9ba32b73a103a37b5b2b760a11b6064820152608401610554565b60006112ca836108e2565b9050806001600160a01b0316846001600160a01b031614806113055750836001600160a01b03166112fa84610650565b6001600160a01b0316145b80610ff657506001600160a01b0380821660009081526005602090815260408083209388168352929052205460ff16610ff6565b826001600160a01b031661134c826108e2565b6001600160a01b0316146113b45760405162461bcd60e51b815260206004820152602960248201527f4552433732313a207472616e73666572206f6620746f6b656e2074686174206960448201526839903737ba1037bbb760b91b6064820152608401610554565b6001600160a01b0382166114165760405162461bcd60e51b8152602060048201526024808201527f4552433732313a207472616e7366657220746f20746865207a65726f206164646044820152637265737360e01b6064820152608401610554565b6114216000826111e5565b6001600160a01b038316600090815260036020526040812080546001929061144a9084906123b4565b90915550506001600160a01b03821660009081526003602052604081208054600192906114789084906123cb565b909155505060008181526002602052604080822080546001600160a01b0319166001600160a01b0386811691821790925591518493918716917fddf252ad1be2c89b69c2b068fc378daa952ba7f163c4a11628f55a4df523b3ef91a4505050565b600780546001600160a01b038381166001600160a01b0319831681179093556040519116919082907f8be0079c531659141344cd1fd0a4f28419497f9722a3daafe3b4186f6b6457e090600090a35050565b816001600160a01b0316836001600160a01b0316141561158d5760405162461bcd60e51b815260206004820152601960248201527f4552433732313a20617070726f766520746f2063616c6c6572000000000000006044820152606401610554565b6001600160a01b03838116600081815260056020908152604080832094871680845294825291829020805460ff191686151590811790915591519182527f17307eab39ab6107e8899845ad3d59bd9653f200f220920489ca2b5937696c31910160405180910390a3505050565b60008261160785846118bd565b14949350505050565b6108de828260405180602001604052806000815250611969565b60608161164e5750506040805180820190915260018152600360fc1b602082015290565b8160005b81156116785780611662816123e3565b91506116719050600a83612414565b9150611652565b6000816001600160401b0381111561169257611692611dc9565b6040519080825280601f01601f1916602001820160405280156116bc576020820181803683370190505b5090505b8415610ff6576116d16001836123b4565b91506116de600a86612428565b6116e99060306123cb565b60f81b8183815181106116fe576116fe61224a565b60200101906001600160f81b031916908160001a905350611720600a86612414565b94506116c0565b611730826111c8565b6117935760405162461bcd60e51b815260206004820152602e60248201527f45524337323155524953746f726167653a2055524920736574206f66206e6f6e60448201526d32bc34b9ba32b73a103a37b5b2b760911b6064820152608401610554565b600082815260066020908152604090912082516107e992840190611bdc565b6117bd848484611339565b6117c98484848461199c565b610df35760405162461bcd60e51b81526004016105549061243c565b60606117f0826111c8565b6118545760405162461bcd60e51b815260206004820152602f60248201527f4552433732314d657461646174613a2055524920717565727920666f72206e6f60448201526e3732bc34b9ba32b73a103a37b5b2b760891b6064820152608401610554565b600061186b60408051602081019091526000815290565b9050600081511161188b57604051806020016040528060008152506118b6565b806118958461162a565b6040516020016118a692919061235f565b6040516020818303038152906040525b9392505050565b600081815b84518110156119615760008582815181106118df576118df61224a565b6020026020010151905080831161192157604080516020810185905290810182905260600160405160208183030381529060405280519060200120925061194e565b60408051602081018390529081018490526060016040516020818303038152906040528051906020012092505b5080611959816123e3565b9150506118c2565b509392505050565b6119738383611aa9565b611980600084848461199c565b6107e95760405162461bcd60e51b81526004016105549061243c565b60006001600160a01b0384163b15611a9e57604051630a85bd0160e11b81526001600160a01b0385169063150b7a02906119e090339089908890889060040161248e565b602060405180830381600087803b1580156119fa57600080fd5b505af1925050508015611a2a575060408051601f3d908101601f19168201909252611a27918101906124cb565b60015b611a84573d808015611a58576040519150601f19603f3d011682016040523d82523d6000602084013e611a5d565b606091505b508051611a7c5760405162461bcd60e51b81526004016105549061243c565b805181602001fd5b6001600160e01b031916630a85bd0160e11b149050610ff6565b506001949350505050565b6001600160a01b038216611aff5760405162461bcd60e51b815260206004820181905260248201527f4552433732313a206d696e7420746f20746865207a65726f20616464726573736044820152606401610554565b611b08816111c8565b15611b555760405162461bcd60e51b815260206004820152601c60248201527f4552433732313a20746f6b656e20616c7265616479206d696e746564000000006044820152606401610554565b6001600160a01b0382166000908152600360205260408120805460019290611b7e9084906123cb565b909155505060008181526002602052604080822080546001600160a01b0319166001600160a01b03861690811790915590518392907fddf252ad1be2c89b69c2b068fc378daa952ba7f163c4a11628f55a4df523b3ef908290a45050565b828054611be8906121be565b90600052602060002090601f016020900481019282611c0a5760008555611c50565b82601f10611c2357805160ff1916838001178555611c50565b82800160010185558215611c50579182015b82811115611c50578251825591602001919060010190611c35565b50611c5c929150611c60565b5090565b5b80821115611c5c5760008155600101611c61565b6001600160e01b0319811681146111c557600080fd5b600060208284031215611c9d57600080fd5b81356118b681611c75565b60005b83811015611cc3578181015183820152602001611cab565b83811115610df35750506000910152565b60008151808452611cec816020860160208601611ca8565b601f01601f19169290920160200192915050565b6020815260006118b66020830184611cd4565b600060208284031215611d2557600080fd5b5035919050565b80356001600160a01b0381168114611d4357600080fd5b919050565b60008060408385031215611d5b57600080fd5b611d6483611d2c565b946020939093013593505050565b600080600060608486031215611d8757600080fd5b611d9084611d2c565b9250611d9e60208501611d2c565b9150604084013590509250925092565b600060208284031215611dc057600080fd5b6118b682611d2c565b634e487b7160e01b600052604160045260246000fd5b604051601f8201601f191681016001600160401b0381118282101715611e0757611e07611dc9565b604052919050565b60006001600160401b03821115611e2857611e28611dc9565b5060051b60200190565b600082601f830112611e4357600080fd5b81356020611e58611e5383611e0f565b611ddf565b82815260059290921b84018101918181019086841115611e7757600080fd5b8286015b84811015611e9957611e8c81611d2c565b8352918301918301611e7b565b509695505050505050565b600060208284031215611eb657600080fd5b81356001600160401b03811115611ecc57600080fd5b610ff684828501611e32565b60006001600160401b03831115611ef157611ef1611dc9565b611f04601f8401601f1916602001611ddf565b9050828152838383011115611f1857600080fd5b828260208301376000602084830101529392505050565b600082601f830112611f4057600080fd5b6118b683833560208501611ed8565b600080600060608486031215611f6457600080fd5b8335925060208401356001600160401b03811115611f8157600080fd5b611f8d86828701611f2f565b925050604084013590509250925092565b80358015158114611d4357600080fd5b60008060408385031215611fc157600080fd5b611fca83611d2c565b9150611fd860208401611f9e565b90509250929050565b60006020808385031215611ff457600080fd5b82356001600160401b0381111561200a57600080fd5b8301601f8101851361201b57600080fd5b8035612029611e5382611e0f565b81815260059190911b8201830190838101908783111561204857600080fd5b928401925b828410156120665783358252928401929084019061204d565b979650505050505050565b6000806000806080858703121561208757600080fd5b61209085611d2c565b935061209e60208601611d2c565b92506040850135915060608501356001600160401b038111156120c057600080fd5b8501601f810187136120d157600080fd5b6120e087823560208401611ed8565b91505092959194509250565b60008060006060848603121561210157600080fd5b83356001600160401b038082111561211857600080fd5b61212487838801611e32565b9450602086013591508082111561213a57600080fd5b5061214786828701611f2f565b92505061215660408501611f9e565b90509250925092565b6000806040838503121561217257600080fd5b61217b83611d2c565b9150611fd860208401611d2c565b6020808252818101527f4f776e61626c653a2063616c6c6572206973206e6f7420746865206f776e6572604082015260600190565b600181811c908216806121d257607f821691505b602082108114156121f357634e487b7160e01b600052602260045260246000fd5b50919050565b60208082526031908201527f4552433732313a207472616e736665722063616c6c6572206973206e6f74206f6040820152701ddb995c881b9bdc88185c1c1c9bdd9959607a1b606082015260800190565b634e487b7160e01b600052603260045260246000fd5b634e487b7160e01b600052601160045260246000fd5b60006001600160401b038083168181141561229357612293612260565b6001019392505050565b8054600090600181811c90808316806122b757607f831692505b60208084108214156122d957634e487b7160e01b600052602260045260246000fd5b8180156122ed57600181146122fe5761232b565b60ff1986168952848901965061232b565b60008881526020902060005b868110156123235781548b82015290850190830161230a565b505084890196505b50505050505092915050565b6000612343828661229d565b8451612353818360208901611ca8565b6120668183018661229d565b60008351612371818460208801611ca8565b835190830190612385818360208801611ca8565b01949350505050565b600084516123a0818460208901611ca8565b845190830190612353818360208901611ca8565b6000828210156123c6576123c6612260565b500390565b600082198211156123de576123de612260565b500190565b60006000198214156123f7576123f7612260565b5060010190565b634e487b7160e01b600052601260045260246000fd5b600082612423576124236123fe565b500490565b600082612437576124376123fe565b500690565b60208082526032908201527f4552433732313a207472616e7366657220746f206e6f6e20455243373231526560408201527131b2b4bb32b91034b6b83632b6b2b73a32b960711b606082015260800190565b6001600160a01b03858116825284166020820152604081018390526080606082018190526000906124c190830184611cd4565b9695505050505050565b6000602082840312156124dd57600080fd5b81516118b681611c7556fea26469706673582212202da9de70335e6ec857706ebb4c57b88c5e9c019f7b1f979a3a9d99f1a10758f364736f6c63430008090033",
  "libraries": {},
  "devdoc": {
    "kind": "dev",
    "methods": {
      "approve(address,uint256)": {
        "details": "See {IERC721-approve}."
      },
      "balanceOf(address)": {
        "details": "See {IERC721-balanceOf}."
      },
      "getApproved(uint256)": {
        "details": "See {IERC721-getApproved}."
      },
      "isApprovedForAll(address,address)": {
        "details": "See {IERC721-isApprovedForAll}."
      },
      "name()": {
        "details": "See {IERC721Metadata-name}."
      },
      "owner()": {
        "details": "Returns the address of the current owner."
      },
      "ownerOf(uint256)": {
        "details": "See {IERC721-ownerOf}."
      },
      "renounceOwnership()": {
        "details": "Leaves the contract without owner. It will not be possible to call `onlyOwner` functions anymore. Can only be called by the current owner. NOTE: Renouncing ownership will leave the contract without an owner, thereby removing any functionality that is only available to the owner."
      },
      "safeTransferFrom(address,address,uint256)": {
        "details": "See {IERC721-safeTransferFrom}."
      },
      "safeTransferFrom(address,address,uint256,bytes)": {
        "details": "See {IERC721-safeTransferFrom}."
      },
      "setApprovalForAll(address,bool)": {
        "details": "See {IERC721-setApprovalForAll}."
      },
      "supportsInterface(bytes4)": {
        "details": "See {IERC165-supportsInterface}."
      },
      "symbol()": {
        "details": "See {IERC721Metadata-symbol}."
      },
      "tokenURI(uint256)": {
        "details": "See {IERC721Metadata-tokenURI}."
      },
      "transferFrom(address,address,uint256)": {
        "details": "See {IERC721-transferFrom}."
      },
      "transferOwnership(address)": {
        "details": "Transfers ownership of the contract to a new account (`newOwner`). Can only be called by the current owner."
      }
    },
    "version": 1
  },
  "userdoc": {
    "kind": "user",
    "methods": {},
    "version": 1
  },
  "storageLayout": {
    "storage": [
      {
        "astId": 130,
        "contract": "contracts/ATXDAONFT_V2.sol:ATXDAONFT_V2",
        "label": "_name",
        "offset": 0,
        "slot": "0",
        "type": "t_string_storage"
      },
      {
        "astId": 132,
        "contract": "contracts/ATXDAONFT_V2.sol:ATXDAONFT_V2",
        "label": "_symbol",
        "offset": 0,
        "slot": "1",
        "type": "t_string_storage"
      },
      {
        "astId": 136,
        "contract": "contracts/ATXDAONFT_V2.sol:ATXDAONFT_V2",
        "label": "_owners",
        "offset": 0,
        "slot": "2",
        "type": "t_mapping(t_uint256,t_address)"
      },
      {
        "astId": 140,
        "contract": "contracts/ATXDAONFT_V2.sol:ATXDAONFT_V2",
        "label": "_balances",
        "offset": 0,
        "slot": "3",
        "type": "t_mapping(t_address,t_uint256)"
      },
      {
        "astId": 144,
        "contract": "contracts/ATXDAONFT_V2.sol:ATXDAONFT_V2",
        "label": "_tokenApprovals",
        "offset": 0,
        "slot": "4",
        "type": "t_mapping(t_uint256,t_address)"
      },
      {
        "astId": 150,
        "contract": "contracts/ATXDAONFT_V2.sol:ATXDAONFT_V2",
        "label": "_operatorApprovals",
        "offset": 0,
        "slot": "5",
        "type": "t_mapping(t_address,t_mapping(t_address,t_bool))"
      },
      {
        "astId": 1420,
        "contract": "contracts/ATXDAONFT_V2.sol:ATXDAONFT_V2",
        "label": "_tokenURIs",
        "offset": 0,
        "slot": "6",
        "type": "t_mapping(t_uint256,t_string_storage)"
      },
      {
        "astId": 7,
        "contract": "contracts/ATXDAONFT_V2.sol:ATXDAONFT_V2",
        "label": "_owner",
        "offset": 0,
        "slot": "7",
        "type": "t_address"
      },
      {
        "astId": 2566,
        "contract": "contracts/ATXDAONFT_V2.sol:ATXDAONFT_V2",
        "label": "isMintable",
        "offset": 20,
        "slot": "7",
        "type": "t_bool"
      },
      {
        "astId": 2569,
        "contract": "contracts/ATXDAONFT_V2.sol:ATXDAONFT_V2",
        "label": "_mintPrice",
        "offset": 0,
        "slot": "8",
        "type": "t_uint256"
      },
      {
        "astId": 2572,
        "contract": "contracts/ATXDAONFT_V2.sol:ATXDAONFT_V2",
        "label": "_mintCount",
        "offset": 0,
        "slot": "9",
        "type": "t_struct(Counter)1918_storage"
      },
      {
        "astId": 2575,
        "contract": "contracts/ATXDAONFT_V2.sol:ATXDAONFT_V2",
        "label": "_tokenIds",
        "offset": 0,
        "slot": "10",
        "type": "t_struct(Counter)1918_storage"
      },
      {
        "astId": 2577,
        "contract": "contracts/ATXDAONFT_V2.sol:ATXDAONFT_V2",
        "label": "merkleRoot",
        "offset": 0,
        "slot": "11",
        "type": "t_bytes32"
      },
      {
        "astId": 2579,
        "contract": "contracts/ATXDAONFT_V2.sol:ATXDAONFT_V2",
        "label": "baseURI",
        "offset": 0,
        "slot": "12",
        "type": "t_string_storage"
      },
      {
        "astId": 2582,
        "contract": "contracts/ATXDAONFT_V2.sol:ATXDAONFT_V2",
        "label": "baseExtension",
        "offset": 0,
        "slot": "13",
        "type": "t_string_storage"
      },
      {
        "astId": 2586,
        "contract": "contracts/ATXDAONFT_V2.sol:ATXDAONFT_V2",
        "label": "hasMinted",
        "offset": 0,
        "slot": "14",
        "type": "t_mapping(t_address,t_bool)"
      }
    ],
    "types": {
      "t_address": {
        "encoding": "inplace",
        "label": "address",
        "numberOfBytes": "20"
      },
      "t_bool": {
        "encoding": "inplace",
        "label": "bool",
        "numberOfBytes": "1"
      },
      "t_bytes32": {
        "encoding": "inplace",
        "label": "bytes32",
        "numberOfBytes": "32"
      },
      "t_mapping(t_address,t_bool)": {
        "encoding": "mapping",
        "key": "t_address",
        "label": "mapping(address => bool)",
        "numberOfBytes": "32",
        "value": "t_bool"
      },
      "t_mapping(t_address,t_mapping(t_address,t_bool))": {
        "encoding": "mapping",
        "key": "t_address",
        "label": "mapping(address => mapping(address => bool))",
        "numberOfBytes": "32",
        "value": "t_mapping(t_address,t_bool)"
      },
      "t_mapping(t_address,t_uint256)": {
        "encoding": "mapping",
        "key": "t_address",
        "label": "mapping(address => uint256)",
        "numberOfBytes": "32",
        "value": "t_uint256"
      },
      "t_mapping(t_uint256,t_address)": {
        "encoding": "mapping",
        "key": "t_uint256",
        "label": "mapping(uint256 => address)",
        "numberOfBytes": "32",
        "value": "t_address"
      },
      "t_mapping(t_uint256,t_string_storage)": {
        "encoding": "mapping",
        "key": "t_uint256",
        "label": "mapping(uint256 => string)",
        "numberOfBytes": "32",
        "value": "t_string_storage"
      },
      "t_string_storage": {
        "encoding": "bytes",
        "label": "string",
        "numberOfBytes": "32"
      },
      "t_struct(Counter)1918_storage": {
        "encoding": "inplace",
        "label": "struct Counters.Counter",
        "members": [
          {
            "astId": 1917,
            "contract": "contracts/ATXDAONFT_V2.sol:ATXDAONFT_V2",
            "label": "_value",
            "offset": 0,
            "slot": "0",
            "type": "t_uint256"
          }
        ],
        "numberOfBytes": "32"
      },
      "t_uint256": {
        "encoding": "inplace",
        "label": "uint256",
        "numberOfBytes": "32"
      }
    }
  }
}