{
  "_format": "hh-sol-artifact-1",
  "contractName": "ATXDAONFT_V2",
  "sourceName": "contracts/ATXDAONFT_V2.sol",
  "abi": [
    {
      "anonymous": false,
      "inputs": [
        {
          "indexed": false,
          "internalType": "address",
          "name": "previousAdmin",
          "type": "address"
        },
        {
          "indexed": false,
          "internalType": "address",
          "name": "newAdmin",
          "type": "address"
        }
      ],
      "name": "AdminChanged",
      "type": "event"
    },
    {
      "anonymous": false,
      "inputs": [
        {
          "indexed": true,
          "internalType": "address",
          "name": "owner",
          "type": "address"
        },
        {
          "indexed": true,
          "internalType": "address",
          "name": "approved",
          "type": "address"
        },
        {
          "indexed": true,
          "internalType": "uint256",
          "name": "tokenId",
          "type": "uint256"
        }
      ],
      "name": "Approval",
      "type": "event"
    },
    {
      "anonymous": false,
      "inputs": [
        {
          "indexed": true,
          "internalType": "address",
          "name": "owner",
          "type": "address"
        },
        {
          "indexed": true,
          "internalType": "address",
          "name": "operator",
          "type": "address"
        },
        {
          "indexed": false,
          "internalType": "bool",
          "name": "approved",
          "type": "bool"
        }
      ],
      "name": "ApprovalForAll",
      "type": "event"
    },
    {
      "anonymous": false,
      "inputs": [
        {
          "indexed": true,
          "internalType": "address",
          "name": "beacon",
          "type": "address"
        }
      ],
      "name": "BeaconUpgraded",
      "type": "event"
    },
    {
      "anonymous": false,
      "inputs": [
        {
          "indexed": true,
          "internalType": "address",
          "name": "previousOwner",
          "type": "address"
        },
        {
          "indexed": true,
          "internalType": "address",
          "name": "newOwner",
          "type": "address"
        }
      ],
      "name": "OwnershipTransferred",
      "type": "event"
    },
    {
      "anonymous": false,
      "inputs": [
        {
          "indexed": false,
          "internalType": "address",
          "name": "account",
          "type": "address"
        }
      ],
      "name": "Paused",
      "type": "event"
    },
    {
      "anonymous": false,
      "inputs": [
        {
          "indexed": true,
          "internalType": "address",
          "name": "from",
          "type": "address"
        },
        {
          "indexed": true,
          "internalType": "address",
          "name": "to",
          "type": "address"
        },
        {
          "indexed": true,
          "internalType": "uint256",
          "name": "tokenId",
          "type": "uint256"
        }
      ],
      "name": "Transfer",
      "type": "event"
    },
    {
      "anonymous": false,
      "inputs": [
        {
          "indexed": false,
          "internalType": "address",
          "name": "account",
          "type": "address"
        }
      ],
      "name": "Unpaused",
      "type": "event"
    },
    {
      "anonymous": false,
      "inputs": [
        {
          "indexed": true,
          "internalType": "address",
          "name": "implementation",
          "type": "address"
        }
      ],
      "name": "Upgraded",
      "type": "event"
    },
    {
      "inputs": [],
      "name": "_mintPrice",
      "outputs": [
        {
          "internalType": "uint256",
          "name": "",
          "type": "uint256"
        }
      ],
      "stateMutability": "view",
      "type": "function"
    },
    {
      "inputs": [],
      "name": "_mintQuantity",
      "outputs": [
        {
          "internalType": "uint256",
          "name": "",
          "type": "uint256"
        }
      ],
      "stateMutability": "view",
      "type": "function"
    },
    {
      "inputs": [
        {
          "internalType": "address",
          "name": "to",
          "type": "address"
        },
        {
          "internalType": "uint256",
          "name": "tokenId",
          "type": "uint256"
        }
      ],
      "name": "approve",
      "outputs": [],
      "stateMutability": "nonpayable",
      "type": "function"
    },
    {
      "inputs": [
        {
          "internalType": "address",
          "name": "owner",
          "type": "address"
        }
      ],
      "name": "balanceOf",
      "outputs": [
        {
          "internalType": "uint256",
          "name": "",
          "type": "uint256"
        }
      ],
      "stateMutability": "view",
      "type": "function"
    },
    {
      "inputs": [
        {
          "internalType": "uint256",
          "name": "tokenId",
          "type": "uint256"
        }
      ],
      "name": "burn",
      "outputs": [],
      "stateMutability": "nonpayable",
      "type": "function"
    },
    {
      "inputs": [
        {
          "internalType": "uint256",
          "name": "tokenId",
          "type": "uint256"
        }
      ],
      "name": "getApproved",
      "outputs": [
        {
          "internalType": "address",
          "name": "",
          "type": "address"
        }
      ],
      "stateMutability": "view",
      "type": "function"
    },
    {
      "inputs": [
        {
          "internalType": "string",
          "name": "_name",
          "type": "string"
        },
        {
          "internalType": "string",
          "name": "_symbol",
          "type": "string"
        }
      ],
      "name": "initialize",
      "outputs": [],
      "stateMutability": "nonpayable",
      "type": "function"
    },
    {
      "inputs": [
        {
          "internalType": "address",
          "name": "owner",
          "type": "address"
        },
        {
          "internalType": "address",
          "name": "operator",
          "type": "address"
        }
      ],
      "name": "isApprovedForAll",
      "outputs": [
        {
          "internalType": "bool",
          "name": "",
          "type": "bool"
        }
      ],
      "stateMutability": "view",
      "type": "function"
    },
    {
      "inputs": [],
      "name": "isMintable",
      "outputs": [
        {
          "internalType": "bool",
          "name": "",
          "type": "bool"
        }
      ],
      "stateMutability": "view",
      "type": "function"
    },
    {
      "inputs": [
        {
          "internalType": "bytes32[]",
          "name": "proof",
          "type": "bytes32[]"
        }
      ],
      "name": "mint",
      "outputs": [],
      "stateMutability": "payable",
      "type": "function"
    },
    {
      "inputs": [],
      "name": "name",
      "outputs": [
        {
          "internalType": "string",
          "name": "",
          "type": "string"
        }
      ],
      "stateMutability": "view",
      "type": "function"
    },
    {
      "inputs": [],
      "name": "owner",
      "outputs": [
        {
          "internalType": "address",
          "name": "",
          "type": "address"
        }
      ],
      "stateMutability": "view",
      "type": "function"
    },
    {
      "inputs": [
        {
          "internalType": "uint256",
          "name": "tokenId",
          "type": "uint256"
        }
      ],
      "name": "ownerOf",
      "outputs": [
        {
          "internalType": "address",
          "name": "",
          "type": "address"
        }
      ],
      "stateMutability": "view",
      "type": "function"
    },
    {
      "inputs": [],
      "name": "pause",
      "outputs": [],
      "stateMutability": "nonpayable",
      "type": "function"
    },
    {
      "inputs": [],
      "name": "paused",
      "outputs": [
        {
          "internalType": "bool",
          "name": "",
          "type": "bool"
        }
      ],
      "stateMutability": "view",
      "type": "function"
    },
    {
      "inputs": [],
      "name": "renounceOwnership",
      "outputs": [],
      "stateMutability": "nonpayable",
      "type": "function"
    },
    {
      "inputs": [
        {
          "internalType": "address",
          "name": "from",
          "type": "address"
        },
        {
          "internalType": "address",
          "name": "to",
          "type": "address"
        },
        {
          "internalType": "uint256",
          "name": "tokenId",
          "type": "uint256"
        }
      ],
      "name": "safeTransferFrom",
      "outputs": [],
      "stateMutability": "nonpayable",
      "type": "function"
    },
    {
      "inputs": [
        {
          "internalType": "address",
          "name": "from",
          "type": "address"
        },
        {
          "internalType": "address",
          "name": "to",
          "type": "address"
        },
        {
          "internalType": "uint256",
          "name": "tokenId",
          "type": "uint256"
        },
        {
          "internalType": "bytes",
          "name": "_data",
          "type": "bytes"
        }
      ],
      "name": "safeTransferFrom",
      "outputs": [],
      "stateMutability": "nonpayable",
      "type": "function"
    },
    {
      "inputs": [
        {
          "internalType": "address",
          "name": "operator",
          "type": "address"
        },
        {
          "internalType": "bool",
          "name": "approved",
          "type": "bool"
        }
      ],
      "name": "setApprovalForAll",
      "outputs": [],
      "stateMutability": "nonpayable",
      "type": "function"
    },
    {
      "inputs": [
        {
          "internalType": "bytes32",
          "name": "root",
          "type": "bytes32"
        }
      ],
      "name": "setMerkleRoot",
      "outputs": [],
      "stateMutability": "nonpayable",
      "type": "function"
    },
    {
      "inputs": [
        {
          "internalType": "bytes4",
          "name": "interfaceId",
          "type": "bytes4"
        }
      ],
      "name": "supportsInterface",
      "outputs": [
        {
          "internalType": "bool",
          "name": "",
          "type": "bool"
        }
      ],
      "stateMutability": "view",
      "type": "function"
    },
    {
      "inputs": [],
      "name": "symbol",
      "outputs": [
        {
          "internalType": "string",
          "name": "",
          "type": "string"
        }
      ],
      "stateMutability": "view",
      "type": "function"
    },
    {
      "inputs": [
        {
          "internalType": "uint256",
          "name": "tokenId",
          "type": "uint256"
        }
      ],
      "name": "tokenURI",
      "outputs": [
        {
          "internalType": "string",
          "name": "",
          "type": "string"
        }
      ],
      "stateMutability": "view",
      "type": "function"
    },
    {
      "inputs": [
        {
          "internalType": "address",
          "name": "from",
          "type": "address"
        },
        {
          "internalType": "address",
          "name": "to",
          "type": "address"
        },
        {
          "internalType": "uint256",
          "name": "tokenId",
          "type": "uint256"
        }
      ],
      "name": "transferFrom",
      "outputs": [],
      "stateMutability": "nonpayable",
      "type": "function"
    },
    {
      "inputs": [
        {
          "internalType": "address",
          "name": "newOwner",
          "type": "address"
        }
      ],
      "name": "transferOwnership",
      "outputs": [],
      "stateMutability": "nonpayable",
      "type": "function"
    },
    {
      "inputs": [],
      "name": "unpause",
      "outputs": [],
      "stateMutability": "nonpayable",
      "type": "function"
    },
    {
      "inputs": [
        {
          "internalType": "address",
          "name": "newImplementation",
          "type": "address"
        }
      ],
      "name": "upgradeTo",
      "outputs": [],
      "stateMutability": "nonpayable",
      "type": "function"
    },
    {
      "inputs": [
        {
          "internalType": "address",
          "name": "newImplementation",
          "type": "address"
        },
        {
          "internalType": "bytes",
          "name": "data",
          "type": "bytes"
        }
      ],
      "name": "upgradeToAndCall",
      "outputs": [],
      "stateMutability": "payable",
      "type": "function"
    }
  ],
  "bytecode": "0x60a06040523073ffffffffffffffffffffffffffffffffffffffff1660809073ffffffffffffffffffffffffffffffffffffffff1681525060006101c360006101000a81548160ff02191690831515021790555067071afd498d0000006101c45560196101c55534801561007257600080fd5b506080516155c7620000a4600039600081816109e801528181610a7701528181610d9f0152610e2e01526155c76000f3fe6080604052600436106101b75760003560e01c80636352211e116100ec578063a22cb4651161008a578063c87b56dd11610064578063c87b56dd146105a0578063d520ec6b146105dd578063e985e9c514610608578063f2fde38b14610645576101b7565b8063a22cb46514610532578063b77a147b1461055b578063b88d4fde14610577576101b7565b80637cb64759116100c65780637cb647591461049c5780638456cb59146104c55780638da5cb5b146104dc57806395d89b4114610507576101b7565b80636352211e1461040b57806370a0823114610448578063715018a614610485576101b7565b80633f4ba83a1161015957806346b45af71161013357806346b45af7146103705780634cd88b761461039b5780634f1ef286146103c45780635c975abb146103e0576101b7565b80633f4ba83a1461030757806342842e0e1461031e57806342966c6814610347576101b7565b8063081812fc11610195578063081812fc1461024f578063095ea7b31461028c57806323b872dd146102b55780633659cfe6146102de576101b7565b806301ffc9a7146101bc5780630387da42146101f957806306fdde0314610224575b600080fd5b3480156101c857600080fd5b506101e360048036038101906101de91906136d9565b61066e565b6040516101f09190613721565b60405180910390f35b34801561020557600080fd5b5061020e610750565b60405161021b9190613755565b60405180910390f35b34801561023057600080fd5b50610239610757565b6040516102469190613809565b60405180910390f35b34801561025b57600080fd5b5061027660048036038101906102719190613857565b6107e9565b60405161028391906138c5565b60405180910390f35b34801561029857600080fd5b506102b360048036038101906102ae919061390c565b61086e565b005b3480156102c157600080fd5b506102dc60048036038101906102d7919061394c565b610986565b005b3480156102ea57600080fd5b506103056004803603810190610300919061399f565b6109e6565b005b34801561031357600080fd5b5061031c610b6f565b005b34801561032a57600080fd5b506103456004803603810190610340919061394c565b610bf5565b005b34801561035357600080fd5b5061036e60048036038101906103699190613857565b610c15565b005b34801561037c57600080fd5b50610385610c71565b6040516103929190613721565b60405180910390f35b3480156103a757600080fd5b506103c260048036038101906103bd9190613b01565b610c85565b005b6103de60048036038101906103d99190613c1a565b610d9d565b005b3480156103ec57600080fd5b506103f5610eda565b6040516104029190613721565b60405180910390f35b34801561041757600080fd5b50610432600480360381019061042d9190613857565b610ef1565b60405161043f91906138c5565b60405180910390f35b34801561045457600080fd5b5061046f600480360381019061046a919061399f565b610fa3565b60405161047c9190613755565b60405180910390f35b34801561049157600080fd5b5061049a61105b565b005b3480156104a857600080fd5b506104c360048036038101906104be9190613cac565b6110e3565b005b3480156104d157600080fd5b506104da61116a565b005b3480156104e857600080fd5b506104f16111f0565b6040516104fe91906138c5565b60405180910390f35b34801561051357600080fd5b5061051c61121a565b6040516105299190613809565b60405180910390f35b34801561053e57600080fd5b5061055960048036038101906105549190613d05565b6112ac565b005b61057560048036038101906105709190613e0d565b6112c2565b005b34801561058357600080fd5b5061059e60048036038101906105999190613e56565b6115ac565b005b3480156105ac57600080fd5b506105c760048036038101906105c29190613857565b61160e565b6040516105d49190613809565b60405180910390f35b3480156105e957600080fd5b506105f2611620565b6040516105ff9190613755565b60405180910390f35b34801561061457600080fd5b5061062f600480360381019061062a9190613ed9565b611627565b60405161063c9190613721565b60405180910390f35b34801561065157600080fd5b5061066c6004803603810190610667919061399f565b6116bb565b005b60007f80ac58cd000000000000000000000000000000000000000000000000000000007bffffffffffffffffffffffffffffffffffffffffffffffffffffffff1916827bffffffffffffffffffffffffffffffffffffffffffffffffffffffff1916148061073957507f5b5e139f000000000000000000000000000000000000000000000000000000007bffffffffffffffffffffffffffffffffffffffffffffffffffffffff1916827bffffffffffffffffffffffffffffffffffffffffffffffffffffffff1916145b806107495750610748826117b3565b5b9050919050565b6101c45481565b60606065805461076690613f48565b80601f016020809104026020016040519081016040528092919081815260200182805461079290613f48565b80156107df5780601f106107b4576101008083540402835291602001916107df565b820191906000526020600020905b8154815290600101906020018083116107c257829003601f168201915b5050505050905090565b60006107f48261181d565b610833576040517f08c379a000000000000000000000000000000000000000000000000000000000815260040161082a90613fec565b60405180910390fd5b6069600083815260200190815260200160002060009054906101000a900473ffffffffffffffffffffffffffffffffffffffff169050919050565b600061087982610ef1565b90508073ffffffffffffffffffffffffffffffffffffffff168373ffffffffffffffffffffffffffffffffffffffff1614156108ea576040517f08c379a00000000000000000000000000000000000000000000000000000000081526004016108e19061407e565b60405180910390fd5b8073ffffffffffffffffffffffffffffffffffffffff16610909611889565b73ffffffffffffffffffffffffffffffffffffffff161480610938575061093781610932611889565b611627565b5b610977576040517f08c379a000000000000000000000000000000000000000000000000000000000815260040161096e90614110565b60405180910390fd5b6109818383611891565b505050565b610997610991611889565b8261194a565b6109d6576040517f08c379a00000000000000000000000000000000000000000000000000000000081526004016109cd906141a2565b60405180910390fd5b6109e1838383611a28565b505050565b7f000000000000000000000000000000000000000000000000000000000000000073ffffffffffffffffffffffffffffffffffffffff163073ffffffffffffffffffffffffffffffffffffffff161415610a75576040517f08c379a0000000000000000000000000000000000000000000000000000000008152600401610a6c90614234565b60405180910390fd5b7f000000000000000000000000000000000000000000000000000000000000000073ffffffffffffffffffffffffffffffffffffffff16610ab4611c84565b73ffffffffffffffffffffffffffffffffffffffff1614610b0a576040517f08c379a0000000000000000000000000000000000000000000000000000000008152600401610b01906142c6565b60405180910390fd5b610b1381611cdb565b610b6c81600067ffffffffffffffff811115610b3257610b316139d6565b5b6040519080825280601f01601f191660200182016040528015610b645781602001600182028036833780820191505090505b506000611d5a565b50565b610b77611889565b73ffffffffffffffffffffffffffffffffffffffff16610b956111f0565b73ffffffffffffffffffffffffffffffffffffffff1614610beb576040517f08c379a0000000000000000000000000000000000000000000000000000000008152600401610be290614332565b60405180910390fd5b610bf3611f2b565b565b610c10838383604051806020016040528060008152506115ac565b505050565b610c26610c20611889565b8261194a565b610c65576040517f08c379a0000000000000000000000000000000000000000000000000000000008152600401610c5c906143c4565b60405180910390fd5b610c6e81611fcd565b50565b6101c360009054906101000a900460ff1681565b600060019054906101000a900460ff16610cad5760008054906101000a900460ff1615610cb6565b610cb5611fd9565b5b610cf5576040517f08c379a0000000000000000000000000000000000000000000000000000000008152600401610cec90614456565b60405180910390fd5b60008060019054906101000a900460ff161590508015610d45576001600060016101000a81548160ff02191690831515021790555060016000806101000a81548160ff0219169083151502179055505b610d4f8383611fea565b610d57612057565b610d5f6120c0565b610d67612121565b610d6f612182565b610d776121eb565b8015610d985760008060016101000a81548160ff0219169083151502179055505b505050565b7f000000000000000000000000000000000000000000000000000000000000000073ffffffffffffffffffffffffffffffffffffffff163073ffffffffffffffffffffffffffffffffffffffff161415610e2c576040517f08c379a0000000000000000000000000000000000000000000000000000000008152600401610e2390614234565b60405180910390fd5b7f000000000000000000000000000000000000000000000000000000000000000073ffffffffffffffffffffffffffffffffffffffff16610e6b611c84565b73ffffffffffffffffffffffffffffffffffffffff1614610ec1576040517f08c379a0000000000000000000000000000000000000000000000000000000008152600401610eb8906142c6565b60405180910390fd5b610eca82611cdb565b610ed682826001611d5a565b5050565b600060c960009054906101000a900460ff16905090565b6000806067600084815260200190815260200160002060009054906101000a900473ffffffffffffffffffffffffffffffffffffffff169050600073ffffffffffffffffffffffffffffffffffffffff168173ffffffffffffffffffffffffffffffffffffffff161415610f9a576040517f08c379a0000000000000000000000000000000000000000000000000000000008152600401610f91906144e8565b60405180910390fd5b80915050919050565b60008073ffffffffffffffffffffffffffffffffffffffff168273ffffffffffffffffffffffffffffffffffffffff161415611014576040517f08c379a000000000000000000000000000000000000000000000000000000000815260040161100b9061457a565b60405180910390fd5b606860008373ffffffffffffffffffffffffffffffffffffffff1673ffffffffffffffffffffffffffffffffffffffff168152602001908152602001600020549050919050565b611063611889565b73ffffffffffffffffffffffffffffffffffffffff166110816111f0565b73ffffffffffffffffffffffffffffffffffffffff16146110d7576040517f08c379a00000000000000000000000000000000000000000000000000000000081526004016110ce90614332565b60405180910390fd5b6110e1600061224c565b565b6110eb611889565b73ffffffffffffffffffffffffffffffffffffffff166111096111f0565b73ffffffffffffffffffffffffffffffffffffffff161461115f576040517f08c379a000000000000000000000000000000000000000000000000000000000815260040161115690614332565b60405180910390fd5b806101c88190555050565b611172611889565b73ffffffffffffffffffffffffffffffffffffffff166111906111f0565b73ffffffffffffffffffffffffffffffffffffffff16146111e6576040517f08c379a00000000000000000000000000000000000000000000000000000000081526004016111dd90614332565b60405180910390fd5b6111ee612312565b565b600060fb60009054906101000a900473ffffffffffffffffffffffffffffffffffffffff16905090565b60606066805461122990613f48565b80601f016020809104026020016040519081016040528092919081815260200182805461125590613f48565b80156112a25780601f10611277576101008083540402835291602001916112a2565b820191906000526020600020905b81548152906001019060200180831161128557829003601f168201915b5050505050905090565b6112be6112b7611889565b83836123b5565b5050565b6113006101c854336040516020016112da91906145e2565b60405160208183030381529060405280519060200120836125229092919063ffffffff16565b61133f576040517f08c379a000000000000000000000000000000000000000000000000000000000815260040161133690614649565b60405180910390fd5b600115156101c360009054906101000a900460ff16151514611396576040517f08c379a000000000000000000000000000000000000000000000000000000000815260040161138d906146db565b60405180910390fd5b60006113a133610fa3565b146113e1576040517f08c379a00000000000000000000000000000000000000000000000000000000081526004016113d89061476d565b60405180910390fd5b6101c5546113f06101c66125d8565b10611430576040517f08c379a0000000000000000000000000000000000000000000000000000000008152600401611427906147d9565b60405180910390fd5b6101c454341015611476576040517f08c379a000000000000000000000000000000000000000000000000000000000815260040161146d90614845565b60405180910390fd5b3273ffffffffffffffffffffffffffffffffffffffff163373ffffffffffffffffffffffffffffffffffffffff16146114e4576040517f08c379a00000000000000000000000000000000000000000000000000000000081526004016114db906148b1565b60405180910390fd5b6114ef6101c76125e6565b60006114fc6101c76125d8565b905061150833826125fc565b61159d816101c9805461151a90613f48565b80601f016020809104026020016040519081016040528092919081815260200182805461154690613f48565b80156115935780601f1061156857610100808354040283529160200191611593565b820191906000526020600020905b81548152906001019060200180831161157657829003601f168201915b505050505061261a565b6115a86101c66125e6565b5050565b6115bd6115b7611889565b8361194a565b6115fc576040517f08c379a00000000000000000000000000000000000000000000000000000000081526004016115f3906141a2565b60405180910390fd5b6116088484848461268e565b50505050565b6060611619826126ea565b9050919050565b6101c55481565b6000606a60008473ffffffffffffffffffffffffffffffffffffffff1673ffffffffffffffffffffffffffffffffffffffff16815260200190815260200160002060008373ffffffffffffffffffffffffffffffffffffffff1673ffffffffffffffffffffffffffffffffffffffff16815260200190815260200160002060009054906101000a900460ff16905092915050565b6116c3611889565b73ffffffffffffffffffffffffffffffffffffffff166116e16111f0565b73ffffffffffffffffffffffffffffffffffffffff1614611737576040517f08c379a000000000000000000000000000000000000000000000000000000000815260040161172e90614332565b60405180910390fd5b600073ffffffffffffffffffffffffffffffffffffffff168173ffffffffffffffffffffffffffffffffffffffff1614156117a7576040517f08c379a000000000000000000000000000000000000000000000000000000000815260040161179e90614943565b60405180910390fd5b6117b08161224c565b50565b60007f01ffc9a7000000000000000000000000000000000000000000000000000000007bffffffffffffffffffffffffffffffffffffffffffffffffffffffff1916827bffffffffffffffffffffffffffffffffffffffffffffffffffffffff1916149050919050565b60008073ffffffffffffffffffffffffffffffffffffffff166067600084815260200190815260200160002060009054906101000a900473ffffffffffffffffffffffffffffffffffffffff1673ffffffffffffffffffffffffffffffffffffffff1614159050919050565b600033905090565b816069600083815260200190815260200160002060006101000a81548173ffffffffffffffffffffffffffffffffffffffff021916908373ffffffffffffffffffffffffffffffffffffffff160217905550808273ffffffffffffffffffffffffffffffffffffffff1661190483610ef1565b73ffffffffffffffffffffffffffffffffffffffff167f8c5be1e5ebec7d5bd14f71427d1e84f3dd0314c0f7b2291e5b200ac8c7c3b92560405160405180910390a45050565b60006119558261181d565b611994576040517f08c379a000000000000000000000000000000000000000000000000000000000815260040161198b906149d5565b60405180910390fd5b600061199f83610ef1565b90508073ffffffffffffffffffffffffffffffffffffffff168473ffffffffffffffffffffffffffffffffffffffff161480611a0e57508373ffffffffffffffffffffffffffffffffffffffff166119f6846107e9565b73ffffffffffffffffffffffffffffffffffffffff16145b80611a1f5750611a1e8185611627565b5b91505092915050565b8273ffffffffffffffffffffffffffffffffffffffff16611a4882610ef1565b73ffffffffffffffffffffffffffffffffffffffff1614611a9e576040517f08c379a0000000000000000000000000000000000000000000000000000000008152600401611a9590614a67565b60405180910390fd5b600073ffffffffffffffffffffffffffffffffffffffff168273ffffffffffffffffffffffffffffffffffffffff161415611b0e576040517f08c379a0000000000000000000000000000000000000000000000000000000008152600401611b0590614af9565b60405180910390fd5b611b1983838361283c565b611b24600082611891565b6001606860008573ffffffffffffffffffffffffffffffffffffffff1673ffffffffffffffffffffffffffffffffffffffff1681526020019081526020016000206000828254611b749190614b48565b925050819055506001606860008473ffffffffffffffffffffffffffffffffffffffff1673ffffffffffffffffffffffffffffffffffffffff1681526020019081526020016000206000828254611bcb9190614b7c565b92505081905550816067600083815260200190815260200160002060006101000a81548173ffffffffffffffffffffffffffffffffffffffff021916908373ffffffffffffffffffffffffffffffffffffffff160217905550808273ffffffffffffffffffffffffffffffffffffffff168473ffffffffffffffffffffffffffffffffffffffff167fddf252ad1be2c89b69c2b068fc378daa952ba7f163c4a11628f55a4df523b3ef60405160405180910390a4505050565b6000611cb27f360894a13ba1a3210667c828492db98dca3e2076cc3735a920a3ca505d382bbc60001b612894565b60000160009054906101000a900473ffffffffffffffffffffffffffffffffffffffff16905090565b611ce3611889565b73ffffffffffffffffffffffffffffffffffffffff16611d016111f0565b73ffffffffffffffffffffffffffffffffffffffff1614611d57576040517f08c379a0000000000000000000000000000000000000000000000000000000008152600401611d4e90614332565b60405180910390fd5b50565b6000611d64611c84565b9050611d6f8461289e565b600083511180611d7c5750815b15611d8d57611d8b8484612957565b505b6000611dbb7f4910fdfa16fed3260ed0e7147f7cc6da11a60208b5b9406d12a635614ffd914360001b612a3b565b90508060000160009054906101000a900460ff16611f245760018160000160006101000a81548160ff021916908315150217905550611e878583604051602401611e0591906138c5565b6040516020818303038152906040527f3659cfe6000000000000000000000000000000000000000000000000000000007bffffffffffffffffffffffffffffffffffffffffffffffffffffffff19166020820180517bffffffffffffffffffffffffffffffffffffffffffffffffffffffff8381831617835250505050612957565b5060008160000160006101000a81548160ff021916908315150217905550611ead611c84565b73ffffffffffffffffffffffffffffffffffffffff168273ffffffffffffffffffffffffffffffffffffffff1614611f1a576040517f08c379a0000000000000000000000000000000000000000000000000000000008152600401611f1190614c44565b60405180910390fd5b611f2385612a45565b5b5050505050565b611f33610eda565b611f72576040517f08c379a0000000000000000000000000000000000000000000000000000000008152600401611f6990614cb0565b60405180910390fd5b600060c960006101000a81548160ff0219169083151502179055507f5db9ee0a495bf2e6ff9c91a7834c1ba4fdd244a5e8aa4e537bd38aeae4b073aa611fb6611889565b604051611fc391906138c5565b60405180910390a1565b611fd681612a94565b50565b6000611fe430612ae7565b15905090565b600060019054906101000a900460ff16612039576040517f08c379a000000000000000000000000000000000000000000000000000000000815260040161203090614d42565b60405180910390fd5b612041612afa565b612049612b4b565b6120538282612b9c565b5050565b600060019054906101000a900460ff166120a6576040517f08c379a000000000000000000000000000000000000000000000000000000000815260040161209d90614d42565b60405180910390fd5b6120ae612afa565b6120b6612b4b565b6120be612c1d565b565b600060019054906101000a900460ff1661210f576040517f08c379a000000000000000000000000000000000000000000000000000000000815260040161210690614d42565b60405180910390fd5b612117612afa565b61211f612c6e565b565b600060019054906101000a900460ff16612170576040517f08c379a000000000000000000000000000000000000000000000000000000000815260040161216790614d42565b60405180910390fd5b612178612afa565b612180612cda565b565b600060019054906101000a900460ff166121d1576040517f08c379a00000000000000000000000000000000000000000000000000000000081526004016121c890614d42565b60405180910390fd5b6121d9612afa565b6121e1612b4b565b6121e9612d3b565b565b600060019054906101000a900460ff1661223a576040517f08c379a000000000000000000000000000000000000000000000000000000000815260040161223190614d42565b60405180910390fd5b612242612d8c565b61224a612ddd565b565b600060fb60009054906101000a900473ffffffffffffffffffffffffffffffffffffffff1690508160fb60006101000a81548173ffffffffffffffffffffffffffffffffffffffff021916908373ffffffffffffffffffffffffffffffffffffffff1602179055508173ffffffffffffffffffffffffffffffffffffffff168173ffffffffffffffffffffffffffffffffffffffff167f8be0079c531659141344cd1fd0a4f28419497f9722a3daafe3b4186f6b6457e060405160405180910390a35050565b61231a610eda565b1561235a576040517f08c379a000000000000000000000000000000000000000000000000000000000815260040161235190614dae565b60405180910390fd5b600160c960006101000a81548160ff0219169083151502179055507f62e78cea01bee320cd4e420270b5ea74000d11b0c9f74754ebdbfc544b05a25861239e611889565b6040516123ab91906138c5565b60405180910390a1565b8173ffffffffffffffffffffffffffffffffffffffff168373ffffffffffffffffffffffffffffffffffffffff161415612424576040517f08c379a000000000000000000000000000000000000000000000000000000000815260040161241b90614e1a565b60405180910390fd5b80606a60008573ffffffffffffffffffffffffffffffffffffffff1673ffffffffffffffffffffffffffffffffffffffff16815260200190815260200160002060008473ffffffffffffffffffffffffffffffffffffffff1673ffffffffffffffffffffffffffffffffffffffff16815260200190815260200160002060006101000a81548160ff0219169083151502179055508173ffffffffffffffffffffffffffffffffffffffff168373ffffffffffffffffffffffffffffffffffffffff167f17307eab39ab6107e8899845ad3d59bd9653f200f220920489ca2b5937696c31836040516125159190613721565b60405180910390a3505050565b60008082905060005b85518110156125ca57600086828151811061254957612548614e3a565b5b6020026020010151905080831161258a57828160405160200161256d929190614e8a565b6040516020818303038152906040528051906020012092506125b6565b808360405160200161259d929190614e8a565b6040516020818303038152906040528051906020012092505b5080806125c290614eb6565b91505061252b565b508381149150509392505050565b600081600001549050919050565b6001816000016000828254019250508190555050565b612616828260405180602001604052806000815250612e2e565b5050565b6126238261181d565b612662576040517f08c379a000000000000000000000000000000000000000000000000000000000815260040161265990614f71565b60405180910390fd5b8060976000848152602001908152602001600020908051906020019061268992919061358a565b505050565b612699848484611a28565b6126a584848484612e89565b6126e4576040517f08c379a00000000000000000000000000000000000000000000000000000000081526004016126db90615003565b60405180910390fd5b50505050565b60606126f58261181d565b612734576040517f08c379a000000000000000000000000000000000000000000000000000000000815260040161272b90615095565b60405180910390fd5b600060976000848152602001908152602001600020805461275490613f48565b80601f016020809104026020016040519081016040528092919081815260200182805461278090613f48565b80156127cd5780601f106127a2576101008083540402835291602001916127cd565b820191906000526020600020905b8154815290600101906020018083116127b057829003601f168201915b5050505050905060006127de613020565b90506000815114156127f4578192505050612837565b6000825111156128295780826040516020016128119291906150f1565b60405160208183030381529060405292505050612837565b61283284613037565b925050505b919050565b612844610eda565b15612884576040517f08c379a000000000000000000000000000000000000000000000000000000000815260040161287b90614dae565b60405180910390fd5b61288f8383836130de565b505050565b6000819050919050565b6128a781612ae7565b6128e6576040517f08c379a00000000000000000000000000000000000000000000000000000000081526004016128dd90615187565b60405180910390fd5b806129137f360894a13ba1a3210667c828492db98dca3e2076cc3735a920a3ca505d382bbc60001b612894565b60000160006101000a81548173ffffffffffffffffffffffffffffffffffffffff021916908373ffffffffffffffffffffffffffffffffffffffff16021790555050565b606061296283612ae7565b6129a1576040517f08c379a000000000000000000000000000000000000000000000000000000000815260040161299890615219565b60405180910390fd5b6000808473ffffffffffffffffffffffffffffffffffffffff16846040516129c99190615280565b600060405180830381855af49150503d8060008114612a04576040519150601f19603f3d011682016040523d82523d6000602084013e612a09565b606091505b5091509150612a31828260405180606001604052806027815260200161556b602791396130e3565b9250505092915050565b6000819050919050565b612a4e8161289e565b8073ffffffffffffffffffffffffffffffffffffffff167fbc7cd75a20ee27fd9adebab32041f755214dbc6bffa90cc0225b39da2e5c2d3b60405160405180910390a250565b612a9d8161314a565b6000609760008381526020019081526020016000208054612abd90613f48565b905014612ae457609760008281526020019081526020016000206000612ae39190613610565b5b50565b600080823b905060008111915050919050565b600060019054906101000a900460ff16612b49576040517f08c379a0000000000000000000000000000000000000000000000000000000008152600401612b4090614d42565b60405180910390fd5b565b600060019054906101000a900460ff16612b9a576040517f08c379a0000000000000000000000000000000000000000000000000000000008152600401612b9190614d42565b60405180910390fd5b565b600060019054906101000a900460ff16612beb576040517f08c379a0000000000000000000000000000000000000000000000000000000008152600401612be290614d42565b60405180910390fd5b8160659080519060200190612c0192919061358a565b508060669080519060200190612c1892919061358a565b505050565b600060019054906101000a900460ff16612c6c576040517f08c379a0000000000000000000000000000000000000000000000000000000008152600401612c6390614d42565b60405180910390fd5b565b600060019054906101000a900460ff16612cbd576040517f08c379a0000000000000000000000000000000000000000000000000000000008152600401612cb490614d42565b60405180910390fd5b600060c960006101000a81548160ff021916908315150217905550565b600060019054906101000a900460ff16612d29576040517f08c379a0000000000000000000000000000000000000000000000000000000008152600401612d2090614d42565b60405180910390fd5b612d39612d34611889565b61224c565b565b600060019054906101000a900460ff16612d8a576040517f08c379a0000000000000000000000000000000000000000000000000000000008152600401612d8190614d42565b60405180910390fd5b565b600060019054906101000a900460ff16612ddb576040517f08c379a0000000000000000000000000000000000000000000000000000000008152600401612dd290614d42565b60405180910390fd5b565b600060019054906101000a900460ff16612e2c576040517f08c379a0000000000000000000000000000000000000000000000000000000008152600401612e2390614d42565b60405180910390fd5b565b612e38838361325b565b612e456000848484612e89565b612e84576040517f08c379a0000000000000000000000000000000000000000000000000000000008152600401612e7b90615003565b60405180910390fd5b505050565b6000612eaa8473ffffffffffffffffffffffffffffffffffffffff16612ae7565b15613013578373ffffffffffffffffffffffffffffffffffffffff1663150b7a02612ed3611889565b8786866040518563ffffffff1660e01b8152600401612ef594939291906152e1565b602060405180830381600087803b158015612f0f57600080fd5b505af1925050508015612f4057506040513d601f19601f82011682018060405250810190612f3d9190615342565b60015b612fc3573d8060008114612f70576040519150601f19603f3d011682016040523d82523d6000602084013e612f75565b606091505b50600081511415612fbb576040517f08c379a0000000000000000000000000000000000000000000000000000000008152600401612fb290615003565b60405180910390fd5b805181602001fd5b63150b7a0260e01b7bffffffffffffffffffffffffffffffffffffffffffffffffffffffff1916817bffffffffffffffffffffffffffffffffffffffffffffffffffffffff191614915050613018565b600190505b949350505050565b606060405180602001604052806000815250905090565b60606130428261181d565b613081576040517f08c379a0000000000000000000000000000000000000000000000000000000008152600401613078906153e1565b60405180910390fd5b600061308b613020565b905060008151116130ab57604051806020016040528060008152506130d6565b806130b584613429565b6040516020016130c69291906150f1565b6040516020818303038152906040525b915050919050565b505050565b606083156130f357829050613143565b6000835111156131065782518084602001fd5b816040517f08c379a000000000000000000000000000000000000000000000000000000000815260040161313a9190613809565b60405180910390fd5b9392505050565b600061315582610ef1565b90506131638160008461283c565b61316e600083611891565b6001606860008373ffffffffffffffffffffffffffffffffffffffff1673ffffffffffffffffffffffffffffffffffffffff16815260200190815260200160002060008282546131be9190614b48565b925050819055506067600083815260200190815260200160002060006101000a81549073ffffffffffffffffffffffffffffffffffffffff021916905581600073ffffffffffffffffffffffffffffffffffffffff168273ffffffffffffffffffffffffffffffffffffffff167fddf252ad1be2c89b69c2b068fc378daa952ba7f163c4a11628f55a4df523b3ef60405160405180910390a45050565b600073ffffffffffffffffffffffffffffffffffffffff168273ffffffffffffffffffffffffffffffffffffffff1614156132cb576040517f08c379a00000000000000000000000000000000000000000000000000000000081526004016132c29061544d565b60405180910390fd5b6132d48161181d565b15613314576040517f08c379a000000000000000000000000000000000000000000000000000000000815260040161330b906154b9565b60405180910390fd5b6133206000838361283c565b6001606860008473ffffffffffffffffffffffffffffffffffffffff1673ffffffffffffffffffffffffffffffffffffffff16815260200190815260200160002060008282546133709190614b7c565b92505081905550816067600083815260200190815260200160002060006101000a81548173ffffffffffffffffffffffffffffffffffffffff021916908373ffffffffffffffffffffffffffffffffffffffff160217905550808273ffffffffffffffffffffffffffffffffffffffff16600073ffffffffffffffffffffffffffffffffffffffff167fddf252ad1be2c89b69c2b068fc378daa952ba7f163c4a11628f55a4df523b3ef60405160405180910390a45050565b60606000821415613471576040518060400160405280600181526020017f30000000000000000000000000000000000000000000000000000000000000008152509050613585565b600082905060005b600082146134a357808061348c90614eb6565b915050600a8261349c9190615508565b9150613479565b60008167ffffffffffffffff8111156134bf576134be6139d6565b5b6040519080825280601f01601f1916602001820160405280156134f15781602001600182028036833780820191505090505b5090505b6000851461357e5760018261350a9190614b48565b9150600a856135199190615539565b60306135259190614b7c565b60f81b81838151811061353b5761353a614e3a565b5b60200101907effffffffffffffffffffffffffffffffffffffffffffffffffffffffffffff1916908160001a905350600a856135779190615508565b94506134f5565b8093505050505b919050565b82805461359690613f48565b90600052602060002090601f0160209004810192826135b857600085556135ff565b82601f106135d157805160ff19168380011785556135ff565b828001600101855582156135ff579182015b828111156135fe5782518255916020019190600101906135e3565b5b50905061360c9190613650565b5090565b50805461361c90613f48565b6000825580601f1061362e575061364d565b601f01602090049060005260206000209081019061364c9190613650565b5b50565b5b80821115613669576000816000905550600101613651565b5090565b6000604051905090565b600080fd5b600080fd5b60007fffffffff0000000000000000000000000000000000000000000000000000000082169050919050565b6136b681613681565b81146136c157600080fd5b50565b6000813590506136d3816136ad565b92915050565b6000602082840312156136ef576136ee613677565b5b60006136fd848285016136c4565b91505092915050565b60008115159050919050565b61371b81613706565b82525050565b60006020820190506137366000830184613712565b92915050565b6000819050919050565b61374f8161373c565b82525050565b600060208201905061376a6000830184613746565b92915050565b600081519050919050565b600082825260208201905092915050565b60005b838110156137aa57808201518184015260208101905061378f565b838111156137b9576000848401525b50505050565b6000601f19601f8301169050919050565b60006137db82613770565b6137e5818561377b565b93506137f581856020860161378c565b6137fe816137bf565b840191505092915050565b6000602082019050818103600083015261382381846137d0565b905092915050565b6138348161373c565b811461383f57600080fd5b50565b6000813590506138518161382b565b92915050565b60006020828403121561386d5761386c613677565b5b600061387b84828501613842565b91505092915050565b600073ffffffffffffffffffffffffffffffffffffffff82169050919050565b60006138af82613884565b9050919050565b6138bf816138a4565b82525050565b60006020820190506138da60008301846138b6565b92915050565b6138e9816138a4565b81146138f457600080fd5b50565b600081359050613906816138e0565b92915050565b6000806040838503121561392357613922613677565b5b6000613931858286016138f7565b925050602061394285828601613842565b9150509250929050565b60008060006060848603121561396557613964613677565b5b6000613973868287016138f7565b9350506020613984868287016138f7565b925050604061399586828701613842565b9150509250925092565b6000602082840312156139b5576139b4613677565b5b60006139c3848285016138f7565b91505092915050565b600080fd5b600080fd5b7f4e487b7100000000000000000000000000000000000000000000000000000000600052604160045260246000fd5b613a0e826137bf565b810181811067ffffffffffffffff82111715613a2d57613a2c6139d6565b5b80604052505050565b6000613a4061366d565b9050613a4c8282613a05565b919050565b600067ffffffffffffffff821115613a6c57613a6b6139d6565b5b613a75826137bf565b9050602081019050919050565b82818337600083830152505050565b6000613aa4613a9f84613a51565b613a36565b905082815260208101848484011115613ac057613abf6139d1565b5b613acb848285613a82565b509392505050565b600082601f830112613ae857613ae76139cc565b5b8135613af8848260208601613a91565b91505092915050565b60008060408385031215613b1857613b17613677565b5b600083013567ffffffffffffffff811115613b3657613b3561367c565b5b613b4285828601613ad3565b925050602083013567ffffffffffffffff811115613b6357613b6261367c565b5b613b6f85828601613ad3565b9150509250929050565b600067ffffffffffffffff821115613b9457613b936139d6565b5b613b9d826137bf565b9050602081019050919050565b6000613bbd613bb884613b79565b613a36565b905082815260208101848484011115613bd957613bd86139d1565b5b613be4848285613a82565b509392505050565b600082601f830112613c0157613c006139cc565b5b8135613c11848260208601613baa565b91505092915050565b60008060408385031215613c3157613c30613677565b5b6000613c3f858286016138f7565b925050602083013567ffffffffffffffff811115613c6057613c5f61367c565b5b613c6c85828601613bec565b9150509250929050565b6000819050919050565b613c8981613c76565b8114613c9457600080fd5b50565b600081359050613ca681613c80565b92915050565b600060208284031215613cc257613cc1613677565b5b6000613cd084828501613c97565b91505092915050565b613ce281613706565b8114613ced57600080fd5b50565b600081359050613cff81613cd9565b92915050565b60008060408385031215613d1c57613d1b613677565b5b6000613d2a858286016138f7565b9250506020613d3b85828601613cf0565b9150509250929050565b600067ffffffffffffffff821115613d6057613d5f6139d6565b5b602082029050602081019050919050565b600080fd5b6000613d89613d8484613d45565b613a36565b90508083825260208201905060208402830185811115613dac57613dab613d71565b5b835b81811015613dd55780613dc18882613c97565b845260208401935050602081019050613dae565b5050509392505050565b600082601f830112613df457613df36139cc565b5b8135613e04848260208601613d76565b91505092915050565b600060208284031215613e2357613e22613677565b5b600082013567ffffffffffffffff811115613e4157613e4061367c565b5b613e4d84828501613ddf565b91505092915050565b60008060008060808587031215613e7057613e6f613677565b5b6000613e7e878288016138f7565b9450506020613e8f878288016138f7565b9350506040613ea087828801613842565b925050606085013567ffffffffffffffff811115613ec157613ec061367c565b5b613ecd87828801613bec565b91505092959194509250565b60008060408385031215613ef057613eef613677565b5b6000613efe858286016138f7565b9250506020613f0f858286016138f7565b9150509250929050565b7f4e487b7100000000000000000000000000000000000000000000000000000000600052602260045260246000fd5b60006002820490506001821680613f6057607f821691505b60208210811415613f7457613f73613f19565b5b50919050565b7f4552433732313a20617070726f76656420717565727920666f72206e6f6e657860008201527f697374656e7420746f6b656e0000000000000000000000000000000000000000602082015250565b6000613fd6602c8361377b565b9150613fe182613f7a565b604082019050919050565b6000602082019050818103600083015261400581613fc9565b9050919050565b7f4552433732313a20617070726f76616c20746f2063757272656e74206f776e6560008201527f7200000000000000000000000000000000000000000000000000000000000000602082015250565b600061406860218361377b565b91506140738261400c565b604082019050919050565b600060208201905081810360008301526140978161405b565b9050919050565b7f4552433732313a20617070726f76652063616c6c6572206973206e6f74206f7760008201527f6e6572206e6f7220617070726f76656420666f7220616c6c0000000000000000602082015250565b60006140fa60388361377b565b91506141058261409e565b604082019050919050565b60006020820190508181036000830152614129816140ed565b9050919050565b7f4552433732313a207472616e736665722063616c6c6572206973206e6f74206f60008201527f776e6572206e6f7220617070726f766564000000000000000000000000000000602082015250565b600061418c60318361377b565b915061419782614130565b604082019050919050565b600060208201905081810360008301526141bb8161417f565b9050919050565b7f46756e6374696f6e206d7573742062652063616c6c6564207468726f7567682060008201527f64656c656761746563616c6c0000000000000000000000000000000000000000602082015250565b600061421e602c8361377b565b9150614229826141c2565b604082019050919050565b6000602082019050818103600083015261424d81614211565b9050919050565b7f46756e6374696f6e206d7573742062652063616c6c6564207468726f7567682060008201527f6163746976652070726f78790000000000000000000000000000000000000000602082015250565b60006142b0602c8361377b565b91506142bb82614254565b604082019050919050565b600060208201905081810360008301526142df816142a3565b9050919050565b7f4f776e61626c653a2063616c6c6572206973206e6f7420746865206f776e6572600082015250565b600061431c60208361377b565b9150614327826142e6565b602082019050919050565b6000602082019050818103600083015261434b8161430f565b9050919050565b7f4552433732314275726e61626c653a2063616c6c6572206973206e6f74206f7760008201527f6e6572206e6f7220617070726f76656400000000000000000000000000000000602082015250565b60006143ae60308361377b565b91506143b982614352565b604082019050919050565b600060208201905081810360008301526143dd816143a1565b9050919050565b7f496e697469616c697a61626c653a20636f6e747261637420697320616c72656160008201527f647920696e697469616c697a6564000000000000000000000000000000000000602082015250565b6000614440602e8361377b565b915061444b826143e4565b604082019050919050565b6000602082019050818103600083015261446f81614433565b9050919050565b7f4552433732313a206f776e657220717565727920666f72206e6f6e657869737460008201527f656e7420746f6b656e0000000000000000000000000000000000000000000000602082015250565b60006144d260298361377b565b91506144dd82614476565b604082019050919050565b60006020820190508181036000830152614501816144c5565b9050919050565b7f4552433732313a2062616c616e636520717565727920666f7220746865207a6560008201527f726f206164647265737300000000000000000000000000000000000000000000602082015250565b6000614564602a8361377b565b915061456f82614508565b604082019050919050565b6000602082019050818103600083015261459381614557565b9050919050565b60008160601b9050919050565b60006145b28261459a565b9050919050565b60006145c4826145a7565b9050919050565b6145dc6145d7826138a4565b6145b9565b82525050565b60006145ee82846145cb565b60148201915081905092915050565b7f4e6f74206f6e20746865206c6973742100000000000000000000000000000000600082015250565b600061463360108361377b565b915061463e826145fd565b602082019050919050565b6000602082019050818103600083015261466281614626565b9050919050565b7f4154582044414f204e4654206973206e6f74206d696e7461626c65206174207460008201527f6865206d6f6d656e742100000000000000000000000000000000000000000000602082015250565b60006146c5602a8361377b565b91506146d082614669565b604082019050919050565b600060208201905081810360008301526146f4816146b8565b9050919050565b7f4d696e74696e67206973206f6e6c7920617661696c61626c6520666f72206e6f60008201527f6e2d686f6c646572730000000000000000000000000000000000000000000000602082015250565b600061475760298361377b565b9150614762826146fb565b604082019050919050565b600060208201905081810360008301526147868161474a565b9050919050565b7f4e6f206d6f7265204e4654732072656d61696e696e6721000000000000000000600082015250565b60006147c360178361377b565b91506147ce8261478d565b602082019050919050565b600060208201905081810360008301526147f2816147b6565b9050919050565b7f4e6f7420656e6f7567682065746865722073656e7420746f206d696e74210000600082015250565b600061482f601e8361377b565b915061483a826147f9565b602082019050919050565b6000602082019050818103600083015261485e81614822565b9050919050565b7f4e6f20636f6e7472616374732100000000000000000000000000000000000000600082015250565b600061489b600d8361377b565b91506148a682614865565b602082019050919050565b600060208201905081810360008301526148ca8161488e565b9050919050565b7f4f776e61626c653a206e6577206f776e657220697320746865207a65726f206160008201527f6464726573730000000000000000000000000000000000000000000000000000602082015250565b600061492d60268361377b565b9150614938826148d1565b604082019050919050565b6000602082019050818103600083015261495c81614920565b9050919050565b7f4552433732313a206f70657261746f7220717565727920666f72206e6f6e657860008201527f697374656e7420746f6b656e0000000000000000000000000000000000000000602082015250565b60006149bf602c8361377b565b91506149ca82614963565b604082019050919050565b600060208201905081810360008301526149ee816149b2565b9050919050565b7f4552433732313a207472616e73666572206f6620746f6b656e2074686174206960008201527f73206e6f74206f776e0000000000000000000000000000000000000000000000602082015250565b6000614a5160298361377b565b9150614a5c826149f5565b604082019050919050565b60006020820190508181036000830152614a8081614a44565b9050919050565b7f4552433732313a207472616e7366657220746f20746865207a65726f2061646460008201527f7265737300000000000000000000000000000000000000000000000000000000602082015250565b6000614ae360248361377b565b9150614aee82614a87565b604082019050919050565b60006020820190508181036000830152614b1281614ad6565b9050919050565b7f4e487b7100000000000000000000000000000000000000000000000000000000600052601160045260246000fd5b6000614b538261373c565b9150614b5e8361373c565b925082821015614b7157614b70614b19565b5b828203905092915050565b6000614b878261373c565b9150614b928361373c565b9250827fffffffffffffffffffffffffffffffffffffffffffffffffffffffffffffffff03821115614bc757614bc6614b19565b5b828201905092915050565b7f45524331393637557067726164653a207570677261646520627265616b73206660008201527f7572746865722075706772616465730000000000000000000000000000000000602082015250565b6000614c2e602f8361377b565b9150614c3982614bd2565b604082019050919050565b60006020820190508181036000830152614c5d81614c21565b9050919050565b7f5061757361626c653a206e6f7420706175736564000000000000000000000000600082015250565b6000614c9a60148361377b565b9150614ca582614c64565b602082019050919050565b60006020820190508181036000830152614cc981614c8d565b9050919050565b7f496e697469616c697a61626c653a20636f6e7472616374206973206e6f74206960008201527f6e697469616c697a696e67000000000000000000000000000000000000000000602082015250565b6000614d2c602b8361377b565b9150614d3782614cd0565b604082019050919050565b60006020820190508181036000830152614d5b81614d1f565b9050919050565b7f5061757361626c653a2070617573656400000000000000000000000000000000600082015250565b6000614d9860108361377b565b9150614da382614d62565b602082019050919050565b60006020820190508181036000830152614dc781614d8b565b9050919050565b7f4552433732313a20617070726f766520746f2063616c6c657200000000000000600082015250565b6000614e0460198361377b565b9150614e0f82614dce565b602082019050919050565b60006020820190508181036000830152614e3381614df7565b9050919050565b7f4e487b7100000000000000000000000000000000000000000000000000000000600052603260045260246000fd5b6000819050919050565b614e84614e7f82613c76565b614e69565b82525050565b6000614e968285614e73565b602082019150614ea68284614e73565b6020820191508190509392505050565b6000614ec18261373c565b91507fffffffffffffffffffffffffffffffffffffffffffffffffffffffffffffffff821415614ef457614ef3614b19565b5b600182019050919050565b7f45524337323155524953746f726167653a2055524920736574206f66206e6f6e60008201527f6578697374656e7420746f6b656e000000000000000000000000000000000000602082015250565b6000614f5b602e8361377b565b9150614f6682614eff565b604082019050919050565b60006020820190508181036000830152614f8a81614f4e565b9050919050565b7f4552433732313a207472616e7366657220746f206e6f6e20455243373231526560008201527f63656976657220696d706c656d656e7465720000000000000000000000000000602082015250565b6000614fed60328361377b565b9150614ff882614f91565b604082019050919050565b6000602082019050818103600083015261501c81614fe0565b9050919050565b7f45524337323155524953746f726167653a2055524920717565727920666f722060008201527f6e6f6e6578697374656e7420746f6b656e000000000000000000000000000000602082015250565b600061507f60318361377b565b915061508a82615023565b604082019050919050565b600060208201905081810360008301526150ae81615072565b9050919050565b600081905092915050565b60006150cb82613770565b6150d581856150b5565b93506150e581856020860161378c565b80840191505092915050565b60006150fd82856150c0565b915061510982846150c0565b91508190509392505050565b7f455243313936373a206e657720696d706c656d656e746174696f6e206973206e60008201527f6f74206120636f6e747261637400000000000000000000000000000000000000602082015250565b6000615171602d8361377b565b915061517c82615115565b604082019050919050565b600060208201905081810360008301526151a081615164565b9050919050565b7f416464726573733a2064656c65676174652063616c6c20746f206e6f6e2d636f60008201527f6e74726163740000000000000000000000000000000000000000000000000000602082015250565b600061520360268361377b565b915061520e826151a7565b604082019050919050565b60006020820190508181036000830152615232816151f6565b9050919050565b600081519050919050565b600081905092915050565b600061525a82615239565b6152648185615244565b935061527481856020860161378c565b80840191505092915050565b600061528c828461524f565b915081905092915050565b600082825260208201905092915050565b60006152b382615239565b6152bd8185615297565b93506152cd81856020860161378c565b6152d6816137bf565b840191505092915050565b60006080820190506152f660008301876138b6565b61530360208301866138b6565b6153106040830185613746565b818103606083015261532281846152a8565b905095945050505050565b60008151905061533c816136ad565b92915050565b60006020828403121561535857615357613677565b5b60006153668482850161532d565b91505092915050565b7f4552433732314d657461646174613a2055524920717565727920666f72206e6f60008201527f6e6578697374656e7420746f6b656e0000000000000000000000000000000000602082015250565b60006153cb602f8361377b565b91506153d68261536f565b604082019050919050565b600060208201905081810360008301526153fa816153be565b9050919050565b7f4552433732313a206d696e7420746f20746865207a65726f2061646472657373600082015250565b600061543760208361377b565b915061544282615401565b602082019050919050565b600060208201905081810360008301526154668161542a565b9050919050565b7f4552433732313a20746f6b656e20616c7265616479206d696e74656400000000600082015250565b60006154a3601c8361377b565b91506154ae8261546d565b602082019050919050565b600060208201905081810360008301526154d281615496565b9050919050565b7f4e487b7100000000000000000000000000000000000000000000000000000000600052601260045260246000fd5b60006155138261373c565b915061551e8361373c565b92508261552e5761552d6154d9565b5b828204905092915050565b60006155448261373c565b915061554f8361373c565b92508261555f5761555e6154d9565b5b82820690509291505056fe416464726573733a206c6f772d6c6576656c2064656c65676174652063616c6c206661696c6564a26469706673582212202741dfea89ca0eadf93dfa15f818e33d2d48eced4f3093c28bd4f58a0c217d4a64736f6c63430008090033",
  "linkReferences": {},
  "deployedLinkReferences": {}
}